:020000040800F2
:10000000707C0020DD010008913B000825350008C8
:10001000793B00088F0300085D46000800000000DF
:10002000000000000000000000000000273D000864
:100030000505000800000000933B0008293D00086A
:10004000F7010008F7010008F7010008F7010008B0
:10005000F7010008F7010008F7010008F7010008A0
:10006000F7010008F701000861060008F701000821
:1000700025040008F701000831040008F701000812
:10008000F7010008F7010008F7010008A9030008BC
:10009000910300089D030008F701000867060008A7
:1000A000F7010008F7010008F7010008F701000850
:1000B000F7010008F7010008293E0008F7010008D1
:1000C000F7010008F7010008F7010008F701000830
:1000D000F7010008F7010008F7010008F701000820
:1000E00059060008F7010008F7010008F7010008A9
:1000F0006D3E00084D3E0008F70100083D04000871
:10010000F7010008F7010008F7010008F7010008EF
:10011000F7010008F7010008F7010008F7010008DF
:1001200049040008F7010008F70100085504000819
:10013000F7010008F7010008F7010008F7010008BF
:10014000F7010008F7010008F7010008F7010008AF
:10015000F7010008F7010008F7010008F70100089F
:10016000F7010008F7010008F7010008F70100088F
:10017000F7010008F7010008F7010008000000007F
:10018000F7010008F7010008D5410008F701000851
:10019000F7010008F7010008F7010008F70100085F
:1001A000F7010008F7010008F7010008F70100084F
:1001B000F7010008F7010008F7010008F70100083F
:1001C000F7010008F7010008DFF80CD000F0B0F8E4
:1001D00000480047B56D0008707C00200648804745
:1001E00006480047FEE7FEE7FEE7FEE7FEE7FEE71C
:1001F000FEE7FEE7FEE7FEE7D53D0008C90100087F
:100200002DE9F05F0546002092469B46884606464B
:10021000814640241BE0284641464746224600F0DE
:1002200076F853465A46C01A914110D311461846E3
:10023000224600F05DF82D1A67EB01084F46224672
:100240000120002100F054F817EB00094E41201E58
:10025000A4F10104DFDC484631462A464346BDE8A6
:10026000F09F40EA01039B0703D009E008C9121F71
:1002700008C0042AFAD203E011F8013B00F8013B60
:10028000521EF9D27047D2B201E000F8012B491E8C
:10029000FBD270470022F6E710B513460A46044623
:1002A0001946FFF7F0FF204610BD30B50446002088
:1002B000034600E05B1C934203D2E05CCD5C401B34
:1002C000F8D030BD30B50B46014600202022012475
:1002D00009E021FA02F59D4205D303FA02F5491B14
:1002E00004FA02F52844151EA2F10102F1DC30BD2A
:1002F000202A04DB203A00FA02F1002070479140E6
:10030000C2F1200320FA03F3194390407047202ADA
:1003100004DB203A21FA02F00021704721FA02F3AF
:10032000D040C2F1200291400843194670470000B6
:10033000064C074D06E0E06840F0010394E8070032
:1003400098471034AC42F6D3FFF742FFC4C600080A
:10035000E4C6000830B58C1810F8012B12F00F031A
:1003600001D110F8013B120906D110F8012B03E06E
:1003700010F8015B01F8015B5B1EF9D101E001F8A7
:10038000013B521EFBD1A142E6D3002030BDFEE767
:10039000014800F094BA000044050020014800F034
:1003A0008EBA000044050020014800F088BA000021
:1003B0004405002001220B4810B5910201F0F7FA24
:1003C000094C01229103204601F0F1FA0122204656
:1003D000110301F0ECFA01222046BDE81040102183
:1003E00001F0E5BA001002400014024040280BD092
:1003F00080280BD0B0F5807F0AD0B0F5007F09D1FE
:100400005FF0030005F0E0BB0020FBE70120F9E707
:100410000220F7E7704700000148006970470000BC
:1004200008000020014800F0B5BC0000C00A002010
:10043000014800F0AFBC0000200B0020014800F094
:10044000A9BC0000600A0020014800F0A3BC000025
:10045000A0090020014800F09DBC0000000A002017
:1004600001681823CAB2103AB2FBF3F2054B6FF3DE
:100470000901032A9B5CC36500D9091D81650846F3
:100480007047000084C4000810B583694FF0C07441
:10049000826A0146002053B1B3F5005F15D072B1F6
:1004A000012A0CD0022A0AD0032A09D104E01AB189
:1004B000012A06D0022A03D1C96AC90100D5012048
:1004C00010BDC96AA142FAD010BD002AF7D0012A96
:1004D000F2D0022AF3D0032AF3D010BD30B504685D
:1004E000256825F480252560046863608368402BB7
:1004F000036803D099600068C26030BD9A600068EC
:10050000C16030BD704738B50446006800F58050C2
:10051000816941F480118161206800F58050806913
:100520000090012000F0B6FD2068009900F5805091
:10053000816138BD2DE9F041044621B14FF40061DD
:10054000C800C4E90201E0690025002862D02846FD
:100550002368D4E9021C3A4F40261A6841EA0C018C
:1005600001433A4041F40070104318602068076866
:10057000012000F08FFD2068076020684660206839
:100580004668012000F086FD20684FF64172466003
:10059000206885602068C56021688869104040F047
:1005A0008000886120688669012000F073FD206862
:1005B00086612068C5612068C569012000F06AFD78
:1005C0002068204B2049C561206800F58050826971
:1005D0001A4011438161206800F58050856901202F
:1005E00000F058FD2068194900F5805085612068A9
:1005F00000F580500160206800F5805005680120FA
:1006000000F048FD206800F580500560A0690128D1
:1006100003D009E04FF480609AE720680C4A00F5A7
:100620008050C1691143C16160690A4982880A64C6
:100630000278D0F8010042EA00204864BDE8F08169
:100640000F8120FF233FDEF8040020028020C1023A
:1006500040000100008002404FF4005001F0AAB8B1
:10066000102001F0A7B8202010B501F0A3F8402019
:1006700001F0A0F8802001F09DF84FF4807001F0A7
:1006800099F8BDE810404FF4007001F093B870473E
:1006900090F82020012A07D0022A05D0416A41F4AF
:1006A0008021416201207047006842690A4342612B
:1006B0000020704730B590F82020012A07D0022A88
:1006C00005D0416A41F480214162012030BD3B48A0
:1006D0000122D0F8003243F00103C0F80032D0F814
:1006E000003223F47C53C0F80032D0F800324C6A58
:1006F00043EA0423C0F80032D0F81C320C7D04F029
:100700001F04A2409343C0F81C32CB69B3B9D0F8A0
:100710000C329343C0F80C328C894B684D6964F3FA
:100720001F4300EBC504C4F840320C890B684D69C7
:1007300064F31F4300EBC504C4F84432CB69012BBA
:1007400016D1D0F80C321343C0F80C320C884B6829
:100750004D6964F31F4300EBC504C4F840320C89B3
:10076000CB684D6964F31F4300EBC504C4F8443201
:100770008B69002BD0F804320ED01343C0F804323A
:100780000B69002BD0F8143208D01343C0F8143290
:10079000096A012904D008E09343EFE79343F5E7A2
:1007A000D0F81C121143C0F81C12D0F8001221F02E
:1007B0000101C0F80012002030BD000000640040BC
:1007C00070470000F0B590F82040012C05D0022CB5
:1007D00003D0416A41F4802166E0046800295ED0BC
:1007E0002469A4075DD005684FF4D87404EB0114A4
:1007F0002D5915F00405956005682D5957D0ED0861
:10080000C2F8045007684FF4DA754FF4DC7C4FF4FB
:10081000DE763C59002905EB0115C4F34007D7608B
:100820000CEB011406EB01110668765906F00F0671
:10083000166106687659C6F30726966106687559EB
:100840004FEA15455561026812591A70026812592B
:100850004FEA12225A70026812594FEA12429A70F5
:10086000026812594FEA1262DA70026852581A711D
:10087000026852584FEA12225A71026852584FEADF
:1008800012429A71026851584FEA1161D971006899
:1008900010D0016941F0200101610020F0BDE46841
:1008A0009FE7416A41F4001141620120F0BD6D0DE6
:1008B0001560A7E7C16841F02001C160EDE72DE9AF
:1008C000F05F0546006800244669D0F80490876808
:1008D000D0F80CB0D0F810A0F207D0F8188048D0AB
:1008E000F90714D001218160BA0703D5284600F02A
:1008F000EEF90CE0780702D54FF4006407E0380702
:1009000002D54FF4805402E0284600F0DFF9F805E4
:1009100016D52868BA054FF48071816003D5284642
:1009200000F0D7F90CE0780502D544F4005407E054
:10093000380502D544F4804402E0284600F0C8F9A6
:10094000F80316D52868BA034FF48031816003D5C7
:10095000284600F0C0F90CE0780302D544F40044C6
:1009600007E0380302D544F4803402E0284600F062
:10097000B1F9300707D55FEACB6004D529681020AC
:1009800044F40074C86070074FF0080707D55FEAA9
:100990000B7004D52868C760284600F065F9B007D9
:1009A00006D52868C068800702D0284600F05DF9A7
:1009B000700607D55FEACA6004D52968102044F4A0
:1009C00080640861B00607D55FEA0A7004D528681C
:1009D0000761284600F04BF9F00606D52868006943
:1009E000800702D0284600F043F9B00308D55FEA3B
:1009F000C96005D5296810204860284600F039F9FB
:100A0000F00307D55FEA097004D5286847602846D7
:100A100000F062F9300446D55FEA497040D5F00530
:100A200004D55FEAC87001D044F00104B00504D5D4
:100A30005FEA887001D544F00204700504D55FEACE
:100A4000487001D544F00404300529D518F0700F22
:100A500026D008F07000402815D006DC102809D0F8
:100A600020280AD0302816D10AE050280ED060285D
:100A700011D10EE044F008040DE044F010040AE047
:100A800044F0200407E044F0400404E044F0800413
:100A900001E044F480742868816921F0700181616B
:100AA000296804204860002C05D0686A20436862E9
:100AB0002846FFF785FEBDE8F09F70B5040003D01F
:100AC00094F8200010B104E0012070BD204600F031
:100AD00081F82068016821F00201016000F06CFFDC
:100AE0000526054604E000F067FF401B0A2811D8E0
:100AF000206840688007F6D42068016841F0010151
:100B0000016000F059FF05460BE000F055FF401B67
:100B10000A2806D9606A40F40030606284F82060D8
:100B2000D2E720684068C007EFD0207E0128206807
:100B300001683DD021F080010160607E01282068BD
:100B4000016838D021F040010160A07E01282068B2
:100B5000016833D021F020010160E07E0128206887
:100B600001682ED041F010010160207F012820682B
:100B7000016829D021F008010160607F0128206808
:100B8000016824D021F004010160D4E90110D4E906
:100B900003326569491E184323682A431043002223
:100BA0000843D8610121626284F82010104670BDAC
:100BB00041F08001C0E741F04001C5E741F020016C
:100BC000CAE721F01001CFE741F00801D4E741F076
:100BD0000401D9E710B586B0044614216846FFF732
:100BE00059FB1E492068884236D11D48016841F0F2
:100BF00000710160006800F000700590184810381E
:100C0000016841F00801016000680221002200F043
:100C100008000590032009238DE80700CDE90303B0
:100C20001048694600F0D2FD00221320114600F062
:100C300023FF132000F012FF00221420114600F0C1
:100C40001BFF142000F00AFF00221520114600F0BF
:100C500013FF152000F002FF06B010BD0064004035
:100C600040380240000C0240704703F02BBE704732
:100C70007047704770B5044690F82000012804D0F2
:100C8000606A40F40020606218E0022084F82000CE
:100C90002068016821F00101016000F08DFE054629
:100CA0000EE000BF00F088FE401B0A2808D9616AE8
:100CB000052041F40031616284F82000012070BDFC
:100CC00020684068C007EDD1606270BD7047704712
:100CD000704770477047704770472DE9F041876D46
:100CE000044600F069FE064694F835000025022807
:100CF00006D080206065012084F83450BDE8F08182
:100D00002068016821F0160101602068416921F026
:100D100080014161206C08B9A06C20B12068016895
:100D200021F0080101602068016821F001010160E3
:100D30000CE000F041FE801B052807D920216165E9
:100D4000032084F8345084F83500D7E72068006821
:100D5000C007EED194F85C203F2001219040B8609C
:100D600084F8345084F835100020C7E790F8351027
:100D7000022903D08021416501207047052180F8B8
:100D800035100068016821F0010101600020704702
:100D9000406D70472DE9F84304464FF00009644B5D
:100DA0000820CDF800904FF41652A56D94F85C1011
:100DB0001B682E68B3FBF2F700FA01F131420FD045
:100DC00021680A6852070BD50A6822F004020A60FB
:100DD00094F85C108840A860606D40F00100606588
:100DE00094F85C104FF0010808FA01F0304208D086
:100DF00021684969090604D5A860606D40F00200C9
:100E0000606594F85C1004208840304208D0216866
:100E10000968890704D5A860606D40F0040060652A
:100E200094F85C1010208840304218D0216809687E
:100E3000090714D5A86020680168490304D5006833
:100E4000000308D5A16C07E00168C90503D4016857
:100E500021F008010160216C09B12046884794F80F
:100E60005C1020208840304231D021680968C906D2
:100E70002DD5A86094F8350005282068016806D0B3
:100E8000490347D5006800031DD4616C1CE021F0C4
:100E9000160101602068416921F080014161206CE8
:100EA00008B9A06C20B12068016821F00801016038
:100EB00094F85C303F229A40AA6084F8349084F819
:100EC0003580216D1FE0E16B09B120468847606DD8
:100ED00000282BD0606DC00714D0052084F83500A1
:100EE0002068016821F0010101600098401C009019
:100EF000B84203D820680068C007F6D184F834905F
:100F000084F83580E16C002910D001B02046BDE89E
:100F1000F04308470168C905D5D4036823F01003DE
:100F2000036084F8349084F83580CCE7BDE8F8831A
:100F30008C0000202DE9F047044600F03DFD0546F9
:100F400064B14FF0000984F83490022184F8351020
:100F50002068016821F0010101600EE00120BDE878
:100F6000F08700BF00F028FD401B052805D920218F
:100F70006165032084F83500F1E720680068C00748
:100F8000F0D1D4E90020D4E90251D4E9043C28434B
:100F900004F1180519430843116895E8E00140EA97
:100FA0000C001C4B2843194040EA060040EA0700A9
:100FB000B8F1040F40EA010003D1D4E90B1319433F
:100FC0000843106020680126656A4069042D20F0FE
:100FD000070045EA00050CD1D4E90A01054341B1F7
:100FE0002046FFF751FA20B14020606584F8356053
:100FF000B4E7206845612046FFF732FA94F85C3088
:101000003F229A408260C4F8549084F835600020F2
:10101000A5E700003F8010F02DE9F041044690F86C
:10102000340000250128A66D0ED094F835C00127A4
:10103000002084F83470BCF1010F07D0022584F839
:1010400034002846BDE8F0810220FBE7022784F83F
:10105000357060652046FFF741FA94F85C103F2038
:101060008840B0602068016841F016010160206886
:10107000416941F080014161206C20B12068016824
:1010800041F0080101602068016841F00101016040
:10109000D7E7000070B5044600F08EFC0546601CE2
:1010A00002D004480078044400F086FC401BA042B3
:1010B000FAD370BD800000202DE9F04390F8454040
:1010C0000025012C0DD04FF0010980F84590022633
:1010D00044F2F45780F844605E1E4FF0004C816289
:1010E00017E00220BDE8F083C5EBC51801EB4514FD
:1010F00008EB480802EB8808C4F800C0B542C4E910
:10110000017804D204F12008C4F80C8000E0E1600A
:101110006D1C9D42E8D30368002403F58053D96019
:1011200080F8449080F845402046DBE72DE9F04305
:1011300090F8454091460022012C09D0C162012659
:10114000022480F845605D1E80F84440E70422E0F8
:101150000220BDE8F08300BFC2EBC21404EB4408D8
:1011600001EB421409EB880C2760C4F808C0D0F8E2
:101170001CC0BCF1000F05D1D4F800C04CF4400CE9
:10118000C4F800C0AA4204D204F1200CC4F80CC078
:1011900000E0E160521C9A42DED30268002302F5AF
:1011A0008052116180F8446080F845301846D0E7DD
:1011B00010B590F84510012913D0012280F8452080
:1011C000022180F844100023816A0C68002C28DB7F
:1011D0000C68E40519D5846B641C8463012C02D06F
:1011E00002E0022010BD016341630C68C4F30D44AA
:1011F000241FC463046BA4680464C968816280F816
:10120000442080F84530002010BD0C68A40503D5AB
:101210008263C0E90C1302E0846B641C8463C968B8
:10122000816280F8442080F84530012010BD000024
:101230002DE9FC474FF000060400B146009603D0AC
:1012400094F8440018B107E00120BDE8FC8720466F
:1012500084F8456000F0E4F86748016841F4804193
:101260000160006800F4804001906448016821F446
:10127000000101600168226A11430160206800F5E5
:101280008050016841F00101016000F095FB4FF4CE
:10129000FA77054609E000BF00F08EFB401BB8421C
:1012A00003D9032084F8440068E0206800F58050EA
:1012B0000068C007F0D12068006920F01C0500F02C
:1012C0005FFF4F4A4F4902448A4202D245F0080567
:1012D00016E04D494D4A0144914202D245F00C05B9
:1012E0000EE04B4A4B4902448A4209D34A4A4B49D1
:1012F0001044884202D245F0040501E045F0100593
:101300002068056100214FF40042204600F004FAF5
:101310004FF00105B0BBFF20FFF7BCFE606890B343
:1013200000F04AFB804641F2883701216A46204698
:1013300000F0E4F800F040FBA0EB0800B84217D83A
:1013400000984007F1D5002120464FF4805200F06C
:10135000E3F9B8B900F030FB80466A460121204627
:1013600000F0CCF800F028FBA0EB0800B8420BD945
:1013700001212046FFF7DEF884F84450032084F86A
:10138000456062E724E018E000988006E5D51F215B
:101390006A46204600F0B2F8D0B90098C10603D5DD
:1013A0004FF40061E16000E0E660400701D5A6600F
:1013B00019E04FF48040A06015E0D4E90210C008A5
:1013C00040EA510082B22046002100F0A5F930B178
:1013D00001212046FFF7AEF884F8445034E740F688
:1013E000FF70FFF757FE49462046FFF7A3F884F841
:1013F0004450002029E700004438024004380140EE
:1014000000D3CEFEC0E1E40040F1E9FD40787D016B
:1014100000796CFC005A6202001F0AFA80F0FA029E
:10142000F0B5006887B02F49884259D12E4801682D
:1014300041F000710160016801F0007105910168DF
:1014400041F080610160016801F0806105910168EF
:1014500041F000610160016801F0006105910168DF
:1014600041F004010160016801F004010591016887
:1014700041F001010160016801F00101059101687D
:1014800041F002010160016801F00201059101686B
:1014900041F040010160006802240025694600F027
:1014A0004000059003260B2732208DE8F1000F48FD
:1014B00000F08CF9862069468DE8F1000C4800F0B8
:1014C00085F9200369468DE8F1000A4800F07EF9AD
:1014D0004FF4205069468DE8F100074800F076F996
:1014E00007B0F0BD008002403038024000080240E2
:1014F0000000024000040240001802402DE9F047BD
:10150000044690F84400914682281DD082224FF66E
:10151000FF7084F844204FF4F863226803EA8111D5
:10152000258A136900EAC52003F01C031843014310
:1015300021F0020040F00105156100F03DFA01279D
:1015400006464FF4803811E00220BDE8F08700BF66
:1015500000F032FA801B404506D3002084F8447026
:1015600084F845000320F0E720680569E807EFD11B
:101570002068406981B2C9F8001084F844700020E6
:10158000E3E7F8B5044690F84500012839D0012575
:1015900084F84550022084F8440020680026016841
:1015A00041F0080101602068006800902846FFF7BC
:1015B00071FD2168009808602068016841F004010D
:1015C00001602068006800900120FFF763FD21683A
:1015D000009808602046FEF796FF206800F58050CE
:1015E000816941F400518161206800F58050816972
:1015F00041F00201816184F84450002084F8456084
:10160000F8BD0220F8BDF0B590F845200023012A6E
:1016100013D0012680F84560022280F844204FF064
:10162000000561B1C76A3A68002A0BDA122180F816
:10163000441080F845500120F0BD0220F0BD80F834
:101640004460F6E740F2F454A1420BD9B1FBF4F246
:1016500004FB121CB1FBF4F2BCF1000F00D0521CD1
:10166000012A45D13A68C1F30C0142F040523A6078
:10167000C26A5160C16A0A6842F000420A60C16AE7
:10168000C968C16236E0D7F800C02CF0405CC7F8EA
:1016900000C033B9C76AD7F800C04CF0805CC7F807
:1016A00000C0D0F82CC0571EBB42CCF8044014D167
:1016B000C76AC2F1010ED7F800C0CEEBCE1E4CF0C7
:1016C000005CC7F800C00EEB4E0ED0F82CC001EB4A
:1016D0008E07C7F30C07CCF80470C76AD7F800C0B0
:1016E0004CF0004CC7F800C0C76A5B1CFF68C762BB
:1016F0009342C8D3016801F580514A69520705D564
:1017000004224A61016801F580514D6080F844600F
:1017100080F845500020F0BD2DE9F041044690F8D6
:10172000440042281ED042204FF6FF7384F8440044
:1017300096B220684FF4F867258A07EA811102699A
:10174000466103EAC520236802F01C0210430143EE
:1017500041F003051D6100F02FF9012706464FF403
:10176000803811E00220BDE8F08100BF00F024F9CC
:10177000801B404506D3002084F8447084F845005F
:101780000320F0E720680569E807EFD184F844708A
:10179000E9E7000010B50446FEF728FE202C06D12C
:1017A000034901200860BDE8104001F0BDBE10BD36
:1017B00048000020044910B50A68024202D00860BF
:1017C000FFF7E8FF10BD0000143C01402DE9F84F81
:1017D000DFF89CE100224FF001084FF0030B4FF0BF
:1017E0000F0A00BF0B6808FA02F42340A34271D12C
:1017F0004D68022D01D0122D0FD1D5080E69570763
:1018000000EB8505A9462D6AFF0E0AFA07FCBE40CB
:1018100025EA0C052E43C9F820600F7955000668AB
:101820000BFA05FC07F0030726EA0C06AF40374326
:1018300007604E68012E05D0022E03D0112E01D074
:10184000122E0ED18668CF6826EA0C06AF403743C9
:10185000876046680F79A643C7F300179740374360
:101860004760C4688E6824EA0C04AE402643C66014
:101870004C68E40075D53F4C256845F480452560EB
:10188000246822F00306950704F4804400943A4C3F
:101890002D0F2644D6F80848DFF8E0C00AFA05F70D
:1018A000604524EA070401D100272EE0344FB842F6
:1018B00001D1012729E0334FB84201D1022724E0AA
:1018C000314FB84201D103271FE0304FB84202D157
:1018D00004271AE045E02E4FB84201D1052714E055
:1018E0002C4FB84201D106270FE02B4FB84201D14F
:1018F00007270AE0294FB84201D1082705E0284F01
:10190000B84201D1092700E00A27AF4027437546B6
:10191000C6F808784E68DEF80040F60324EA0304AF
:1019200000D51C43124E2C60361D4D683468AD0343
:1019300024EA030400D51C430D4F346008374D687A
:101940003C68ED0224EA030400D51C43084D3C60CA
:101950000C354E682C68B60224EA030400D51C43FB
:101960002C60521C102AFFF43DAFBDE8F88F000038
:10197000003C014044380240003001400000024079
:101980000004024000080240000C02400010024027
:101990000014024000180240001C024000200240D7
:1019A000002402400069084000D0012070470AB1BD
:1019B000816170470904FBE70148806870470000B7
:1019C00080000020024881680278114481607047DD
:1019D00080000020032010B500F06EF8002000F019
:1019E00005F800F023F8002010BD000070B50D4D83
:1019F00004464FF47A700C4A29781268B0FBF1F073
:101A0000B2FBF0F001F004F848B9102C07D2002224
:101A10002146501E00F030F800206C6070BD01209F
:101A200070BD0000800000208C0000200A4808B52E
:101A3000016841F080510160006800F08050009022
:101A40000548001D016841F480410160006800F410
:101A50008040009008BD000040380240002809DBAB
:101A6000410900F01F028900012001F1E0219040AE
:101A7000C1F80001704700000E4BF0B41B680D4622
:101A8000C3F30223C3F10706042E00D90426191D4F
:101A9000072901D2002300E0DB1E012404FA06F12D
:101AA0009C40491E2940641E994014402143F0BCCB
:101AB00002F0E6BD0CED00E0064900F0070210B5AB
:101AC0004FF6FF040868044B204040EA0220184308
:101AD000086010BD0CED00E00000FA051848F8B5EC
:101AE000016841F0805101600068164C00F08050A0
:101AF0000090206840F480302060FFF75DFF4FF4D5
:101B00007A76054605E000BFFFF756FF401BB0425E
:101B10000FD86068C003F7D5206840F4003020601B
:101B2000FFF74AFF054606E0FFF746FF401BB042BD
:101B300001D90320F8BD60688003F5D50020F8BD09
:101B400040380240007000400248016841F4807152
:101B500001607047007000402DE9F84F044600789E
:101B6000DFF824944FF000063746C0070ED0D9F8AE
:101B7000001021F40001C9F80010D9F80010626BC0
:101B80001143C9F80010606B00B90126FE4D2068B2
:101B9000843500030ED5E16B286820F4401008431B
:101BA0002860E06BB0F5801F01D010B102E0012683
:101BB00000E0012720684FF4800BC0020CD5216C97
:101BC000286820F4400008432860206C584501D163
:101BD000012601E000B901272068C10100D50126D6
:101BE000800666D5E8483830016841F080510160D0
:101BF0000068DFF898A300F080500090DAF8001039
:101C000041F48071CAF80010FFF7D6FE804605E067
:101C1000FFF7D2FEA0EB080064287DD8DAF80000B8
:101C2000C005F5D5DFF8608308F16808D8F8000032
:101C300010F440702AD0218E01F44071814225D0E9
:101C4000D8F80010D8F8002021F4407142F4803216
:101C5000C8F80020D8F8002022F48032C8F800200C
:101C6000C8F80010D8F80000C0070FD0FFF7A4FE96
:101C7000824607E0FFF7A0FEA0EB0A0141F28830A0
:101C80008142CAD8D8F800008007F3D5206BC0F392
:101C9000012103297ED0D9F8001021F4F811C9F8E8
:101CA0000010228ED8F80010C2F30B021143C8F8BE
:101CB00000102078C00607D5286820F080702860C2
:101CC0002868A16B084328602188AF488830490400
:101CD00005D5626E016821F440311143016021880D
:101CE000090405D5A26E016821F440211143016069
:101CF0002168C90305D5E26E016821F44011114342
:101D000001602168890305D5226F016821F4400133
:101D100011430160217800E018E1490605D5626CA5
:101D2000016821F00301114301602178090605D5FE
:101D3000A26C016821F00C01114301602188C905E2
:101D400005D5E26C016821F0300111430160218862
:101D5000890505D5226D016821F0C001114301609C
:101D60002188490505D5626D016821F44071114350
:101D700001602188090505D5A26D016821F4406143
:101D8000114301602188C90407D5E26D016821F47F
:101D9000405100E041E0114301602188890405D5EC
:101DA000226E016821F4404111430160216849021B
:101DB00005D5A26F016821F080611143016021689F
:101DC0004FF0006A890209D5E26F016821F00061D5
:101DD00011430160E16F514500D1012721680A07D5
:101DE00000D50127490305D5626F016821F04071D4
:101DF000114301602168090206D5D4F880200168EA
:101E000021F0805111430160DFF88491012E0ED042
:101E10002068B0F1007F0AD08FE05E4AD9F8003028
:101E2000104023F4F8120243C9F8002039E7D9F82A
:101E300000004E4620F08060C9F80000FFF7BCFDAE
:101E4000804605E0FFF7B8FDA0EB080064287DD8C8
:101E500030680001F6D421784B487C30C90712D095
:101E6000616B81B9237A62680168D0F800C0920181
:101E7000C1F3014142EA0142CCF3036142EA01614C
:101E800041EA0371016021680A0303D5E26BB2F5F0
:101E9000801F04D0C9021AD5216C594517D1636837
:101EA000016894F80CC002689B01C1F3014143EA48
:101EB0000141C2F3027241EA0C6141EA0271016020
:101EC0002968626A21F01F01521E114329602168AE
:101ED000C90110D5238A62680168D0F800C0920158
:101EE000C1F3036142EA034242EA0162CCF30271A8
:101EF00042EA01710160216889010CD56168228A7A
:101F0000237B94F808C0890141EA024141EA036158
:101F100041EA0C7101603168B04641F08061316086
:101F2000FFF74AFD064604E0FFF746FD801B6428E4
:101F30000CD8D8F800000001F6D56FB3D9F800002E
:101F40004E4620F08050C9F8000000E079E0FFF72D
:101F500033FD074605E000BFFFF72EFDC01B6428D8
:101F60006FD83068C0438000F6D5074821688030BC
:101F70000A0301D5E26B1AB1C90225D5216C19BB40
:101F800063690168277E08E008380240007000405D
:101F900000380240FFFCFF0F5AE00268C1F3014124
:101FA0009B0143EA0143C2F3027143EA076242EA3A
:101FB0000171016029686FF0FF03A26A21F4F851F2
:101FC00003EB0222114329602168890212D5E16FD7
:101FD00051450FD1238C6269016807689201C1F3F2
:101FE000036142EA034242EA0162C7F3027142EA34
:101FF000017101602178090716D561690268D0F87E
:1020000000C08B01277FC2F30362CCF3014143EA96
:10201000014141EA026141EA077101602868E16A11
:1020200020F4403008432860306840F08050306031
:10203000FFF7C2FC044607E0FFF7BEFC001B642864
:1020400002D90320BDE8F88F3068C0438000F3D484
:102050000020F7E72DE9F04705000F4663D0444E16
:10206000306800F00F00B84209D2306820F00F004D
:1020700038433060306800F00F00B84253D1286810
:102080003C4C810712D5400703D5206840F4E0504E
:1020900020602878000703D5206840F46040206065
:1020A000A968206820F0F000084320602878C00765
:1020B0002AD0304968680839012810D009680228F8
:1020C00010D0890700292EDA216821F0030101438D
:1020D0002160FFF771FC804641F288390DE0096804
:1020E0008903EFE78901EDE7FFF766FCA0EB080144
:1020F000494502D90320BDE8F0876868216801F0EE
:102100000C01B1EB800FEFD1306800F00F00B84246
:102110000BD9306820F00F0038433060306800F091
:102120000F00B84201D00120E5E72878400705D527
:10213000E968206820F4E050084320602878000710
:1021400006D52869216821F4604141EAC000206079
:1021500000F03CF82168084AC1F30311515CC84003
:10216000064908600020FFF741FC0020C3E700009B
:10217000003C0240083802408CC400088C0000205B
:1021800001480068704700008C00002004490548A1
:1021900009680068044AC1F38221515CC840704755
:1021A000083802408C0000209CC4000804490548FF
:1021B00009680068044AC1F34231515CC840704765
:1021C000083802408C0000209CC40008154910B556
:1021D0001548096811F00C0213D04110042A0FD0E1
:1021E000082A0ED10F4C241F2268236802F03F02F8
:1021F0005B0207D52068C0F38810A0FB010106E050
:10220000084610BD2168C1F38811A1FB000100231D
:10221000FDF7F6FF2168C1F30141491C4900B0FBFD
:10222000F1F010BD083802400024F4002DE9F84F09
:1022300005004FF000076ED02878DFF81C93A9F155
:10224000040AC007AAF104044CD0D9F8001048468B
:10225000C1F38101012908D00068C0F38100022880
:102260000AD1DAF80000400206D52068800339D58B
:1022700068680028DFD035E06868B0F5803F0BD093
:1022800010B1B0F5A02F11D0206820F4803020606C
:10229000206820F4802002E0206840F48030206034
:1022A000686890B1FFF788FB06460AE0206840F4B2
:1022B00080202060F0E700BFFFF77EFB801B6428D2
:1022C00072D820688003F7D50CE0FFF775FB06464F
:1022D00005E000BFFFF770FB801B6428F0D8206882
:1022E0008003F7D42878800742D5D9F800104846F3
:1022F00011F00C0F08D00068C0F3810002280BD148
:10230000DAF80000400207D42068800718D5E86892
:10231000012800D114E01CE1E8680028206817D0EB
:1023200040F001002060FFF747FB064605E000BFD4
:10233000FFF742FB801B0228C2D820688007F7D530
:102340002869216821F0F80141EAC00020600FE00F
:1023500020F001002060FFF72FFB064605E000BFDC
:10236000FFF72AFB801B02281ED820688007F7D4BD
:102370002878000729D5784869696C30002980469B
:10238000016812D041F001010160FFF715FB06461C
:1023900005E000BFFFF710FB801B022804D8D8F827
:1023A00000008007F6D510E089E021F0010101600E
:1023B000FFF702FB064604E0FFF7FEFA801B022847
:1023C0007DD8D8F800008007F6D4287840076BD570
:1023D000DFF8848108F13808D8F80000C0000BD479
:1023E000D8F8001041F08051C8F80010D8F800006B
:1023F000012700F08050009058480168C90512D4A8
:102400000168834641F480710160FFF7D5FA064602
:1024100005E000BFFFF7D0FA801B64284FD8DBF837
:102420000000C005F6D54C4EA868683601280AD0D1
:1024300008B1052811D0306820F001003060306804
:1024400020F0040002E0306840F001003060A8682D
:10245000A0B1FFF7B1FA83460CE0306840F0040009
:102460003060F0E7FFF7A8FAA0EB0B0141F28830EB
:10247000814266D830688007F4D50EE0FFF79CFAF9
:10248000834607E0FFF798FAA0EB0B0141F2883092
:10249000814256D830688007F4D42FB1D8F80010A4
:1024A00021F08051C8F80010A869C8B3D9F800100D
:1024B000C1F3810102294CD00228206800E040E0ED
:1024C00020F08070206003D0FFF776FA05463BE0ED
:1024D000FFF772FA064604E0FFF76EFA801B022847
:1024E0002FD820688001F7D4D5E90962D5E9070122
:1024F0001B4B570895F82C20084303EB074343EA8E
:102500008611084340EA026040F00050CAF800001B
:10251000206840F080702060FFF74EFA054606E024
:1025200015E000BFFFF748FA401B022809D82068D1
:102530008001F7D50BE000BFFFF73EFA401B0228F1
:1025400002D90320BDE8F88F20688001F4D4002070
:10255000F8E70120F6E7000008380240007000406C
:102560000000FFFF2DE9F047040005D094F85D005E
:102570000025A56218B107E00120BDE8F0872046DC
:1025800084F85C5000F050F8022284F85D204FF48B
:10259000E0632068016821F040010160E068984232
:1025A00001D9002101E04FF48051B0F5706F02D0E5
:1025B000984200D0A5624FF00109266B2EB99842CF
:1025C00001D9226301E0C4F83090D4E90468D4E969
:1025D0000102278B46EA0806A36A104307F4007835
:1025E00030432668D4E907C240EA080040EA0C00FC
:1025F000CC460427104318433060D4F81880666B2B
:10260000606AE26807EA1847236830433A43104398
:10261000084358602068C16921F40061C1612566E2
:1026200084F85DC00020A8E72DE9F04786B0804619
:1026300014216846FDF72EFE564A0225D8F80010F0
:10264000032652480527DFF84891002491424FF4B1
:10265000806A69D14D4914310A6842F480520A6097
:10266000096801F480510591016841F001010160A0
:10267000016801F001010591016841F0020101606A
:10268000006802AA694600F0020005906020CDE9CA
:10269000000582E8D0004048FFF798F820206946FE
:1026A00002AACDE90005484682E8D000FFF78EF87F
:1026B000DFF8E89077063A4A564648464FF4003A23
:1026C000C9F80020C0E90174C0E90346C9F8144004
:1026D000C9F81840C9E9074AC9F82440FEF72AFC9E
:1026E00008B1FDF7D4FF2F4D40232D4A05F1080115
:1026F000C8F858904832C9F83880901581E85800D9
:102700006C61C5E90640C5E90027C5E908A428466B
:10271000FEF710FC08B1FDF7BAFFC8F85450C5F831
:10272000388006B0BDE8F0871F4A9142F9D11749B9
:1027300010310A6842F480420A60096801F480415D
:102740000591016841F004010160016801F0040194
:102750000591016841F002010160006802AA694622
:1027600000F0020005900C20CDE9000582E8D000C1
:102770000E48FFF72BF802AA6946484682E8D000C7
:10278000CDE900A5FFF722F8CBE700003038024082
:10279000000402400030014000000240A009002077
:1027A00010640240000A0020003800400008024087
:1027B0002DE9F05F8B4690F85C1000271D460A9EBD
:1027C0000129924604464FF001090ED0012084F8F9
:1027D0005C00FFF7F1F8804694F85D00616801281D
:1027E0000CD0B1F5827F07D102E00220BDE8F09F56
:1027F000A16809B9042801D00227FFE0BBF1000F4E
:1028000024D0BAF1000F21D005B394F85D0004285C
:1028100002D0052084F85D00A4F844500020A5876C
:102820004FF4E062C4F838B0C4F840A0E168206614
:102830009142E0642065A4F84650E58701D8012D57
:1028400006D92068416821F4805105E00127D5E0D0
:102850002068416841F48051416020680168490660
:1028600003D4016841F040010160E0689042606873
:1028700045D908B1012D3AD1A06B21680088C86004
:10288000A06B801CA063E08F401EE0872FE02068D3
:10289000816889070FD5E18F69B1B9F1010F0AD1BC
:1028A000A26B4FF000091188C160A06B801CA0636F
:1028B000E08F401EE08720688168C9070FD0B4F818
:1028C000461061B1C0684FF00109226C1080206C85
:1028D000801C2064B4F84600401EA4F84600FFF7B0
:1028E0006BF8A0EB0800B04201D3701C74D1E08FEC
:1028F0000028CCD1B4F846000028C8D175E008B152
:10290000012D6BD1E08F21680128A06B07D90088C9
:10291000C860A06B801CA063E08F801E06E000787A
:102920000873A06B401CA063E08F401EE08755E059
:102930002068816889071AD5E18FC1B1B9F1010F0B
:1029400015D1E18F0129A16B07D90988C160A06B5E
:10295000801CA063E08F801E06E009780173A06BE5
:10296000401CA063E08F401EE0874FF00009206804
:102970008168C90728D0B4F8461029B3B4F84610C6
:10298000012914D9C068216C0880206C801C206447
:10299000B4F84600801EA4F84600B4F846000128AA
:1029A00010D82068416841F4805141600AE0007B02
:1029B000216C0870206C401C2064B4F84600401E56
:1029C000A4F846004FF00109FEF7F6FFA0EB08005F
:1029D000B04202D3701C01D018E0BEB1E08F0028D5
:1029E000A6D1B4F846000028A2D14246314620467E
:1029F00001F0E0F810B1202020660127012084F8C2
:102A00005D000021384684F85C10EFE60327F5E707
:102A1000401EB0F1807F10B501D3012010BD4FF0F2
:102A2000E02460610F21601701F02AFE0020A06100
:102A30000721216110BD70477047704770B590F84D
:102A40003C20012A24D0134C012580F83C5002225E
:102A500080F83D2002685368A242966802D00E4C6E
:102A6000A24203D14C6823F4700323430C6823F083
:102A7000700389681C435460002326F080060268B6
:102A80003143916080F83D5080F83C30184670BD6D
:102A9000022070BD000001400004014010B5040098
:102AA00003D094F83D0010B107E0012010BD0020D4
:102AB00084F83C00204600F00DF8022084F83D0028
:102AC0002068211D01F0DCF9012084F83D00002080
:102AD00010BD000008B5154A0168154891420ED195
:102AE000016841F08001016000680022114600F099
:102AF000800000902C20FEF7BFFF2C2010E00D4A34
:102B0000914211D1016841F4807101600068002296
:102B1000114600F4807000902D20FEF7ADFF2D20AF
:102B2000BDE80840FEF79ABF08BD0000001C004049
:102B300040380240002000400A4B022180F83D103E
:102B400001688A681A40062A06D0B2F5803F03D091
:102B50000A6842F001020A60012180F83D1000205D
:102B600070470000070001000168094ACB6843F084
:102B70000103CB60016888681040062806D0B0F5D4
:102B8000803F03D0086840F00100086000207047D3
:102B9000070001002DE9F04104000D4603D094F830
:102BA0003D0018B108E00120BDE8F081002084F864
:102BB0003C00204600F042F81F4A022084F83D0005
:102BC00020688168114081602068211D01F058F95A
:102BD000226840F20336AF6940F60C4C2B684FF286
:102BE000F00EA86891680B439169B14341EA07214F
:102BF0000843D5E9031720EA0C00D5E9076C20EA61
:102C00000E00D2F820E03F0140EA062668686D69B0
:102C1000314347EA0C37936023680F4301229F61D9
:102C20002EF0AA0141EA051321681843086284F8CE
:102C30003D200020B8E70000F8BFFEFF10B586B0C9
:102C4000044614216846FDF725FB17492068884291
:102C500027D11648016841F004010160006800F0C6
:102C60000400059011481038016841F00801016026
:102C7000006800214FF4405200F008000590022047
:102C80000092CDE90101CDE9031009486946FEF73C
:102C90009DFD00221E201146FEF7EEFE1E20FEF7CF
:102CA000DDFE06B010BD00000008004040380240C4
:102CB000000C0240704770B50446006800250169A9
:102CC000C943890715D4C168C943890711D4EA1ECD
:102CD000026101212177206880698007204602D0A7
:102CE000FFF7E8FF04E000F0E3F8204600F0AEF95B
:102CF000257720680169C943490717D4C168C943CA
:102D0000490713D402216FF0040202612177206881
:102D1000806910F4407F204602D0FFF7CBFF04E02B
:102D200000F0C6F8204600F091F925772068016987
:102D3000C943090716D4C168C943090712D404213D
:102D40006FF00802026121772068C0698007204681
:102D500002D0FFF7AFFF04E000F0AAF8204600F031
:102D600075F9257720680169C943C90617D4C16878
:102D7000C943C90613D408216FF0100202612177FC
:102D80002068C06910F4407F204602D0FFF792FF10
:102D900004E000F08DF8204600F058F9257720680F
:102DA0000169C943C90708D1C168C943C90704D12A
:102DB000891E0161204600F071F920680169C9434C
:102DC000090609D4C168C943090605D46FF080011A
:102DD00001612046FFF730FE20680169C943C9053B
:102DE00009D4C168C943090605D46FF48071016133
:102DF0002046FFF720FE20680169C943490609D42F
:102E0000C168C943490605D46FF0400101612046FD
:102E100000F045F920680169C94389060BD4C168EF
:102E2000C943890607D46FF0200101612046BDE83F
:102E30007040FFF702BE70BD30B587B00446142164
:102E40006846FDF727FA24680021164A022316482F
:102E5000B4F1804F15D0154DAC4210D1146844F038
:102E600002041460126802F002020592102200921D
:102E7000CDE90131CDE903136946FEF7A7FC07B0A0
:102E800030BD146844F0020414601268012402F09A
:102E9000020205924FF400620092CDE90131CDE9C2
:102EA0000314E9E730380240000402400004004007
:102EB000704770B5044690F83C000D4601280ED0CE
:102EC000012684F83C60022084F83D000C2A45D09D
:102ED00007DC5AB1042A1BD0082A78D12CE0022042
:102EE00070BD102A4ED0142A71D15DE0206801F027
:102EF0003BF82068816941F008018161206881699F
:102F000021F00401816120682A698169114311E07F
:102F1000206801F063F82068816941F400618161F3
:102F20002068816921F48061816120682969826952
:102F300042EA012181614AE0206801F08BF82068B3
:102F4000C16941F00801C1612068C16921F0040133
:102F5000C16120682A69C169114311E0206801F04C
:102F6000B5F82068C16941F40061C1612068C16998
:102F700021F48061C16120682969C26942EA0121A6
:102F8000C16124E0206801F0CDF82068416D41F076
:102F9000080141652068416D21F004014165206808
:102FA0002A69416D114311E0206801F0E7F82068BB
:102FB000416D41F4006141652068416D21F48061FB
:102FC000416520682969426D42EA0121416500207E
:102FD00084F83D6084F83C0070BD10B5040003D057
:102FE00094F83D0010B107E0012010BD002084F8E6
:102FF0003C00204600F00CF8022084F83D002068D8
:10300000211D00F03DFF012084F83D00002010BD8F
:1030100008B501680B48B1F1804F0BD00A4A9142C4
:1030200007D1016841F002010160006800F0020070
:10303000009008BD016841F001010160006800F0E6
:103040000100F5E7403802400004004070470000EE
:1030500010B501220446006800F078FF0C49206892
:10306000884202D00B49884203D1416C41F40041AF
:1030700041642068084A81681140062906D0B1F5EC
:10308000803F03D0016841F001010160002010BDC4
:103090000000014000040140070001007047704734
:1030A00070B5044600681026616FA56F826812062D
:1030B00012D5212910D1816821F080018160A06E94
:1030C00038B1FDF70AFE20B1A06EFDF761FE2028A1
:1030D0001BD0204601F05FF920688168490612D5AF
:1030E000222D10D1816821F040018160E06E38B15D
:1030F000FDF7F3FD20B1E06EFDF74AFE202804D075
:10310000204601F038F9002070BDE667032070BD4D
:10311000704700002DE9F041026804460025D0699F
:103120001168936810F00F0F5BD003F0010601F4F3
:103130009077374369D0C70707D0CF0505D501275A
:103140001762E26F42F00102E267820708D5DA07F0
:1031500006D0276802223A62E26F42F00402E26778
:10316000420708D5DA0706D0236804221A62E26F04
:1031700042F00202E26702070AD501F02002324360
:1031800006D0236808221A62E26F42F00802E26762
:10319000E26F002A32D0800605D5880603D5216E5D
:1031A00009B1204688472168E06F8968490601D443
:1031B000000725D5204601F0DEF820688168490621
:1031C00019D5816821F040018160E06E98B11A49FB
:1031D0000165E06EFDF7CAFD00280FD0E06E016DBD
:1031E00006E0830611D58B060FD5216E12E020462E
:1031F000BDE8F04108472046FFF78AFFBDE8F081AF
:103200002046FFF785FFE567F8E7030605D50B06BF
:1032100003D5616E0029EAD1F0E74006EED54806F5
:10322000ECD513682021204623F04003136061672A
:10323000656600F075F9E1E7E542000810B50400A5
:1032400002D0606F10B107E0012010BD002084F8AB
:103250007000204600F026F824206067206801688E
:1032600021F001010160204601F09EF80128ECD018
:10327000606A10B1204600F0B3FF2068416821F475
:10328000904141602068816821F02A0181602068B6
:10329000016841F0010101602046BDE8104001F0E5
:1032A00003B800002DE9F04F87B0064614216846A8
:1032B000FCF7F0FF6A480225DFF8ACC1032233684F
:1032C000103867490827DFF89CA1002463454FF0B8
:1032D000400B4FF4806945D10B6843F480130B60B9
:1032E000096801F480110591016841F00401016051
:1032F000016801F004010591016841F008010160D5
:103300000068E902CDE9001500F008009046CDE91B
:1033100002426946CDE904705448FEF757FA042189
:103320005046CDE90015CDE9024869460497FEF7FD
:103330004DFA4F4D3B064F4A28462A60DA12C5E93E
:1033400003496C61AC61C5E907426C62C5E9013BA8
:10335000FDF7F0FD08B1FDF79AF9B566AE6307B069
:10336000BDE8F08FDFF810C1634559D10B6843F019
:1033700080430B60096801F080410591016841F0CC
:103380002001016000686946CDE9024200F020009A
:103390000590C0200497CDE900053848FEF716FADD
:1033A000374D4FF48038334B4FF0206A4F46284654
:1033B000903B2B609B15C5E903496C61C5E9064349
:1033C000C5E90884C5E901ABFDF7B4FD08B1FDF717
:1033D0005EF9DFF8B090274A4846B566AE63603ABA
:1033E000C9F80020C0E901A4C0E90347C9F81440A6
:1033F000C9F81840C9E90748C9F82440FDF79AFD03
:1034000008B1FDF744F90022C6F86C90522011462D
:10341000C9F83860FEF730FB5220FEF71FFB9EE72D
:10342000194EB3429BD10B6843F480230B600968AB
:1034300001F480210591016841F0080101600068F4
:103440000721029400F008000590CDE903214FF414
:1034500040706946CDE900055046FEF7B7F97EE7B2
:1034600040380240000C024000500040000802407A
:10347000600A0020B860024000780040001402405A
:10348000C00A0020200B00200048004070B5044610
:10349000406F20283BD161B35AB394F870000128E3
:1034A00035D0A4F85020A4F852200025A06E0123A6
:1034B000E164212184F87030E5676167D8B115496E
:1034C0001346C163A16E14480864A16E1348C86412
:1034D000A06E05652068A66E00F12802E16C3046FA
:1034E000FDF79AFD38B11021E167202084F8705073
:1034F0006067012070BD21684020086284F8705028
:103500002068816841F080018160002070BD022048
:1035100070BD00003F4300086D430008F9420008F9
:1035200070477047FEE7000000B500F027FB024A35
:103530000021C2E9060100BD0800002001488069A1
:103540007047000008000020F0B44FF080740B4872
:103550000021094EE2111225D300C0E90214C0E98E
:103560000423C0E90065017641768176C176017752
:103570004177F0BCFDF7A1BA00640040440500208B
:103580001D4808B5016841F480010160016801F43B
:1035900080010091016841F400110160006800227F
:1035A000114600F4001000900C20FEF765FA0C2084
:1035B000FEF754FA00220E201146FEF75DFA0E20A7
:1035C000FEF74CFA00222F201146FEF755FA2F2065
:1035D000FEF744FA002238201146FEF74DFA382053
:1035E000FEF73CFA00223B201146FEF745FABDE803
:1035F00008403B20FEF732BA303802402DE9F04F48
:1036000087B014216846FCF745FE8448016841F004
:1036100010010160016801F010010591016841F09D
:1036200004010160016801F004010591016841F0A5
:1036300020010160016801F020010591016841F05D
:1036400080010160016801F080010591016841F08D
:1036500001010160016801F001010591016841F07B
:1036600002010160016801F002010591016841F069
:1036700008010160016801F008010591016841F04D
:103680004001016000684FF488650022294600F07F
:10369000400005906248FEF78AF9DFF888B145F2EC
:1036A0001007002239465846FEF781F944F2811A84
:1036B0005D4800225146FEF77AF95C4800227421E9
:1036C000FEF775F95A480022C021FEF770F901246F
:1036D0006946102600960020CDE901045048FEF707
:1036E00075F8DFF85091202069460294CDE9000971
:1036F0004B48FEF76BF8002000956946CDE9014084
:1037000003904748FEF762F8DFF82C8160036946B2
:10371000CDE90008002002904848FEF757F8002045
:1037200000976946CDE9014003905846FEF74EF8F0
:1037300002256946670200970020CDE90105584639
:10374000FEF744F8CDE900693D4E0020694602903D
:103750003046FEF73BF80020CDF800A06946CDE9E1
:10376000014003903048FEF731F8742000900020AB
:1037700069460194CDE902002C48FEF727F80020A5
:10378000802100916946CDE901002848FEF71EF826
:103790004FF470712948CDE9001869460295FEF78B
:1037A00015F80DF10808002103220A2388E80E000D
:1037B0004FF4E8506946CDE900053046FEF706F8BB
:1037C000002000976946CDE901003046FDF7FEFF75
:1037D0000021C020CDE90004CDE90211144869465A
:1037E000FDF7F4FF00220A201146FEF745F90A20F2
:1037F000FEF734F9002217201146FEF73DF9172095
:10380000FEF72CF9002228201146FEF735F9282072
:10381000FEF724F907B0BDE8F08F00003038024011
:103820000010024000140240000402400018024050
:10383000000C02400000311000001110000802408E
:1038400000000240FEB5394CC027A823251D3222B6
:10385000277064216370FF20A2702F1DE170002685
:1038600028706870A870EE703E707E70BE70FE703A
:1038700003F090FA2068E1782D4A90FA80FC2D4BF5
:1038800090FA80FE00BA0C060CF47F4C084344EA20
:103890000C240EF47F0CA5F1100144EA1C2444EA28
:1038A000106008602868E97890FA80FC05BA00BAD0
:1038B0000C06084305F47F450CF47F0CA7F11001BA
:1038C00044EA052444EA1C2444EA1060086038688D
:1038D000F97805BA07BA00BA0C060843134905F48B
:1038E0007F45091F07F47F0744EA052444EA1724AB
:1038F00044EA106008600096CDE901320A1F0E48C4
:103900000B46083903F09AFE0B4803F03BFF0A48C8
:1039100090F82B004007084803D5BDE8FE4003F0AF
:103920006DBFBDE8FE4003F033BF00006C00002017
:103930004D560008E5570008800B0020034810B5DD
:1039400001F094FFBDE8104005F084B8800B002022
:103950000C48002130B40A4C4FF4E062C0E9004149
:103960006315C0E9021201610724C0E90513016271
:103970004162C0E90A140163416330BCFEF7F2BD45
:10398000003001406C050020F0B40F484FF4E064B3
:1039900000210C4E4FF482751823C0E90214016116
:1039A0007215E0E805650724082580E80E00C1606F
:1039B0000161C0E90514C0E90715F0BC0248FEF733
:1039C000D1BD000000380040D005002010B58AB0FD
:1039D000002468461C21079408940994FCF75AFCBB
:1039E00011484FF4E15109224FF08043C0E90241F0
:1039F00004618461C0E90032FFF7EFFA0A4807A9C1
:103A000007940994FFF71AF860206946CDE900048D
:103A100005480C2202940494FFF74BFA0248FFF782
:103A20000BFA0AB010BD00003406002010B58AB0B1
:103A3000002468461C21079408940994FCF72AFC8A
:103A400011484FF4E15109220E4BC0E902410461D3
:103A50008461C0E90032FFF7C0FA0B4807A9079458
:103A60000994FEF7EBFF60206946CDE900040648A3
:103A7000002202940494FFF71CFA0348FFF7DCF9D4
:103A80000AB010BD000400407406002030B58DB0AF
:103A900024216846FCF7FEFB1248002442F20F7313
:103AA0000F4D099401210A9403220B94C0E900549C
:103AB000C0E90243046184610092CDE901410394AD
:103AC0000494CDE90541694607940894FFF762F82C
:103AD000044809A909940B94FEF7B0FF0DB030BD5E
:103AE00000080040B40600200A48002130B4084C09
:103AF0000C224FF4E1330460C0E90131C160C0E938
:103B000004128161C1610162416230BCFFF796BB62
:103B100000500040740700200A48002130B4084CCF
:103B20000C224FF4E1330460C0E90131C160C0E907
:103B300004128161C1610162416230BCFFF77EBB4A
:103B400000780040F40700200A48002130B4084CF7
:103B50000C224FF4E1330460C0E90131C160C0E9D7
:103B600004128161C1610162416230BCFFF766BB32
:103B70000048004074080020FEE700000348416848
:103B800000880968496A01EB00407047080000207E
:103B90007047704700B5FFF7F1FF024A0021C2E904
:103BA000020100BD08000020014880687047000045
:103BB00008000020F8B515460E4604460B464FF4A3
:103BC000C0510092002200F019F888B90022334653
:103BD00080212046009500F05CF848B90022334669
:103BE0004FF4C0612046009500F008F8002804D08A
:103BF000206E40F0200020660320F8BD2DE9F0473C
:103C00004FF4C0681D4617460E46DDF82090044666
:103C10000CE0464501D107B9007B681C06D0FDF7D2
:103C2000CBFEA0EB0900A84208D23DB12068816814
:103C30003140B942EDD10020BDE8F08720684168ED
:103C400021F0E00141606068B0F5827F0BD1A0688F
:103C5000B0F5004F02D0B0F5806F04D12068016844
:103C600021F040010160A06AB0F5005F09D1206831
:103C7000016821F4005101602068016841F400519D
:103C80000160012184F85D10002084F85C000320AD
:103C9000D2E72DE9F0411D4617460E460446DDF8F1
:103CA000188008E0681C06D0FDF786FEA0EB08002F
:103CB000A8420BD255B12068806836EA000030D0A7
:103CC0000020B842EED10020BDE8F08120684168B4
:103CD00021F0E00141606068B0F5827F0BD1A068FF
:103CE000B0F5004F02D0B0F5806F04D120680168B4
:103CF00021F040010160A06AB0F5005F09D12068A1
:103D0000016821F4005101602068016841F400510C
:103D10000160012184F85D10002084F85C0003201C
:103D2000D2E70120CDE77047FDF74CBE70B5B4B0C7
:103D3000302121A8FCF7AEFA14212DA8FCF7AAFA2D
:103D400084216846FCF7A6FAFDF7FEFE1F480168CD
:103D500041F080510160006800F0805032901C48B2
:103D6000016841F44041016000684FF4A021022540
:103D700000F440403290012004238205D824092613
:103D8000CDE92752CDE9210129A921A881E87800B0
:103D9000FEF74CFAFDF7A2FEEA024FF4A051002410
:103DA0002F94CDE930120F20CDE92D0507212DA844
:103DB000FEF750F94FF4A8501394159417940090FF
:103DC0006846FDF7C9FE34B070BD000040380240BF
:103DD00000700040104A30B51048146800210F4BA5
:103DE00044F470041460083305680D4A0D4C45F026
:103DF0000105056019600368051D1340074A03604B
:103E00000C322C600568E305034C25F48025056021
:103E1000803C1160236030BD88ED00E00038024036
:103E2000FFFFF6FE10300024064801680648496A84
:103E30000029416804D0491E41600248FEF73BBF9B
:103E4000491CF9E7B406002078000020054901204C
:103E500010B5086000F07AFDBDE810400248FEF79A
:103E60002ABF0000780000203407002010B508F0B9
:103E7000D7F8BDE810400148FEF71DBFF40600204A
:103E8000F0B5274B4FF0804E264D02689842264EE3
:103E9000264F274C09D0704507D0A84205D0B04224
:103EA00003D0B84201D0A04205D1D1F804C022F01D
:103EB00070024CEA020298421BD0704519D0A84209
:103EC00017D0B04215D0B84213D0A04211D0194D2E
:103ED000A8420ED0184DA8420BD0184DA84208D0C9
:103EE000174DA84205D0174DA84202D0164DA84242
:103EF00003D1CD6822F440722A434D6922F080023A
:103F00002A43026098428A68C2620A68826201D0CB
:103F1000A04201D10969016301214161F0BD0000A6
:103F2000000001400004004000080040000C004078
:103F300000040140004001400044014000480140AD
:103F400000180040001C00400020004010B5046A2A
:103F5000012301F01F018B409C4304628A40016AE7
:103F60001143016210BD0000F0B5026ADFF860C0C5
:103F7000184F22F00102DFF860E00262066A426830
:103F8000836926F002060D68B8428C6803EA0C03C8
:103F900023F0030344EA060445EA030501D0704513
:103FA00005D1CB6824F00804234323F00404B8426D
:103FB00001D0704505D122F44076D1E90532334372
:103FC0001A4342608561496841630462F0BD0000A4
:103FD0008FFFFEFF0000014000040140F0B5026ABF
:103FE000194E1A4C22F01002DFF864E00262056AF2
:103FF0004368826925F02005D1F808C0A0420F6807
:1040000002EA060222F4407245EA0C1542EA07224F
:1040100001D0704506D1CE6825F0800545EA061529
:1040200025F04005A04201D0704507D1D1E90546F1
:1040300023F4406343EA840343EA860343608261D6
:10404000496881630562F0BDFF8FFFFE00000140FB
:1040500000040140F0B5026A194F1A4E22F4807232
:10406000DFF864E00262056A4368C26925F40075FE
:10407000D1F808C0B0420C6802EA070222F003023D
:1040800045EA0C2544EA020401D0704506D1CF6808
:1040900025F4006242EA072222F48065B04201D092
:1040A000704507D123F44052D1E9053642EA0312A4
:1040B00042EA06134360C4614968C1630562F0BD0A
:1040C0008FFFFEFF0000014000040140F0B5026ACE
:1040D000124B114F22F4805298420262046A4268E5
:1040E000C36924F400548E680D6803EA070323F4BF
:1040F000407344EA063443EA052302D0084DA8423F
:1041000004D14D6922F4804242EA85124260C361C3
:10411000496801640462F0BDFF8FFFFE00000140AA
:1041200000040140F0B5026ADFF844C022F4803296
:104130000262056A4268446D25F400350E896045C7
:104140000C4F0B6804EA070445EA064543EA0403FA
:1041500002D0094CA04204D14C6922F4803242EAD8
:10416000042242604365496881650562F0BD000034
:10417000000001408FFFFEFF00040140F0B5026A1D
:10418000DFF844C022F480120262046A4268436D80
:1041900024F400140E8960450C4F0D6803EA0703F0
:1041A00044EA065443EA052302D0094DA84204D14B
:1041B0004D6922F4802242EA8522426043654968C3
:1041C000C1650462F0BD000000000140FF8FFFFEEA
:1041D000000401400148FEF79DBF0000F4070020E5
:1041E00090F82410C90706D00168836A4A6822F44F
:1041F00000321A434A6090F82410890706D50168F6
:10420000C36A4A6822F480321A434A6090F8241044
:10421000490706D50168036B4A6822F480221A43D5
:104220004A6090F82410090706D50168436B4A6874
:1042300022F400421A434A6090F82410C90606D5B9
:104240000168836B8A6822F480521A438A6090F86E
:104250002410890606D50168C36B8A6822F40052CF
:104260001A438A6090F82410490611D50168036C3E
:104270004A6822F480121A434A60016CB1F5801F2B
:1042800006D10168436C4A6822F4C0021A434A60AE
:1042900090F82410090606D50168826C486820F45D
:1042A000002010434860704738B500250446C567B4
:1042B000FDF782FB03462068006800070BD56FF00E
:1042C0007E400090002220464FF4001100F096F945
:1042D00008B1032038BD2020606784F87050A067C3
:1042E000002038BD10B5806B0021A0F85A10A0F84E
:1042F0005210FEF70DFF10BD70B5846B00252168CC
:10430000606FA66F8968090606D5212804D1A4F834
:104310005250204600F03FF820688068400606D5DD
:10432000222E04D1A4F85A50204600F024F8E06F61
:1043300040F01000E0672046FEF7EAFE70BD10B5C1
:10434000C169806BB1F5807F0DD00021A0F85210BB
:1043500001688A6822F080028A600068016841F082
:104360004001016010BDFFF7DBF810BD10B5806B98
:10437000FFF7D7F810BD10B50168202200230C68A4
:1043800024F490740C6001688C6824F001048C6043
:104390008267036610BD016820220B6823F0C0030A
:1043A0000B604267704700002DE9F04104468068C9
:1043B000DFF818C2864F2368D4E90452E169284324
:1043C0001E6800250A438349104306EA0C0606438B
:1043D0001E604FF400422068E668436823F44053AF
:1043E000334343602368A669206AD3F808C030438A
:1043F0002CF4306606439E602068B8420AD10868F3
:1044000010F0030052D001287BD002287AD0032874
:104410006ED186E0704B98420AD1086810F00C000B
:1044200079D004287BD0082877D00C2860D178E098
:104430006A4B98420AD1086810F030006BD01028FF
:104440006DD0202869D0302852D16AE0644B984260
:104450000AD1086810F0C0005DD040285FD08028E5
:104460005BD0C02844D15CE05E4B98420DD1086817
:1044700010F440704FD0B0F5807F50D0B0F5007F81
:104480004BD0B0F5407F33D14BE0574B98420FD122
:10449000086810F4406009D0B0F5806F3FD0B0F5E7
:1044A000006F3AD0B0F5406F22D13AE0012120E010
:1044B0004E4B98420DD1086810F440502BD0B0F507
:1044C000805F2CD0B0F5005F27D0B0F5405F0FD1F2
:1044D00027E0474B98420BD1086810F440401AD0AF
:1044E000B0F5804F1BD0904217D0B0F5404F18D098
:1044F0001021E0694FF6EF76904238D109295DD25C
:1045000002E00CE009E006E0DFE801F00D102758BA
:104510002A5858582D000021EBE70221E9E7042131
:10452000E7E70821E5E7FDF731FE01E0FDF73EFE94
:104530000146D4F80400490001EB5001B1FBF0F052
:1045400080B2A0F11001B14238D84FF6F073216863
:10455000C0F342021840104324E026496068EBE7AC
:10456000FDF734FEE4E760684FF48031E4E70929A1
:1045700024D2DFE801F0050819231C2323231F00A0
:10458000FDF704FE01E0FDF711FE0146D4F804003A
:1045900001EB5001B1FBF0F080B2A0F11001B1428B
:1045A0000CD82168C8600AE013496068F0E7FDF79D
:1045B0000DFEEAE7606802EB5001EBE70125002001
:1045C000206660662846BDE8F0810000F369FFEFD1
:1045D0000010014090380240004400400048004074
:1045E000004C0040005000400014014000780040A2
:1045F000007C00400048E8010024F4002DE9F0416F
:10460000984617460E460446069D08E0681C06D0EC
:10461000FDF7D2F9A0EB0800A8420BD855B12068ED
:10462000C06936EA000017D00020B842EED0002062
:10463000BDE8F0812168202000220B6823F4D073AC
:104640000B6021688B6823F001038B606067A067B3
:10465000032084F87020EBE70120E6E7FEE7000086
:104660000FB4054B10B503A9044A029800F028F8CE
:1046700010BC5DF814FB00008F58000834010020C6
:10468000090700284FEA116104DB00F1E02080F8FF
:104690000014704700F00F0000F1E02080F8141DB6
:1046A000704702E008C8121F08C1002AFAD17047FB
:1046B0007047002001E001C1121F002AFBD17047A2
:1046C0002DE9FF4F8BB09A460F460546002606E0BF
:1046D00025280BD052460D9990476D1C761C2878E2
:1046E0000028F5D10FB03046BDE8F08F0024A04679
:1046F0000122604900E0044315F8013F203B02FA23
:1047000003F00842F7D128782E2817D115F8010FA9
:1047100044F004042A280ED06FF02F022878A0F16C
:10472000300109290AD808EB880102EB410100EBAE
:1047300001086D1CF2E757F8048B6D1C2878692876
:104740003ED006DC0028CDD063280BD0642804D1ED
:1047500036E0732810D075284BD052460D999047FB
:10476000761C85E017F8040B8DF8000000208DF80A
:104770000100E946012003E057F8049B4FF0FF30A9
:1047800061074FF0000401D40AE0641C44450DDACF
:104790008442FADB19F804100029F6D106E0641C03
:1047A0008442FCDB19F804100029F8D1264404E007
:1047B00019F8010B52460D999047641EF8D257E044
:1047C00001CF4FF00A0B002802DA40422D2102E00F
:1047D000210504D52B218DF82410012103E0E107E8
:1047E00005D02021F7E70DF1200908910CE0002108
:1047F000F9E701CF4FF00A0BF9E75946FBF762FDE5
:1048000001F1300209F8012D0028F6D1ADEB0900C5
:1048100000F1200B600701D44FF00108D84502DDFC
:10482000A8EB0B0000E000208046002406E009A869
:104830005246005D0D999047641C761C089884428E
:10484000F5DB04E0302052460D999047761CB8F114
:104850000001A8F10108F5DC05E019F8010B52464A
:104860000D999047761CBBF10001ABF1010BF4DC14
:104870006D1C34E70928010010B58AB004460021F8
:10488000012003910591CDE906100091019102915B
:104890000491694608902046FBF70CFF08B1FBF72E
:1048A000F6FE2046FCF7E6F908B1FBF7F0FE022120
:1048B0002046FBF7EDFE002801D0FBF7E8FE0AB02A
:1048C00010BD00001CB51F4A00216B46FBF77AFFA4
:1048D00008B1FBF7DCFE1B481B4C0168012912D014
:1048E000022918D003291ED004290BD10269A4F192
:1048F00008006946FBF7B5FCA4F10800A4F1080123
:10490000006848601CBD026969460F48FBF7A9FCB6
:104910000D48801D0EE0026969460B48FBF7A1FCBB
:1049200009480C3006E0026969460748FBF799FC24
:10493000054812302188018061884180A1888180EA
:104940001CBD00002805002030000020114810B5D3
:104950000188491C89B20180C82919D9002145F272
:104960005554018010200A46214604F06BF80122BC
:104970002146102004F066F802222146102004F09F
:1049800061F803222146BDE81040102004F05AB817
:1049900010BD00000000002010B5044640688047AC
:1049A00020682246BDE81040014904F081B80000AB
:1049B0009949000870B50C460546880706D006A33D
:1049C0004FF4CE7210A118A0FFF74AFEA868006845
:1049D0002060A868046070BD2E2E2F4D6964646C41
:1049E0006577617265732F54686972645F50617294
:1049F00074792F4C7749502F7372632F636F7265F0
:104A00002F6D656D702E63006D656D705F667265EC
:104A1000653A206D656D2070726F7065726C7920DB
:104A2000616C69676E656400417373657274696F68
:104A30006E2022257322206661696C656420617492
:104A4000206C696E6520256420696E2025730A003C
:104A500010B580680468002C0CD02168A2070160A2
:104A600006D005A34FF4A4720FA118A0FFF7F8FD1C
:104A7000204610BD002010BD2E2E2F4D6964646CA1
:104A80006577617265732F54686972645F506172F3
:104A900074792F4C7749502F7372632F636F72654F
:104AA0002F6D656D702E63006D656D705F6D616C4F
:104AB0006C6F633A206D656D702070726F706572F7
:104AC0006C7920616C69676E656400004173736581
:104AD0007274696F6E2022257322206661696C658D
:104AE00064206174206C696E6520256420696E20E5
:104AF00025730A0070B50A4D0024064604EB4400F5
:104B000005EBC000017D29B18068B04202D120468A
:104B100000F034F9641CE4B20A2CEFD370BD00003D
:104B2000807300202DE9F74F84B04FF00A0B00246A
:104B30000646DA465F46D94602940194009404EB97
:104B400044004F490A2F039001EBC00898F8145015
:104B500016D0002D24D0012D08D0022D06D249A355
:104B600040F2251255A165A0FFF77AFD66B13168C4
:104B7000D8F80400814207D160B207B0BDE8F08FD9
:104B8000002DE8D167B20BE0012D17D0022D07D31D
:104B9000B8F812000099884202D34FFA84FA0090C4
:104BA000641CE4B20A2CCAD3059881074FF0FF3089
:104BB000E3D40A2F18D01ADAFCB242E03048039945
:104BC00050F831000028B8F8120006D00299884247
:104BD000E6D34FFA84F90290E2E701998842DFD3E5
:104BE0004FFA84FB0190DBE70599C907C5D0BAF1FC
:104BF0000A0F0FDA0AF0FF04214804EB440150F8D1
:104C0000310090B11FA340F26F1246A13BA0FFF705
:104C100027FD0AE0BBF10A0F02DA0BF0FF0404E003
:104C2000B9F10A0FA9DA09F0FF040A2C06D315A37B
:104C300040F2811241A131A0FFF712FD204600F0A1
:104C40009DF80A2C06D30FA340F285123BA12BA09E
:104C5000FFF706FD0A4804EB440100EBC105287D7F
:104C600030B108A34FF4C37239A124A0FFF7F8FCB8
:104C70000EB130686860002160B269827DE7000093
:104C8000807300202E2E2F4D6964646C65776172ED
:104C900065732F54686972645F50617274792F4C28
:104CA0007749502F7372632F636F72652F69707627
:104CB000342F6574686172702E63000073746174C0
:104CC00065203D3D204554484152505F5354415466
:104CD000455F50454E44494E47207C7C20737461AB
:104CE0007465203E3D204554484152505F53544125
:104CF00054455F535441424C450000004173736575
:104D00007274696F6E2022257322206661696C655A
:104D100064206174206C696E6520256420696E20B2
:104D200025730A006172705F7461626C655B695D16
:104D30002E71203D3D204E554C4C000069203C20FA
:104D40004152505F5441424C455F53495A4500001F
:104D50006172705F7461626C655B695D2E73746112
:104D60007465203D3D204554484152505F535441A5
:104D700054455F454D5054590000000070B5074C34
:104D800000EB4005002654F8350018B103F0C4F9D3
:104D900044F8356004EBC500067570BD80730020D3
:104DA0002DE9F0430D00074685B009D07C684FF42B
:104DB00080782088404539D12079062836D109E00D
:104DC0001CA34FF4227229A12CA0FFF749FC05B0C7
:104DD000BDE8F0836079042828D16088082825D1AF
:104DE000D4F80E0004906868A16920B1814202D114
:104DF0000126334601E000260223284604F108027A
:104E000004A9914600F094FBE08840450ED16EB1B4
:104E10000222284604AB291DCDE90232CDE9001952
:104E200005F125034A46194600F084FA384603F096
:104E300073F9CCE72E2E2F4D6964646C657761722F
:104E400065732F54686972645F50617274792F4C76
:104E50007749502F7372632F636F72652F69707675
:104E6000342F6574686172702E6300006E6574691A
:104E70006620213D204E554C4C0000004173736567
:104E80007274696F6E2022257322206661696C65D9
:104E900064206174206C696E6520256420696E2031
:104EA00025730A00FEB5040015460E4606D141A33F
:104EB00040F21B324DA151A0FFF7D2FB36B93DA302
:104EC0004FF4477257A14DA0FFF7CAFB35B939A37C
:104ED00040F21D3256A149A0FFF7C2FB28682146C7
:104EE00000F0FEFE08B1564B3CE02868C0F3031109
:104EF0000E2922D0D4E901210A400140914208D074
:104F000080B2A0F57E41A93903D0E068A0B304F1D6
:104F10000C054C4A4C49107800EB400301EBC303ED
:104F20001F7D022F2CD32F685B689F4228D1024639
:104F30003146204600F08AF8FEBD01228DF804209B
:104F400000208DF805005E218DF80610687801AB11
:104F500000F07F008DF80700A8788DF80800E87849
:104F60008DF809004FF4006004F1250231460090ED
:104F7000204600F0BBFBFEBDFFE76FF00300FAE741
:104F80005FF0000000EB400301EBC3031F7D022F25
:104F900006D32F685B689F4202D1C0B21070C6E78B
:104FA000401C40B20A28EDDB32462946204600F07C
:104FB000D5F8E0E72E2E2F4D6964646C6577617239
:104FC00065732F54686972645F50617274792F4CF5
:104FD0007749502F7372632F636F72652F697076F4
:104FE000342F6574686172702E6300006E65746999
:104FF0006620213D204E554C4C00000041737365E6
:105000007274696F6E2022257322206661696C6557
:1050100064206174206C696E6520256420696E20AF
:1050200025730A007120213D204E554C4C00000094
:1050300069706164647220213D204E554C4C000023
:10504000A4C4000828010020807300202DE9F84343
:105050001546884606461C4802EB450100EBC10494
:10506000207D022806D219A34FF43B7225A131A05E
:10507000FFF7F6FA144A05EB4501207D02EBC10566
:105080000C35022813D1608A0327B0F58E7F04D92E
:10509000211D304600F006FA07E0B0F5877F06D301
:1050A000211D2A46304600F003FA00B927754FF457
:1050B000006006F125022B4641460090304600F084
:1050C00015FBBDE8F8830000807300202E2E2F4DC5
:1050D0006964646C6577617265732F546869726482
:1050E0005F50617274792F4C7749502F7372632F20
:1050F000636F72652F697076342F657468617270A2
:105100002E6300006172705F7461626C655B617236
:10511000705F6964785D2E7374617465203E3D2014
:105120004554484152505F53544154455F53544194
:10513000424C4500417373657274696F6E2022257D
:105140007322206661696C6564206174206C696EED
:105150006520256420696E2025730A002DE9FC5F17
:105160008246144625300190086888464FF0FF3685
:105170004FF0000B514600F0B3FD002828D1D8F8BD
:105180000000C0F303110E2922D0B8F1000F1FD088
:1051900000281DD0012152464046FFF7C3FC0700FE
:1051A00018D4394907EB470901EBC905287D0028C8
:1051B00012D0012808D0022806D234A340F2C73208
:1051C00040A14AA0FFF74CFABBF1000F0AD108E05A
:1051D0006FF00F00BDE8FC9FC5F808A001212975FC
:1051E00000E034B94146504600F05CF9002C064618
:1051F000F0D0287DDFF8908002280DD345484FF489
:10520000006105F10C0307705046019A0091214698
:1052100000F06CFA064635E0012833D14FF47B7676
:10522000254668892989884207D1286828B117A3AB
:10523000324639A12DA0FFF713FA287B01280ED0A2
:1052400029890022022002F00BFB050018D021461C
:1052500002F0DEFD58B1284602F05EFF10E02D6836
:10526000002DDED12546204603F084F945B158F8DB
:10527000390008B102F050FF002648F8395001E02B
:105280004FF0FF363046A5E7807300202E2E2F4DBD
:105290006964646C6577617265732F5468697264C0
:1052A0005F50617274792F4C7749502F7372632F5E
:1052B000636F72652F697076342F657468617270E0
:1052C0002E6300006172705F7461626C655B695D82
:1052D0002E7374617465203D3D2050454E44494E07
:1052E00047206F7220535441424C4500417373650F
:1052F0007274696F6E2022257322206661696C6565
:1053000064206174206C696E6520256420696E20BC
:1053100025730A00280100206E6F207061636B65A1
:10532000742071756575657320616C6C6F77656449
:10533000210000002DE9FF4F81B0984606004FF094
:105340000007DDE90FA9DDF838B006D12BA34FF433
:105350008B6238A13BA0FFF783F900221C210220B9
:1053600002F07EFA050046D068891C2806D223A3E5
:1053700040F263423DA133A0FFF772F96C681198C7
:1053800001F006FDE08096F82400062806D0444986
:105390001AA32CA040F26A42FFF762F9D8F8001075
:1053A0000623A1604FF48071B8F80400A081DAF8F8
:1053B0000020C4F812200822BAF80400E082DBF8CA
:1053C0000000C4F80E00D9F80000A061042021807C
:1053D00040F606016280237160713046DDE90223E8
:1053E0000091294600F082F9284602F095FE3846E1
:1053F00005B0BDE8F08F4FF0FF30F9E72E2E2F4DAE
:105400006964646C6577617265732F54686972644E
:105410005F50617274792F4C7749502F7372632FEC
:10542000636F72652F697076342F6574686172706E
:105430002E6300006E6574696620213D204E554C38
:105440004C000000417373657274696F6E202225F1
:105450007322206661696C6564206174206C696EDA
:105460006520256420696E2025730A0063686563E2
:105470006B20746861742066697273742070627541
:10548000662063616E20686F6C642073747275634C
:1054900074206574686172705F6864720000000057
:1054A00080C60008014A00F003B80000A4C4000848
:1054B0007FB5064D0124031DCDE90214CDE9003569
:1054C00021331946FFF736FF04B070BDAAC40008A7
:1054D00070B5164D5FF0000404EB440005EBC0010D
:1054E000087DF0B14A8A521C92B24A82B2F5967F88
:1054F0000AD2012806D003280AD004280AD001289D
:105500000BD00EE0052A08D32046FFF737FC08E051
:10551000042000E00220087503E08868091DFFF7F9
:10552000C1FF641CE4B20A2CD6D370BD8073002086
:10553000F8B5044690F824001F46154606280E4686
:1055400006D020A340F2AB122CA135A0FFF788F8BB
:105550009EB3306888B3214600F0C2FB68BB307848
:10556000C0F303100E2829D0224639463046FFF7F3
:10557000D9FA002820DB344A00EB4001022302EB79
:10558000C1000375002384602E68C660AE88068261
:10559000438252F8316076B142F831304FF4006006
:1055A0002B4604F1250231460090204600F09EF87B
:1055B000304602F0B1FD0020F8BDFFE76FF00F00AC
:1055C000FAE700002E2E2F4D6964646C65776172D6
:1055D00065732F54686972645F50617274792F4CDF
:1055E0007749502F7372632F636F72652F697076DE
:1055F000342F6574686172702E6300006E65746983
:10560000662D3E6877616464725F6C656E203D3D17
:10561000204554485F4857414444525F4C454E0032
:10562000417373657274696F6E2022257322206640
:1056300061696C6564206174206C696E6520256405
:1056400020696E2025730A008073002070B504461F
:1056500040890D460E283CD9606801788689CA07C2
:1056600014D0012905D020490622FAF71EFE48B1C0
:105670000CE0417851B980785E2807D1607B40F01A
:10568000100002E0607B40F008006073082E6FF0AD
:105690000D0103D0B6F5C16F1BD10FE095F82B00BB
:1056A000000716D560890E2813DB204602F0FEFDA8
:1056B00078B92946204600F055FC12E095F82B00F9
:1056C000000706D560890E2803DB204602F0EEFDB8
:1056D00018B1204602F020FD03E029462046FFF7DE
:1056E0005FFB002070BD0000A4C400082DE9F0415C
:1056F0001F4690460E460446069801F049FB0E21CF
:105700000546304602F0D2FD18B16FF00100BDE849
:10571000F0817068858139680160B9888180D8F826
:105720000020C0F80620B8F80410418194F8240045
:10573000062806D006A340F22B1213A11FA0FEF7E5
:105740008FFFA26931462046BDE8F04110470000B6
:105750002E2E2F4D6964646C6577617265732F54CA
:10576000686972645F50617274792F4C7749502F69
:105770007372632F6E657469662F65746865726EE7
:1057800065742E63000000006E657469662D3E68C6
:1057900077616464725F6C656E206D7573742062EE
:1057A00065203620666F722065746865726E657458
:1057B0005F6F75747075742100000000417373652C
:1057C0007274696F6E2022257322206661696C6590
:1057D00064206174206C696E6520256420696E20E8
:1057E00025730A0010B5040006D10BA34FF4047210
:1057F0000EA112A0FEF734FF1A49732061611A4905
:10580000A161742184F82C00204684F82D1001F049
:105810008BF9002010BD00002E2E2F5372632F65D0
:10582000746865726E657469662E63006E6574696E
:105830006620213D204E554C4C000000417373659D
:105840007274696F6E2022257322206661696C650F
:1058500064206174206C696E6520256420696E2067
:1058600025730A00A54E0008DD6C000870B50546DA
:1058700001F0D2F9040009D02A692946904700288E
:1058800004D02046BDE8704002F046BC70BD38B57B
:1058900004468DF8000069460320ABBE204638BDA3
:1058A00070B50024012623460020194603F0BAF8FB
:1058B00018B906FA03F52543ECB25B1C042BF3DBA5
:1058C000204670BD0A46032100F0F4B82DE9FE4FD2
:1058D0008A4644490446D1F8088098F80000000739
:1058E000870E142F78D36089042875D360680078F8
:1058F000002871D008286FD1486901F11405C0F360
:1059000003120E2A68D08946096800F0E9F90028D8
:1059100062D1208908285FD307F10E0120460E4688
:1059200002F0C4FC00282DD020890022384481B226
:10593000022001F095FF06004ED0718907F10800A2
:10594000814216D370683A464146FAF78AFC79429A
:10595000304602F0ABFC002806D0AF2222A330A1D3
:105960003DA0FEF77DFE04E02146304602F050FAED
:1059700018B1304602F0D0FB2EE0204602F0CCFBFE
:1059800034460CE07142204602F090FC002806D01C
:10599000C02215A33AA130A0FEF762FE1CE06668A3
:1059A0003946204602F082FCB0B9606800212A68BE
:1059B000FF27C2600A46D9F8103003610123317015
:1059C0007180077241812046CDE900133B4629468C
:1059D000CDF808A000F098FB2046BDE8FE4F02F08D
:1059E0009BBB0000983C00202E2E2F4D6964646CF8
:1059F0006577617265732F54686972645F50617274
:105A000074792F4C7749502F7372632F636F7265CF
:105A10002F697076342F69636D702E63000000006B
:105A200069636D705F696E7075743A206D6F766929
:105A30006E6720722D3E7061796C6F616420746FA7
:105A40002069636D702068656164657220666169B4
:105A50006C65640A00000000417373657274696FBD
:105A60006E2022257322206661696C656420617452
:105A7000206C696E6520256420696E2025730A00FC
:105A800069636D705F696E7075743A2072657374C6
:105A90006F72696E67206F726967696E616C2070E2
:105AA0002D3E7061796C6F6164206661696C65641C
:105AB0000A0000002DE9FF4792468946002206466B
:105AC0002421012001F0CCFE050031D06889242872
:105AD00006D218A340F2611224A12FA0FEF7C0FD48
