:020000040800F2
:10000000B0750020DD0100087B310008812C00085C
:100010007931000855030008F33B00080000000098
:10002000000000000000000000000000FF32000897
:1000300089040008000000007D3100080133000839
:10004000F7010008F7010008F7010008F7010008B0
:10005000F7010008F7010008F7010008F7010008A0
:10006000F7010008F7010008E5050008F70100089E
:10007000F7010008F7010008F7010008F701000880
:10008000F7010008F7010008F7010008F701000870
:100090005903000865030008F7010008FD05000882
:1000A000F701000801340008F7010008F701000813
:1000B000F7010008F7010008F7010008F701000840
:1000C000F7010008F7010008F70100088131000876
:1000D000F7010008F7010008F7010008F701000820
:1000E000DD050008F7010008F7010008F701000826
:1000F000F7010008F7010008F7010008F701000800
:10010000F7010008F7010008F7010008F7010008EF
:10011000F7010008F7010008F7010008F7010008DF
:10012000F7010008F7010008F7010008F7010008CF
:10013000F7010008F7010008F7010008F7010008BF
:10014000F7010008F7010008F7010008F7010008AF
:10015000F7010008F7010008F7010008F70100089F
:10016000F7010008F7010008F7010008F70100088F
:10017000F7010008F7010008F7010008000000007F
:10018000F7010008F7010008F7010008F70100086F
:10019000F7010008F7010008F7010008F70100085F
:1001A000F7010008F7010008F7010008F70100084F
:1001B000F7010008F7010008F7010008F70100083F
:1001C000F7010008F7010008DFF80CD000F0B0F8E4
:1001D000004800473D610008B07500200648804790
:1001E00006480047FEE7FEE7FEE7FEE7FEE7FEE71C
:1001F000FEE7FEE7FEE7FEE7AD330008C9010008B1
:100200002DE9F05F0546002092469B46884606464B
:10021000814640241BE0284641464746224600F0DE
:1002200076F853465A46C01A914110D311461846E3
:10023000224600F05DF82D1A67EB01084F46224672
:100240000120002100F054F817EB00094E41201E58
:10025000A4F10104DFDC484631462A464346BDE8A6
:10026000F09F40EA01039B0703D009E008C9121F71
:1002700008C0042AFAD203E011F8013B00F8013B60
:10028000521EF9D27047D2B201E000F8012B491E8C
:10029000FBD270470022F6E710B513460A46044623
:1002A0001946FFF7F0FF204610BD30B50446002088
:1002B000034600E05B1C934203D2E05CCD5C401B34
:1002C000F8D030BD30B50B46014600202022012475
:1002D00009E021FA02F59D4205D303FA02F5491B14
:1002E00004FA02F52844151EA2F10102F1DC30BD2A
:1002F000202A04DB203A00FA02F1002070479140E6
:10030000C2F1200320FA03F3194390407047202ADA
:1003100004DB203A21FA02F00021704721FA02F3AF
:10032000D040C2F1200291400843194670470000B6
:10033000064C074D06E0E06840F0010394E8070032
:1003400098471034AC42F6D3FFF742FFD4B500080B
:10035000F4B50008FEE70000014800F066BA0000AE
:10036000F4010020014800F060BA0000F401002010
:1003700001220B4810B5910201F063F9094C0122EA
:100380009103204601F05DF901222046110301F09E
:1003900058F901222046BDE81040102101F051B962
:1003A00000100240001402402DE9F84F9846144610
:1003B0008B460546501C05F05DFF611C824645F0EA
:1003C00080020270084605F055FF2C4B651CB8F101
:1003D000010F07464FF480614FF0640609D02848AA
:1003E000B8F1020F16D0B8F1030F26D0B8F1040F00
:1003F00034D0002288469946184601F022F9ABB263
:1004000020483A465146009602F0A8F8012241469B
:10041000484603E000224FF4804911E001F011F951
:10042000791C22465846FFF71CFF384604F072FC40
:100430005046BDE8F84F04F06DBC00224FF48059DF
:100440008046494601F0FDF8ABB20E483A465146A7
:10045000009602F083F8012249460DE00022804612
:10046000102101F0EEF8ABB206483A46514600962C
:1004700002F074F8012210214046CFE7001002403C
:100480000014024080020020704738B5044600681E
:1004900000F58050816941F480118161206800F588
:1004A000805080690090012000F0E0FB20680099F6
:1004B00000F58050816138BD2DE9F041044621B13D
:1004C0004FF40061C800C4E90201E069002500287A
:1004D00062D028462368D4E9021C3A4F40261A68A5
:1004E00041EA0C0101433A4041F4007010431860A6
:1004F00020680768012000F0B9FB206807602068C9
:10050000466020684668012000F0B0FB20684FF686
:1005100041724660206885602068C56021688869EE
:10052000104040F08000886120688669012000F05A
:100530009DFB206886612068C5612068C56901202F
:1005400000F094FB2068204B2049C561206800F52D
:10055000805082691A4011438161206800F5805003
:100560008569012000F082FB2068194900F5805060
:100570008561206800F580500160206800F580509A
:100580000568012000F072FB206800F580500560CE
:10059000A069012803D009E04FF480609AE7206841
:1005A0000C4A00F58050C1691143C16160690A4974
:1005B00082880A640278D0F8010042EA0020486488
:1005C000BDE8F0810F8120FF233FDEF80400200208
:1005D0008020C10240000100008002404FF4005022
:1005E00000F032BF034810B507F032FA024910207C
:1005F000086010BD1C020020143C0140402010B5D2
:1006000000F022FF802000F01FFF4FF4807000F008
:100610001BFFBDE810404FF4007000F015BF000054
:1006200030B590F82020012A07D0022A05D0416A6F
:1006300041F480214162012030BD3B480122D0F8C5
:10064000003243F00103C0F80032D0F8003223F446
:100650007C53C0F80032D0F800324C6A43EA0423DD
:10066000C0F80032D0F81C320C7D04F01F04A24008
:100670009343C0F81C32CB69B3B9D0F80C32934322
:10068000C0F80C328C894B684D6964F31F4300EB52
:10069000C504C4F840320C890B684D6964F31F43EC
:1006A00000EBC504C4F84432CB69012B16D1D0F855
:1006B0000C321343C0F80C320C884B684D6964F35C
:1006C0001F4300EBC504C4F840320C89CB684D6968
:1006D00064F31F4300EBC504C4F844328B69002B5C
:1006E000D0F804320ED01343C0F804320B69002B4B
:1006F000D0F8143208D01343C0F81432096A012923
:1007000004D008E09343EFE79343F5E7D0F81C12D9
:100710001143C0F81C12D0F8001221F00101C0F8FA
:100720000012002030BD000000640040704700004F
:10073000F0B590F82040012C05D0022C03D0416A7E
:1007400041F4802166E0046800295ED02469A40792
:100750005DD005684FF4D87404EB01142D5915F0E1
:100760000405956005682D5957D0ED08C2F804506E
:1007700007684FF4DA754FF4DC7C4FF4DE763C59B1
:10078000002905EB0115C4F34007D7600CEB0114F9
:1007900006EB01110668765906F00F061661066829
:1007A0007659C6F307269661066875594FEA1545CE
:1007B0005561026812591A70026812594FEA1222E2
:1007C0005A70026812594FEA12429A70026812591E
:1007D0004FEA1262DA70026852581A71026852586F
:1007E0004FEA12225A71026852584FEA12429A7125
:1007F000026851584FEA1161D971006810D001693F
:1008000041F0200101610020F0BDE4689FE7416AEA
:1008100041F4001141620120F0BD6D0D1560A7E7A4
:10082000C16841F02001C160EDE72DE9F05F0546A8
:10083000006800244669D0F804908768D0F80CB0AE
:10084000D0F810A0F207D0F8188048D0F90714D0DB
:1008500001218160BA0703D5284600F000FA0CE0B8
:10086000780702D54FF4006407E0380702D54FF44B
:10087000805402E0284600F0F1F9F80516D5286802
:10088000BA054FF48071816003D5284600F0E9F97C
:100890000CE0780502D544F4005407E0380502D591
:1008A00044F4804402E0284600F0DAF9F80316D553
:1008B0002868BA034FF48031816003D5284600F0E0
:1008C000D2F90CE0780302D544F4004407E0380381
:1008D00002D544F4803402E0284600F0C3F9300722
:1008E00007D55FEACB6004D52968102044F4007472
:1008F000C86070074FF0080707D55FEA0B7004D592
:100900002868C760284600F06DF9B00706D528684A
:10091000C068800702D0284600F066F9700607D547
:100920005FEACA6004D52968102044F48064086135
:10093000B00607D55FEA0A7004D528680761284623
:1009400000F05CF9F00606D528680069800702D03F
:10095000284600F054F9B00308D55FEAC96005D510
:10096000296810204860284600F04AF9F00307D5AE
:100970005FEA097004D528684760284600F074F9DA
:10098000300446D55FEA497040D5F00504D55FEAEA
:10099000C87001D044F00104B00504D55FEA887046
:1009A00001D544F00204700504D55FEA487001D512
:1009B00044F00404300529D518F0700F26D008F053
:1009C0007000402815D006DC102809D020280AD055
:1009D000302816D10AE050280ED0602811D10EE040
:1009E00044F008040DE044F010040AE044F0200450
:1009F00007E044F0400404E044F0800401E044F4E3
:100A000080742868816921F070018161296804205F
:100A10004860002C05D0686A204368622846FFF7CA
:100A200085FEBDE8F09F70B5040003D094F8200067
:100A300010B104E0012070BD204600F081F820686C
:100A4000016821F00201016000F000FE0526054664
:100A500004E000F0FBFD401B0A2811D82068406824
:100A60008007F6D42068016841F00101016000F0C0
:100A7000EDFD05460BE000F0E9FD401B0A2806D914
:100A8000606A40F40030606284F82060D2E7206839
:100A90004068C007EFD0207E0128206801683DD063
:100AA00021F080010160607E01282068016838D053
:100AB00021F040010160A07E01282068016833D048
:100AC00021F020010160E07E0128206801682ED01D
:100AD00041F010010160207F01282068016829D0C1
:100AE00021F008010160607F01282068016824D09E
:100AF00021F004010160D4E90110D4E903326569F1
:100B0000491E184323682A43104300220843D86132
:100B10000121626284F82010104670BD41F080010E
:100B2000C0E741F04001C5E741F02001CAE721F0EC
:100B30001001CFE741F00801D4E741F00401D9E703
:100B4000F0B587B0044614216846FFF7A3FB21499E
:100B5000206888423CD12048016841F00071016062
:100B6000006800F0007005901B481038016841F0E3
:100B700008010160016801F008010591016841F078
:100B800002010160006802240025694600F00200AD
:100B900005900326092701208DE8F1000F4800F099
:100BA0005FFC200269468DE8F1000D4800F058FC1A
:100BB00000221420114600F0A9FD142000F098FD39
:100BC00000221520114600F0A1FD152000F090FD37
:100BD00007B0F0BD0064004040380240000C024005
:100BE0000004024070470000024B0021024AFFF758
:100BF0009FBD00003000002028080020704770478B
:100C00007047000070B5044690F82000012804D019
:100C1000606A40F40020606218E0022084F820003E
:100C20002068016821F00101016000F00FFD054618
:100C30000EE000BF00F00AFD401B0A2808D9616AD7
:100C4000052041F40031616284F82000012070BD6C
:100C500020684068C007EDD1606270BD7047704782
:100C600070477047704770477047000070B5044682
:100C700000F0ECFC0546601C02D0044800780444F7
:100C800000F0E4FC401BA042FAD370BD54000020E9
:100C90002DE9F04390F845400025012C0DD04FF090
:100CA000010980F84590022644F2F45780F8446028
:100CB0005E1E4FF0004C816217E00220BDE8F08319
:100CC000C5EBC51801EB451408EB480802EB880892
:100CD000C4F800C0B542C4E9017804D204F1200888
:100CE000C4F80C8000E0E1606D1C9D42E8D303680D
:100CF000002403F58053D96080F8449080F8454083
:100D00002046DBE72DE9F04390F84540914600226C
:100D1000012C09D0C1620126022480F845605D1EC5
:100D200080F84440E70422E00220BDE8F08300BFE1
:100D3000C2EBC21404EB440801EB421409EB880C2B
:100D40002760C4F808C0D0F81CC0BCF1000F05D162
:100D5000D4F800C04CF4400CC4F800C0AA4204D23D
:100D600004F1200CC4F80CC000E0E160521C9A426F
:100D7000DED30268002302F58052116180F84460DE
:100D800080F845301846D0E710B590F84510012995
:100D900013D0012280F84520022180F8441000235E
:100DA000816A0C68002C28DB0C68E40519D5846B7B
:100DB000641C8463012C02D002E0022010BD016398
:100DC00041630C68C4F30D44241FC463046BA4681E
:100DD0000464C968816280F8442080F845300020AE
:100DE00010BD0C68A40503D58263C0E90C1302E0B2
:100DF000846B641C8463C968816280F8442080F835
:100E00004530012010BD00002DE9FC474FF00006E1
:100E10000400B146009603D094F8440018B107E0EE
:100E20000120BDE8FC87204684F8456000F0E4F826
:100E30006748016841F480410160006800F4804027
:100E400001906448016821F4000101600168226A90
:100E500011430160206800F58050016841F00101F4
:100E6000016000F0F3FB4FF4FA77054609E000BF9C
:100E700000F0ECFB401BB84203D9032084F8440087
:100E800068E0206800F580500068C007F0D1206855
:100E9000006920F01C0501F08DF84F4A4F490244CB
:100EA0008A4202D245F0080516E04D494D4A0144F8
:100EB000914202D245F00C050EE04B4A4B490244E8
:100EC0008A4209D34A4A4B491044884202D245F02B
:100ED000040501E045F010052068056100214FF48C
:100EE0000042204600F004FA4FF00105B0BBFF209D
:100EF000FFF7BCFE606890B300F0A8FB804641F2AB
:100F0000883701216A46204600F0E4F800F09EFB95
:100F1000A0EB0800B84217D800984007F1D500218F
:100F200020464FF4805200F0E3F9B8B900F08EFB90
:100F300080466A460121204600F0CCF800F086FB8E
:100F4000A0EB0800B8420BD901212046FFF7B4FA04
:100F500084F84450032084F8456062E724E018E0F8
:100F600000988006E5D51F216A46204600F0B2F8B9
:100F7000D0B90098C10603D54FF40061E16000E0EC
:100F8000E660400701D5A66019E04FF48040A060FC
:100F900015E0D4E90210C00840EA510082B22046B0
:100FA000002100F0A5F930B101212046FFF784FAB5
:100FB00084F8445034E740F6FF70FFF757FE494687
:100FC0002046FFF779FA84F84450002029E7000012
:100FD000443802400438014000D3CEFEC0E1E400B2
:100FE00040F1E9FD40787D0100796CFC005A620215
:100FF000001F0AFA80F0FA02F0B5006887B02F49A6
:10100000884259D12E48016841F0007101600168A1
:1010100001F000710591016841F080610160016893
:1010200001F080610591016841F000610160016893
:1010300001F000610591016841F00401016001685F
:1010400001F004010591016841F0010101600168AE
:1010500001F001010591016841F0020101600168A0
:1010600001F002010591016841F040010160006852
:1010700002240025694600F04000059003260B2756
:1010800032208DE8F1000F4800F0EAF98620694629
:101090008DE8F1000C4800F0E3F9200369468DE883
:1010A000F1000A4800F0DCF94FF4205069468DE861
:1010B000F100074800F0D4F907B0F0BD008002400D
:1010C00030380240000802400000024000040240A4
:1010D000001802402DE9F047044690F8440091467C
:1010E00082281DD082224FF6FF7084F844204FF4EE
:1010F000F863226803EA8111258A136900EAC52092
:1011000003F01C031843014321F0020040F00105E5
:10111000156100F09BFA012706464FF4803811E074
:101120000220BDE8F08700BF00F090FA801B404528
:1011300006D3002084F8447084F845000320F0E7CB
:1011400020680569E807EFD12068406981B2C9F8D5
:10115000001084F844700020E3E7F8B5044690F8E6
:101160004500012839D0012584F84550022084F833
:10117000440020680026016841F0080101602068F1
:10118000006800902846FFF771FD2168009808600C
:101190002068016841F00401016020680068009047
:1011A0000120FFF763FD2168009808602046FFF7E3
:1011B0006CF9206800F58050816941F4005181612B
:1011C000206800F58050816941F00201816184F856
:1011D0004450002084F84560F8BD0220F8BDF0B509
:1011E00090F845200023012A13D0012680F845609D
:1011F000022280F844204FF0000561B1C76A3A68C6
:10120000002A0BDA122180F8441080F845500120A2
:10121000F0BD0220F0BD80F84460F6E740F2F454DF
:10122000A1420BD9B1FBF4F204FB121CB1FBF4F2A6
:10123000BCF1000F00D0521C012A45D13A68C1F31D
:101240000C0142F040523A60C26A5160C16A0A68B9
:1012500042F000420A60C16AC968C16236E0D7F84C
:1012600000C02CF0405CC7F800C033B9C76AD7F89B
:1012700000C04CF0805CC7F800C0D0F82CC0571EEE
:10128000BB42CCF8044014D1C76AC2F1010ED7F8B2
:1012900000C0CEEBCE1E4CF0005CC7F800C00EEBD9
:1012A0004E0ED0F82CC001EB8E07C7F30C07CCF81C
:1012B0000470C76AD7F800C04CF0004CC7F800C0F3
:1012C000C76A5B1CFF68C7629342C8D3016801F517
:1012D00080514A69520705D504224A61016801F527
:1012E00080514D6080F8446080F845500020F0BD8A
:1012F0002DE9F041044690F8440042281ED04220D7
:101300004FF6FF7384F8440096B220684FF4F867F4
:10131000258A07EA81110269466103EAC52023682C
:1013200002F01C021043014341F003051D6100F06F
:101330008DF9012706464FF4803811E00220BDE800
:10134000F08100BF00F082F9801B404506D30020E9
:1013500084F8447084F845000320F0E720680569AC
:10136000E807EFD184F84470E9E70000F8B5344DA0
:101370008028344C4FF0FF361ED004DC102850D0AB
:1013800040284ED106E0B0F5807F28D0B0F5007F30
:1013900047D137E02068401C2060012369460020C7
:1013A0001A46FFF701F89DF80000022837D1012303
:1013B0002349082218463FE02068401C2060012392
:1013C000694600201A46FEF7EFFF9DF8000002284C
:1013D00025D11B4902230822083101202CE0206876
:1013E000401C20600123694600201A46FEF7DCFFFE
:1013F0009DF80000022812D1114903230822103160
:10140000012019E02068401C20600123694600206B
:101410001A46FEF7C9FF9DF80000022807D06E604B
:101420002E602068032801D101206060F8BD0449C6
:101430000423082218310120FEF7B6FFF1E700006F
:101440005C08002010000020044910B50A68024220
:1014500002D00860FFF78AFF10BD0000143C014075
:101460002DE9F84FDFF89CE100224FF001084FF022
:10147000030B4FF00F0A00BF0B6808FA02F4234079
:10148000A34271D14D68022D01D0122D0FD1D50884
:101490000E69570700EB8505A9462D6AFF0E0AFA6B
:1014A00007FCBE4025EA0C052E43C9F820600F79E1
:1014B000550006680BFA05FC07F0030726EA0C0640
:1014C000AF40374307604E68012E05D0022E03D08F
:1014D000112E01D0122E0ED18668CF6826EA0C0696
:1014E000AF403743876046680F79A643C7F30017BC
:1014F000974037434760C4688E6824EA0C04AE40C6
:101500002643C6604C68E40075D53F4C256845F419
:1015100080452560246822F00306950704F4804482
:1015200000943A4C2D0F2644D6F80848DFF8E0C066
:101530000AFA05F7604524EA070401D100272EE0E6
:10154000344FB84201D1012729E0334FB84201D1CD
:10155000022724E0314FB84201D103271FE0304F6A
:10156000B84202D104271AE045E02E4FB84201D11B
:10157000052714E02C4FB84201D106270FE02B4F6E
:10158000B84201D107270AE0294FB84201D1082704
:1015900005E0284FB84201D1092700E00A27AF40F3
:1015A00027437546C6F808784E68DEF80040F60313
:1015B00024EA030400D51C43124E2C60361D4D68EE
:1015C0003468AD0324EA030400D51C430D4F346096
:1015D00008374D683C68ED0224EA030400D51C433B
:1015E000084D3C600C354E682C68B60224EA0304B2
:1015F00000D51C432C60521C102AFFF43DAFBDE8FF
:10160000F88F0000003C01404438024000300140A7
:10161000000002400004024000080240000C0240AA
:10162000001002400014024000180240001C02405A
:1016300000200240002402400069084000D0012040
:1016400070470AB1816170470904FBE7014880686F
:10165000704700005400002002488168027811445D
:101660008160704754000020032010B500F06EF830
:10167000002000F005F800F023F8002010BD000065
:1016800070B50D4D04464FF47A700C4A29781268F3
:10169000B0FBF1F0B2FBF0F001F090F848B9102C7B
:1016A00007D200222146501E00F030F800206C6066
:1016B00070BD012070BD00005400002060000020BB
:1016C0000A4808B5016841F080510160006800F0E7
:1016D000805000900548001D016841F48041016080
:1016E000006800F48040009008BD000040380240CF
:1016F000002809DB410900F01F028900012001F1E7
:10170000E0219040C1F80001704700000E4BF0B49A
:101710001B680D46C3F30223C3F10706042E00D94C
:101720000426191D072901D2002300E0DB1E012435
:1017300004FA06F19C40491E2940641E9940144059
:101740002143F0BC02F066BA0CED00E0064900F05F
:10175000070210B54FF6FF040868044B204040EA2A
:1017600002201843086010BD0CED00E00000FA05EF
:1017700001680123C0F8FC33002280F8F423886953
:10178000044A40F000608861486D104348650020BD
:1017900070470000030000102DE9F04104008AB0FA
:1017A00004D094F8BD03002520B108E001200AB060
:1017B000BDE8F081204684F8BC5300F063F80320B4
:1017C00084F8BD03206802F0D5F904F110016846E1
:1017D00028228846FEF745FD94E80F0002F0A2F8A3
:1017E0000227E0BB2068002102F0ECF9002001266E
:1017F00011E000BFC0EBC001421C04EB810181F885
:101800003D6081F83F504D648D640D6581F83C006A
:10181000A1F84200D0B261688142EBD8002011E00B
:10182000C0EBC001421C04EB810181F8FD5181F83D
:10183000FF51C1F80452C1F80852C1F8105281F8A2
:10184000FC01D0B261688142EAD82822414668464C
:10185000FEF707FD94E80F0002F0C2F810B184F81B
:10186000BD73A3E7606A84F8385084F8BD6301282B
:1018700002D12046FFF77CFF206802F0A5F8002087
:1018800095E7000030B587B0044614216846FEF79E
:1018900001FD2068B0F1A04F33D11B48016841F031
:1018A00001010160006800240221184D00F00100D0
:1018B00005904FF4E8500A238DE81300032269468F
:1018C000CDE903232846FFF7CBFD68156946CDE92E
:1018D000000428460294FFF7C3FD0B48001D016871
:1018E00041F080010160006800F08000059006482A
:1018F0001430016841F480410160006800F48040C8
:10190000059007B030BD00003038024000000240B2
:101910001848F8B5016841F0805101600068164C24
:1019200000F080500090206840F480302060FFF785
:101930008DFE4FF47A76054605E000BFFFF786FE80
:10194000401BB0420FD86068C003F7D5206840F450
:1019500000302060FFF77AFE054606E0FFF776FECE
:10196000401BB04201D90320F8BD60688003F5D563
:101970000020F8BD40380240007000400248016875
:1019800041F4807101607047007000402DE9F84F0C
:1019900004460078DFF824944FF000063746C0076D
:1019A0000ED0D9F8001021F40001C9F80010D9F8C0
:1019B0000010626B1143C9F80010606B00B901267A
:1019C000FE4D2068843500030ED5E16B286820F4B5
:1019D000401008432860E06BB0F5801F01D010B1C3
:1019E00002E0012600E0012720684FF4800BC002CE
:1019F0000CD5216C286820F4400008432860206C36
:101A0000584501D1012601E000B901272068C10134
:101A100000D50126800666D5E8483830016841F0D7
:101A2000805101600068DFF898A300F080500090BA
:101A3000DAF8001041F48071CAF80010FFF706FED2
:101A4000804605E0FFF702FEA0EB080064287DD881
:101A5000DAF80000C005F5D5DFF8608308F1680802
:101A6000D8F8000010F440702AD0218E01F44071A3
:101A7000814225D0D8F80010D8F8002021F4407118
:101A800042F48032C8F80020D8F8002022F48032D6
:101A9000C8F80020C8F80010D8F80000C0070FD020
:101AA000FFF7D4FD824607E0FFF7D0FDA0EB0A0167
:101AB00041F288308142CAD8D8F800008007F3D5B7
:101AC000206BC0F3012103297ED0D9F8001021F446
:101AD000F811C9F80010228ED8F80010C2F30B02DA
:101AE0001143C8F800102078C00607D5286820F0F8
:101AF000807028602868A16B084328602188AF485F
:101B00008830490405D5626E016821F440311143E3
:101B100001602188090405D5A26E016821F44021E5
:101B2000114301602168C90305D5E26E016821F403
:101B30004011114301602168890305D5226F0168B6
:101B400021F4400111430160217800E018E14906C9
:101B500005D5626C016821F0030111430160217811
:101B6000090605D5A26C016821F00C011143016042
:101B70002188C90505D5E26C016821F030011143C7
:101B800001602188890505D5226D016821F0C00119
:101B9000114301602188490505D5626D016821F472
:101BA0004071114301602188090505D5A26D0168C6
:101BB00021F44061114301602188C90407D5E26D19
:101BC000016821F4405100E041E0114301602188A7
:101BD000890405D5226E016821F44041114301605A
:101BE0002168490205D5A26F016821F08061114387
:101BF000016021684FF0006A890209D5E26F01682F
:101C000021F0006111430160E16F514500D10127CE
:101C100021680A0700D50127490305D5626F0168CD
:101C200021F04071114301602168090206D5D4F802
:101C30008020016821F0805111430160DFF8849118
:101C4000012E0ED02068B0F1007F0AD08FE05E4AEE
:101C5000D9F80030104023F4F8120243C9F80020EC
:101C600039E7D9F800004E4620F08060C9F800003E
:101C7000FFF7ECFC804605E0FFF7E8FCA0EB08006E
:101C800064287DD830680001F6D421784B487C3038
:101C9000C90712D0616B81B9237A62680168D0F8F4
:101CA00000C09201C1F3014142EA0142CCF3036159
:101CB00042EA016141EA0371016021680A0303D528
:101CC000E26BB2F5801F04D0C9021AD5216C5945C8
:101CD00017D16368016894F80CC002689B01C1F3D6
:101CE000014143EA0141C2F3027241EA0C6141EA57
:101CF000027101602968626A21F01F01521E1143BE
:101D000029602168C90110D5238A62680168D0F86A
:101D100000C09201C1F3036142EA034242EA016258
:101D2000CCF3027142EA01710160216889010CD58E
:101D30006168228A237B94F808C0890141EA024144
:101D400041EA036141EA0C7101603168B04641F03B
:101D500080613160FFF77AFC064604E0FFF776FC0D
:101D6000801B64280CD8D8F800000001F6D56FB3AA
:101D7000D9F800004E4620F08050C9F8000000E07D
:101D800079E0FFF763FC074605E000BFFFF75EFC64
:101D9000C01B64286FD83068C0438000F6D5074860
:101DA000216880300A0301D5E26B1AB1C90225D53A
:101DB000216C19BB63690168277E08E0083802407E
:101DC0000070004000380240FFFCFF0F5AE002683C
:101DD000C1F301419B0143EA0143C2F3027143EAAB
:101DE000076242EA0171016029686FF0FF03A26A8D
:101DF00021F4F85103EB0222114329602168890282
:101E000012D5E16F51450FD1238C626901680768D3
:101E10009201C1F3036142EA034242EA0162C7F35D
:101E2000027142EA017101602178090716D56169E2
:101E30000268D0F800C08B01277FC2F30362CCF3A5
:101E4000014143EA014141EA026141EA077101604F
:101E50002868E16A20F4403008432860306840F088
:101E600080503060FFF7F2FB044607E0FFF7EEFB1F
:101E7000001B642802D90320BDE8F88F3068C043F6
:101E80008000F3D40020F7E72DE9F04705000F4666
:101E900063D0444E306800F00F00B84209D2306879
:101EA00020F00F0038433060306800F00F00B84277
:101EB00053D128683C4C810712D5400703D52068D0
:101EC00040F4E05020602878000703D5206840F4F3
:101ED00060402060A968206820F0F000084320607E
:101EE0002878C0072AD0304968680839012810D0FE
:101EF0000968022810D0890700292EDA216821F00C
:101F0000030101432160FFF7A1FB804641F28839BC
:101F10000DE009688903EFE78901EDE7FFF796FB1C
:101F2000A0EB0801494502D90320BDE8F0876868A5
:101F3000216801F00C01B1EB800FEFD1306800F0A7
:101F40000F00B8420BD9306820F00F0038433060E2
:101F5000306800F00F00B84201D00120E5E7287892
:101F6000400705D5E968206820F4E0500843206068
:101F70002878000706D52869216821F4604141EAE4
:101F8000C000206000F03CF82168084AC1F303114A
:101F9000515CC840064908600020FFF771FB002033
:101FA000C3E70000003C0240083802409CB3000830
:101FB00060000020014800687047000060000020B9
:101FC0000449054809680068044AC1F38221515C4C
:101FD000C84070470838024060000020ACB30008D9
:101FE0000449054809680068044AC1F34231515C5C
:101FF000C84070470838024060000020ACB30008B9
:10200000154910B51548096811F00C0213D041109C
:10201000042A0FD0082A0ED10F4C241F22682368EF
:1020200002F03F025B0207D52068C0F38810A0FBD6
:10203000010106E0084610BD2168C1F38811A1FB2B
:1020400000010023FEF7DCF82168C1F30141491CBF
:102050004900B0FBF1F010BD083802400024F40044
:102060002DE9F84F05004FF000076ED02878DFF813
:102070001C93A9F1040AC007AAF104044CD0D9F8B2
:1020800000104846C1F38101012908D00068C0F35F
:10209000810002280AD1DAF80000400206D5206843
:1020A000800339D568680028DFD035E06868B0F56E
:1020B000803F0BD010B1B0F5A02F11D0206820F4D4
:1020C00080302060206820F4802002E0206840F406
:1020D00080302060686890B1FFF7B8FA06460AE0E1
:1020E000206840F480202060F0E700BFFFF7AEFAE0
:1020F000801B642872D820688003F7D50CE0FFF7B6
:10210000A5FA064605E000BFFFF7A0FA801B642889
:10211000F0D820688003F7D42878800742D5D9F812
:102120000010484611F00C0F08D00068C0F3810081
:1021300002280BD1DAF80000400207D4206880079B
:1021400018D5E868012800D114E01CE1E8680028EF
:10215000206817D040F001002060FFF777FA0646AC
:1021600005E000BFFFF772FA801B0228C2D8206882
:102170008007F7D52869216821F0F80141EAC000FD
:1021800020600FE020F001002060FFF75FFA0646B4
:1021900005E000BFFFF75AFA801B02281ED820680E
:1021A0008007F7D42878000729D5784869696C300A
:1021B00000298046016812D041F001010160FFF75B
:1021C00045FA064605E000BFFFF740FA801B0228EB
:1021D00004D8D8F800008007F6D510E089E021F097
:1021E00001010160FFF732FA064604E0FFF72EFA1C
:1021F000801B02287DD8D8F800008007F6D4287804
:1022000040076BD5DFF8848108F13808D8F8000062
:10221000C0000BD4D8F8001041F08051C8F800106D
:10222000D8F80000012700F080500090584801685D
:10223000C90512D40168834641F480710160FFF73B
:1022400005FA064605E000BFFFF700FA801B642888
:102250004FD8DBF80000C005F6D54C4EA8686836AC
:1022600001280AD008B1052811D0306820F00100FB
:102270003060306820F0040002E0306840F0010077
:102280003060A868A0B1FFF7E1F983460CE0306840
:1022900040F004003060F0E7FFF7D8F9A0EB0B0145
:1022A00041F28830814266D830688007F4D50EE06C
:1022B000FFF7CCF9834607E0FFF7C8F9A0EB0B0165
:1022C00041F28830814256D830688007F4D42FB16B
:1022D000D8F8001021F08051C8F80010A869C8B3E0
:1022E000D9F80010C1F3810102294CD002282068DE
:1022F00000E040E020F08070206003D0FFF7A6F9F6
:1023000005463BE0FFF7A2F9064604E0FFF79EF919
:10231000801B02282FD820688001F7D4D5E90962F4
:10232000D5E907011B4B570895F82C20084303EB10
:10233000074343EA8611084340EA026040F0005038
:10234000CAF80000206840F080702060FFF77EF936
:10235000054606E015E000BFFFF778F9401B0228AC
:1023600009D820688001F7D50BE000BFFFF76EF9B0
:10237000401B022802D90320BDE8F88F20688001A5
:10238000F4D40020F8E70120F6E700000838024006
:10239000007000400000FFFF2DE9F047040005D069
:1023A00094F85D000025A56218B107E00120BDE8A2
:1023B000F087204684F85C5000F050F8022284F840
:1023C0005D204FF4E0632068016821F04001016066
:1023D000E068984201D9002101E04FF48051B0F546
:1023E000706F02D0984200D0A5624FF00109266BB1
:1023F0002EB9984201D9226301E0C4F83090D4E9A3
:102400000468D4E90102278B46EA0806A36A104350
:1024100007F4007830432668D4E907C240EA080090
:1024200040EA0C00CC460427104318433060D4F82F
:102430001880666B606AE26807EA184723683043D1
:102440003A431043084358602068C16921F4006191
:10245000C161256684F85DC00020A8E72DE9F04140
:1024600086B0074614216846FDF714FF386800253A
:10247000354A022433490326DFF8D08005279042ED
:1024800032D130481430026842F480520260006851
:1024900000F480500590086840F00100086008686A
:1024A00000F001000590086840F00200086008682C
:1024B000694600F00200059060208DE8F100244894
:1024C000FEF7CEFF202069468DE8F1004046FEF77A
:1024D000C7FF002223201146FFF718F92320FFF73A
:1024E00007F906B0BDE8F0811A4A9042F9D11548C3
:1024F0001030026842F480420260006800F48040BC
:102500000590086840F004000860086800F00400C6
:102510000590086840F0020008600868694600F00D
:10252000020005900C208DE8F1000B48FEF798FFA3
:102530004FF4806069468DE8F1004046FEF790FF59
:10254000CFE7000030380240003001400004024074
:102550000000024000380040000802402DE9F05F12
:102560008B4690F85C1000271D460A9E0129924672
:1025700004464FF001090ED0012084F85C00FFF7FB
:1025800065F8804694F85D00616801280CD0B1F5CB
:10259000827F07D102E00220BDE8F09FA16809B95F
:1025A000042801D00227FFE0BBF1000F24D0BAF1CC
:1025B000000F21D005B394F85D00042802D0052057
:1025C00084F85D00A4F844500020A5874FF4E06231
:1025D000C4F838B0C4F840A0E16820669142E064D5
:1025E0002065A4F84650E58701D8012D06D920685A
:1025F000416821F4805105E00127D5E02068416859
:1026000041F48051416020680168490603D40168A3
:1026100041F040010160E0689042606845D908B12E
:10262000012D3AD1A06B21680088C860A06B801C86
:10263000A063E08F401EE0872FE020688168890753
:102640000FD5E18F69B1B9F1010F0AD1A26B4FF03B
:1026500000091188C160A06B801CA063E08F401E40
:10266000E08720688168C9070FD0B4F8461061B1CF
:10267000C0684FF00109226C1080206C801C20641F
:10268000B4F84600401EA4F84600FEF7DFFFA0EBBA
:102690000800B04201D3701C74D1E08F0028CCD167
:1026A000B4F846000028C8D175E008B1012D6BD1FF
:1026B000E08F21680128A06B07D90088C860A06B53
:1026C000801CA063E08F801E06E000780873A06B7A
:1026D000401CA063E08F401EE08755E020688168C1
:1026E00089071AD5E18FC1B1B9F1010F15D1E18F79
:1026F0000129A16B07D90988C160A06B801CA06368
:10270000E08F801E06E009780173A06B401CA06377
:10271000E08F401EE0874FF0000920688168C907FC
:1027200028D0B4F8461029B3B4F84610012914D9BA
:10273000C068216C0880206C801C2064B4F84600BE
:10274000801EA4F84600B4F84600012810D820687E
:10275000416841F4805141600AE0007B216C0870BF
:10276000206C401C2064B4F84600401EA4F84600CB
:102770004FF00109FEF76AFFA0EB0800B04202D358
:10278000701C01D018E0BEB1E08F0028A6D1B4F8CB
:1027900046000028A2D142463146204600F0F6FC11
:1027A00010B1202020660127012084F85D0000215F
:1027B000384684F85C10EFE60327F5E7401EB0F1D9
:1027C000807F10B501D3012010BD4FF0E02460617F
:1027D0000F21601701F01EFA0020A061072121617E
:1027E00010BD70477047704770B590F83C20012AC3
:1027F00024D0134C012580F83C50022280F83D2063
:1028000002685368A242966802D00E4CA24203D1DD
:102810004C6823F4700323430C6823F07003896829
:102820001C435460002326F0800602683143916007
:1028300080F83D5080F83C30184670BD022070BDD5
:10284000000001400004014010B5040003D094F8DA
:102850003D0010B107E0012010BD002084F83C00CD
:10286000204600F00DF8022084F83D002068211D6C
:1028700000F0E2FD012084F83D00002010BD0000C2
:1028800008B500680B49884212D10B48016841F035
:102890000101016000680022114600F00100009073
:1028A0001920FEF733FFBDE808401920FEF720BFCE
:1028B00008BD000000000140443802400168094A98
:1028C000CB6843F00103CB6001688868104006289C
:1028D00006D0B0F5803F03D0086840F001000860E2
:1028E000002070470700010070B5044690F83C00D6
:1028F000012817D0324B012584F83C50022084F87F
:102900003D0022689068184020F47F40906008687D
:10291000502830D00DDC20284DD005DC98B310288D
:102920003BD148E0022070BD302844D0402834D14B
:1029300039E0602828D0702806D0B0F5805F2CD010
:10294000B0F5005F29D10AE04A682068D1E9021396
:1029500000F0D8FD2068816841F0770109E04A68FD
:102960002068D1E9021300F0CDFD2068816841F4B0
:102970008041816011E0CA684968206800F0D3FD99
:102980002068502107E016E0CA684968206800F016
:10299000DBFD2068602100F0BEFD002084F83D5082
:1029A00084F83C0070BDCA684968206800F0BBFD2F
:1029B00020684021EFE7226801461046EBE700005F
:1029C00088FFFEFF704770B5044600680025016966
:1029D000C943890715D4C168C943890711D4EA1EC0
:1029E000026101212177206880698007204602D09A
:1029F000FFF7E8FF04E000F0A7F8204600F0A5F894
:102A0000257720680169C943490717D4C168C943BC
:102A1000490713D402216FF0040202612177206874
:102A2000806910F4407F204602D0FFF7CBFF04E01E
:102A300000F08AF8204600F088F8257720680169C0
:102A4000C943090716D4C168C943090712D4042130
:102A50006FF00802026121772068C0698007204674
:102A600002D0FFF7AFFF04E000F06EF8204600F060
:102A70006CF8257720680169C943C90617D4C16875
:102A8000C943C90613D408216FF0100202612177EF
:102A90002068C06910F4407F204602D0FFF792FF03
:102AA00004E000F051F8204600F04FF82577206848
:102AB0000169C943C90708D1C168C943C90704D11D
:102AC000891E0161204600F041F820680169C94370
:102AD000090609D4C168C943090605D46FF080010D
:102AE00001612046FFF77EFE20680169C943C905E0
:102AF00009D4C168C943090605D46FF48071016126
:102B00002046FFF76EFE20680169C943490609D4D3
:102B1000C168C943490605D46FF0400101612046F0
:102B200000F015F820680169C94389060BD4C16813
:102B3000C943890607D46FF0200101612046BDE832
:102B40007040FFF750BE70BD7047704770477047C8
:102B500010B5040002D0606F10B107E0012010BD75
:102B6000002084F87000204600F026F824206067DA
:102B70002068016821F001010160204600F078FD25
:102B80000128ECD0606A10B1204600F0EFFC20680C
:102B9000416821F4904141602068816821F02A0158
:102BA00081602068016841F0010101602046BDE8B4
:102BB000104000F03FBD00002DE9F04186B0064610
:102BC00014216846FDF766FB284800253268022478
:102BD000274B103825490326DFF898809A4224D1E4
:102BE0000A6842F480120A60096801F480110591B4
:102BF000016841F004010160016801F004010591E0
:102C0000016841F00801016000680827694600F08A
:102C10000800059098148DE8F1001748FEF720FC95
:102C2000042069468DE8F1001AE0144B9A421AD14B
:102C30000A6842F480220A60096801F48021059143
:102C4000016841F0080101600068072100F00800F8
:102C50000590CDE903614FF4407069468DE831007D
:102C60004046FEF7FDFB06B0BDE8F081403802406B
:102C700000500040000C02400008024000480040A4
:102C8000FEE70000104A90ED000A82ED000A90ED88
:102C9000010A82ED010A90ED020A82ED020A91ED2D
:102CA000000A82ED030A91ED010A82ED040A91ED1A
:102CB000020A82ED050A91ED030A034982ED060A34
:102CC0001C22002004F0BEBE14010020F0B58BB021
:102CD00015490020134B0122039012241506089277
:102CE0005604059017050090CDE9060201F108028F
:102CF00001900290049082E8E100C1E90034087676
:102D000048768876C876087748770846FDF78BFEC0
:102D100005486946FDF784FC0348FDF773FF0BB0D7
:102D2000F0BD000000640040F40100202DE9F04FE8
:102D300087B014216846FDF7ADFA6948016841F093
:102D400004010160016801F004010591016841F08E
:102D500020010160016801F020010591016841F046
:102D600080010160016801F080010591016841F076
:102D700001010160016801F001010591016841F064
:102D800002010160016801F002010591016841F052
:102D900010010160016801F010010591016841F026
:102DA00008010160016801F008010591016841F026
:102DB00040010160006845F21005DFF8289100220B
:102DC00000F04000294605904846FEF73AFCDFF83F
:102DD00018A144F28107002239465046FEF731FC23
:102DE000DFF808B14FF48068002241465846FEF7EC
:102DF00028FC3F4800227421FEF723FC3D480022B6
:102E00004021FEF71EFC3C4E4FF400500024694662
:102E10000294CDE900063948FEF722FB0095012512
:102E2000CDE90154694648460394FEF719FB10208A
:102E3000009033486946CDE901043248FEF710FBA3
:102E400000976946CDE9015450460394FEF708FB0C
:102E5000CDF800806946CDE9015458460394FEF749
:102E6000FFFA74200090CDE901542148694603948B
:102E7000FEF7F6FA80206946CDE900041C4802946A
:102E8000FEF7EEFA02214FF4707000901B48CDE976
:102E900001616946FEF7E4FA40200090CDE9015453
:102EA000144869460394FEF7DBFA00220A20114613
:102EB000FEF72CFC0A20FEF71BFC0022172011460F
:102EC000FEF724FC1720FEF713FC002228201146F1
:102ED000FEF71CFC2820FEF70BFC07B0BDE8F08FC6
:102EE000303802400014024000040240001002404A
:102EF00000180240000C02400000111000080240BF
:102F00000000311000000240FEB5394CC027A82354
:102F1000251D3222277064216370FF20A2702F1DAF
:102F2000E170002628706870A870EE703E707E70A8
:102F3000BE70FE7003F0F2F82068E1782D4A90FA36
:102F400080FC2D4B90FA80FE00BA0C060CF47F4CEE
:102F5000084344EA0C240EF47F0CA5F1100144EA66
:102F60001C2444EA106008602868E97890FA80FC24
:102F700005BA00BA0C06084305F47F450CF47F0C33
:102F8000A7F1100144EA052444EA1C2444EA106035
:102F900008603868F97805BA07BA00BA0C06084321
:102FA000134905F47F45091F07F47F0744EA052408
:102FB00044EA172444EA106008600096CDE9013223
:102FC0000A1F0E480B46083903F0BCFC0B4803F0FF
:102FD0005DFD0A4890F82B004007084803D5BDE87E
:102FE000FE4003F08FBDBDE8FE4003F055BD00007C
:102FF00044000020C14A0008594C00087C08002009
:10300000034810B501F06CFEBDE8104004F07CBD33
:103010007C0800200C48002130B40A4C4FF4E062D8
:10302000C0E900416315C0E9021201610724C0E94B
:10303000051301624162C0E90A140163416330BCB7
:10304000FFF7AAB9003001401C020020F0B40F487D
:103050004FF4E06400210C4E4FF482751023C0E958
:10306000021401617215E0E805650724082580E86F
:103070000E00C1600161C0E90514C0E90715F0BC8C
:103080000248FFF789B900000038004080020020A4
:1030900010B588B01348002411498F2240F2E7335D
:1030A000059406940394049400940194029480E897
:1030B0001600C0E9033444618461FFF7C5FB4FF497
:1030C00080500390074803A9FFF70EFC05486946A6
:1030D000009401940294FFF787FB08B010BD000034
:1030E00000000140E40200200A48002130B4084CEE
:1030F0000C224FF4E1330460C0E90131C160C0E942
:1031000004128161C1610162416230BCFFF720BDE0
:1031100000500040240300200A48002130B4084C2D
:103120000C224FF4E1330460C0E90131C160C0E911
:1031300004128161C1610162416230BCFFF708BDC8
:1031400000480040A40300200A480021022230B4B5
:103150000123C0E9032182610624C0E907314162ED
:103160004FF0A045C0E90B31C0E9005430BCFEF778
:1031700013BB000024040020FEE7704770470000E6
:10318000014804F09BBC00001C020020F8B5154665
:103190000E4604460B464FF4C0510092002200F048
:1031A00019F888B90022334680212046009500F0A6
:1031B0005CF848B9002233464FF4C06120460095C0
:1031C00000F008F8002804D0206E40F020002066AF
:1031D0000320F8BD2DE9F0474FF4C0681D4617469F
:1031E0000E46DDF8209004460CE0464501D107B9B3
:1031F000007B681C06D0FEF729FAA0EB0900A84264
:1032000008D23DB1206881683140B942EDD100203B
:10321000BDE8F0872068416821F0E0014160606806
:10322000B0F5827F0BD1A068B0F5004F02D0B0F5A9
:10323000806F04D12068016821F040010160A06A1C
:10324000B0F5005F09D12068016821F400510160E8
:103250002068016841F400510160012184F85D108B
:10326000002084F85C000320D2E72DE9F0411D46E0
:1032700017460E460446DDF8188008E0681C06D0A4
:10328000FEF7E4F9A0EB0800A8420BD255B1206884
:10329000806836EA000030D00020B842EED100202D
:1032A000BDE8F0812068416821F0E001416060687C
:1032B000B0F5827F0BD1A068B0F5004F02D0B0F519
:1032C000806F04D12068016821F040010160A06A8C
:1032D000B0F5005F09D12068016821F40051016058
:1032E0002068016841F400510160012184F85D10FB
:1032F000002084F85C000320D2E70120CDE770476E
:10330000FEF7AAB970B5B4B0302121A8FCF7C2FF0E
:1033100014212DA8FCF7BEFF84216846FCF7BAFFF4
:10332000FEF72CFB1E48016841F0805101600068E7
:1033300000F0805032901B48016841F44041016028
:1033400000684FF4A021022500F440403290012093
:1033500004238205D8240926CDE92752CDE921018D
:1033600029A921A881E87800FEF77AFEFEF7D0FAB5
:10337000EA024FF4A05100242F94CDE930120F201F
:10338000CDE92D0507212DA8FEF77EFD06481594F1
:1033900013941F9400906846FEF7F8FA34B070BD9D
:1033A000403802400070004000052000104A30B54F
:1033B0001048146800210F4B44F470041460083363
:1033C00005680D4A0D4C45F001050560196003685C
:1033D000051D1340074A03600C322C600568E305A5
:1033E000034C25F480250560803C1160236030BDCE
:1033F00088ED00E000380240FFFFF6FE10300024A8
:1034000010B50A4C04212046FEF716F960B10022DF
:1034100020460421FEF715F9054901200860BDE8A2
:1034200010400448FFF7CFBA0122F1E7001802402C
:1034300050000020E4020020F0B5274B4FF0804EF2
:10344000264D02689842264E264F274C09D07045DB
:1034500007D0A84205D0B04203D0B84201D0A04264
:1034600005D1D1F804C022F070024CEA0202984261
:103470001BD0704519D0A84217D0B04215D0B84221
:1034800013D0A04211D0194DA8420ED0184DA84219
:103490000BD0184DA84208D0174DA84205D0174DA3
:1034A000A84202D0164DA84203D1CD6822F4407242
:1034B0002A434D6922F080022A43026098428A68BA
:1034C000C2620A68826201D0A04201D10969016327
:1034D00001214161F0BD00000000014000040040F6
:1034E00000080040000C0040000401400040014082
:1034F000004401400048014000180040001C00400A
:103500000020004042EA032283680A4323F47F41FB
:103510000A4382607047826822F070020A4342F0D8
:1035200007018160704710B5036A046A23F00A033B
:1035300024F00104046284690B4324F0F00141EAA1
:1035400002118161036210BD10B5036A23F01003FC
:1035500003628369046A23F4704324F0A00443EAFD
:103560000232826144EA0111016210BD90F8241018
:10357000C90706D00168836A4A6822F400321A43F8
:103580004A6090F82410890706D50168C36A4A6822
:1035900022F480321A434A6090F82410490706D575
:1035A0000168036B4A6822F480221A434A6090F84B
:1035B0002410090706D50168436B4A6822F40042CB
:1035C0001A434A6090F82410C90606D50168836B37
:1035D0008A6822F480521A438A6090F8241089067F
:1035E00006D50168C36B8A6822F400521A438A60C8
:1035F00090F82410490611D50168036C4A6822F43A
:1036000080121A434A60016CB1F5801F06D101682F
:10361000436C4A6822F4C0021A434A6090F82410AE
:10362000090606D50168826C486820F40020104322
:103630004860704738B500250446C567FEF706F8B0
:1036400003462068006800070BD56FF07E400090AD
:10365000002220464FF4001100F034F908B1032095
:1036600038BD2020606784F87050A067002038BD06
:103670002DE9F04104468068DFF818C2864F2368C0
:10368000D4E90452E16928431E6800250A438349AE
:10369000104306EA0C0606431E604FF40042206801
:1036A000E668436823F44053334343602368A669C4
:1036B000206AD3F808C030432CF4306606439E607D
:1036C0002068B8420AD1086810F0030052D00128DF
:1036D0007BD002287AD003286ED186E0704B9842C6
:1036E0000AD1086810F00C0079D004287BD0082893
:1036F00077D00C2860D178E06A4B98420AD10868EC
:1037000010F030006BD010286DD0202869D0302800
:1037100052D16AE0644B98420AD1086810F0C000A8
:103720005DD040285FD080285BD0C02844D15CE0C9
:103730005E4B98420DD1086810F440704FD0B0F540
:10374000807F50D0B0F5007F4BD0B0F5407F33D1B3
:103750004BE0574B98420FD1086810F4406009D0F5
:10376000B0F5806F3FD0B0F5006F3AD0B0F5406F44
:1037700022D13AE0012120E04E4B98420DD1086859
:1037800010F440502BD0B0F5805F2CD0B0F5005F26
:1037900027D0B0F5405F0FD127E0474B98420BD1BF
:1037A000086810F440401AD0B0F5804F1BD090420A
:1037B00017D0B0F5404F18D01021E0694FF6EF76E2
:1037C000904238D109295DD202E00CE009E006E020
:1037D000DFE801F00D1027582A5858582D00002115
:1037E000EBE70221E9E70421E7E70821E5E7FEF737
:1037F000E7FB01E0FEF7F4FB0146D4F804004900C2
:1038000001EB5001B1FBF0F080B2A0F11001B14228
:1038100038D84FF6F0732168C0F3420218401043C5
:1038200024E026496068EBE7FEF7EAFBE4E760681E
:103830004FF48031E4E7092924D2DFE801F00508DC
:1038400019231C2323231F00FEF7BAFB01E0FEF718
:10385000C7FB0146D4F8040001EB5001B1FBF0F0C6
:1038600080B2A0F11001B1420CD82168C8600AE012
:1038700013496068F0E7FEF7C3FBEAE7606802EB14
:103880005001EBE701250020206660662846BDE870
:10389000F0810000F369FFEF001001409038024012
:1038A0000044004000480040004C004000500040F0
:1038B0000014014000780040007C00400048E8010E
:1038C0000024F4002DE9F041984617460E460446C0
:1038D000069D08E0681C06D0FDF7B8FEA0EB0800C6
:1038E000A8420BD855B12068C06936EA000017D04D
:1038F0000020B842EED00020BDE8F08121682020F1
:1039000000220B6823F4D0730B6021688B6823F0CE
:1039100001038B606067A067032084F87020EBE7E9
:103920000120E6E770B504460698049D0D9901282C
:1039300015D0E06840F04000E060204600F028F834
:10394000A16B41F48031A163012D07D1A16841F041
:103950000601A160A16841F02001A16070BDA06BCB
:1039600001290A4A20F48030A063E06800EA0200DE
:10397000E060E06820F44010E06003D1E06840F4CB
:103980008010E060204600F003F8DDE7BFFFBDFFD8
:103990000C49012202E0521C8A420BD80369002B19
:1039A000F9DA0369012243F00103036104E0521CC8
:1039B0008A4201D9032070470369DB07F7D1002051
:1039C00070470000400D030010B5D0F8041841F016
:1039D0000201C0F804180320FDF748F9002010BDCB
:1039E0002DE9F04F0E4604460021DDE90B2BDDF8F2
:1039F00040800D46099F084604EB800CCCF804116A
:103A0000401C0F28F8D32046A06BB8F1000F15D04A
:103A100040F4001CC4F838C089460846C4F8000EBB
:103A20002046D4F80018012AC4F8001834D0032A1C
:103A300032D0D0F8001841F0030111E020F4001C4E
:103A4000C4F838C0206840F0400CC4F800C02068BA
:103A500040F0800CC4F800C0DEE700BF41F0010177
:103A6000C0F80018102100F09BF800B10125204695
:103A700000F086F800B1012548464FF0006C4FF683
:103A80007F334FF0904AC4F81098C4F81498C4F8E3
:103A90001C980021994619E0D0F80018002BDFD0BF
:103AA000DCE700BF04EB4112D2F80039002B06DA44
:103AB00011B1C2F800A904E0C4F800C901E0C2F8DD
:103AC0000009C2F81009C2F80899491C8E42E9D8C9
:103AD000002113E004EB4112D2F8003B002B06DA80
:103AE00011B1C2F800AB04E0C4F800CB01E0C2F8A9
:103AF000000BC2F8100BC2F8089B491C8E42E9D893
:103B0000D4F81018012F21F480722146C4F810282F
:103B100008D1144B144AC1F83038D1F83018114389
:103B2000C4F830186FF08041A06161611FB9A069CD
:103B300040F01000A061A069BBF1000F0B4A40EA01
:103B40000200A06103D0A06940F00800A061B8F1B4
:103B5000010F03D1A06906490843A0612846BDE8CA
:103B6000F08F0000000180000300010000383C805D
:103B700004000040816821F001018160002070474D
:103B8000064A102101610021491C914201D90320FC
:103B900070470369DB06F7D400207047400D03002F
:103BA0002023074A43EA811303610021491C914203
:103BB00001D90320704703699B06F7D400207047A2
:103BC000400D030010B5C268012922F0C042C26056
:103BD00002D029B1012010BDC16841F0005102E0BE
:103BE000C16841F08041C1603220FDF73FF80020FC
:103BF00010BDFEE70FB4054B10B503A9044A0298A7
:103C000000F028F810BC5DF814FB0000034D00081C
:103C100008010020090700284FEA116104DB00F1C8
:103C2000E02080F80014704700F00F0000F1E02061
:103C300080F8141D704702E008C8121F08C1002A4E
:103C4000FAD170477047002001E001C1121F002A1D
:103C5000FBD170472DE9FF4F8BB09A460F460546C2
:103C6000002606E025280BD052460D9990476D1C82
:103C7000761C28780028F5D10FB03046BDE8F08FCB
:103C80000024A0460122604900E0044315F8013FEA
:103C9000203B02FA03F00842F7D128782E2817D1EA
:103CA00015F8010F44F004042A280ED06FF02F02FB
:103CB0002878A0F1300109290AD808EB880102EB25
:103CC000410100EB01086D1CF2E757F8048B6D1CF5
:103CD000287869283ED006DC0028CDD063280BD098
:103CE000642804D136E0732810D075284BD0524692
:103CF0000D999047761C85E017F8040B8DF80000AD
:103D000000208DF80100E946012003E057F8049BEC
:103D10004FF0FF3061074FF0000401D40AE0641C4B
:103D200044450DDA8442FADB19F804100029F6D173
:103D300006E0641C8442FCDB19F804100029F8D169
:103D4000264404E019F8010B52460D999047641E71
:103D5000F8D257E001CF4FF00A0B002802DA4042B8
:103D60002D2102E0210504D52B218DF824100121FD
:103D700003E0E10705D02021F7E70DF120090891C4
:103D80000CE00021F9E701CF4FF00A0BF9E75946A3
:103D9000FCF798FA01F1300209F8012D0028F6D15C
:103DA000ADEB090000F1200B600701D44FF00108D2
:103DB000D84502DDA8EB0B0000E00020804600247F
:103DC00006E009A85246005D0D999047641C761CD8
:103DD00008988442F5DB04E0302052460D99904764
:103DE000761CB8F10001A8F10108F5DC05E019F82E
:103DF000010B52460D999047761CBBF10001ABF1C7
:103E0000010BF4DC6D1C34E70928010010B50446F1
:103E10004068804720682246BDE81040014903F011
:103E2000A1BE00000D3E000870B50C46054688078F
:103E300006D006A34FF4CE7210A118A0FFF7DAFE49
:103E4000A86800682060A868046070BD2E2E2F4D01
:103E50006964646C6577617265732F546869726414
:103E60005F50617274792F4C7749502F7372632FB2
:103E7000636F72652F6D656D702E63006D656D707B
:103E80005F667265653A206D656D2070726F706552
:103E9000726C7920616C69676E656400417373654B
:103EA0007274696F6E2022257322206661696C65C9
:103EB00064206174206C696E6520256420696E2021
:103EC00025730A0010B580680468002C0CD02168A6
:103ED000A207016006D005A34FF4A4720FA118A099
:103EE000FFF788FE204610BD002010BD2E2E2F4D5E
:103EF0006964646C6577617265732F546869726474
:103F00005F50617274792F4C7749502F7372632F11
:103F1000636F72652F6D656D702E63006D656D70DA
:103F20005F6D616C6C6F633A206D656D70207072AF
:103F30006F7065726C7920616C69676E65640000F2
:103F4000417373657274696F6E2022257322206637
:103F500061696C6564206174206C696E65202564FC
:103F600020696E2025730A0070B50A4D00240646AC
:103F700004EB440005EBC000017D29B18068B0422C
:103F800002D1204600F034F9641CE4B20A2CEFD3CD
:103F900070BD0000BC6E00202DE9F74F84B04FF0DB
:103FA0000A0B00240646DA465F46D946029401947D
:103FB000009404EB44004F490A2F039001EBC00822
:103FC00098F8145016D0002D24D0012D08D0022DC1
:103FD00006D249A340F2251255A165A0FFF70AFEBB
:103FE00066B13168D8F80400814207D160B207B0E9
:103FF000BDE8F08F002DE8D167B20BE0012D17D09E
:10400000022D07D3B8F812000099884202D34FFA64
:1040100084FA0090641CE4B20A2CCAD30598810784
:104020004FF0FF30E3D40A2F18D01ADAFCB242E086
:104030003048039950F831000028B8F8120006D033
:1040400002998842E6D34FFA84F90290E2E7019997
:104050008842DFD34FFA84FB0190DBE70599C9075B
:10406000C5D0BAF10A0F0FDA0AF0FF04214804EBB9
:10407000440150F8310090B11FA340F26F1246A1E5
:104080003BA0FFF7B7FD0AE0BBF10A0F02DA0BF025
:10409000FF0404E0B9F10A0FA9DA09F0FF040A2CC1
:1040A00006D315A340F2811241A131A0FFF7A2FD72
:1040B000204600F09DF80A2C06D30FA340F285128B
:1040C0003BA12BA0FFF796FD0A4804EB440100EB4F
:1040D000C105287D30B108A34FF4C37239A124A0D3
:1040E000FFF788FD0EB130686860002160B2698218
:1040F0007DE70000BC6E00202E2E2F4D6964646C9D
:104100006577617265732F54686972645F5061727C
:1041100074792F4C7749502F7372632F636F7265D8
:104120002F697076342F6574686172702E63000099
:104130007374617465203D3D204554484152505F81
:1041400053544154455F50454E44494E47207C7C72
:10415000207374617465203E3D204554484152509F
:104160005F53544154455F535441424C4500000055
:10417000417373657274696F6E2022257322206605
:1041800061696C6564206174206C696E65202564CA
:1041900020696E2025730A006172705F7461626C21
:1041A000655B695D2E71203D3D204E554C4C0000F5
:1041B00069203C204152505F5441424C455F534975
:1041C0005A4500006172705F7461626C655B695D85
:1041D0002E7374617465203D3D2045544841525012
:1041E0005F53544154455F454D5054590000000001
:1041F00070B5074C00EB4005002654F8350018B1A7
:1042000003F0E2F844F8356004EBC500067570BDB4
:10421000BC6E00202DE9F0430D00074685B009D0A3
:104220007C684FF480782088404539D12079062871
:1042300036D109E01CA34FF4227229A12CA0FFF76C
:10424000D9FC05B0BDE8F0836079042828D16088E6
:10425000082825D1D4F80E0004906868A16920B11F
:10426000814202D10126334601E00026022328467E
:1042700004F1080204A9914600F094FBE08840454F
:104280000ED16EB10222284604AB291DCDE90232BF
:10429000CDE9001905F125034A46194600F084FAD4
:1042A000384603F091F8CCE72E2E2F4D6964646CEC
:1042B0006577617265732F54686972645F506172CB
:1042C00074792F4C7749502F7372632F636F726527
:1042D0002F697076342F6574686172702E630000E8
:1042E0006E6574696620213D204E554C4C000000DF
:1042F000417373657274696F6E2022257322206684
:1043000061696C6564206174206C696E6520256448
:1043100020696E2025730A00FEB5040015460E467E
:1043200006D141A340F21B324DA151A0FFF762FC20
:1043300036B93DA34FF4477257A14DA0FFF75AFC81
:1043400035B939A340F21D3256A149A0FFF752FCFE
:104350002868214600F088FE08B1564B3CE02868EA
:10436000C0F303110E2922D0D4E901210A400140F3
:10437000914208D080B2A0F57E41A93903D0E0680F
:10438000A0B304F10C054C4A4C49107800EB4003F3
:1043900001EBC3031F7D022F2CD32F685B689F4264
:1043A00028D102463146204600F08AF8FEBD01229F
:1043B0008DF8042000208DF805005E218DF8061090
:1043C000687801AB00F07F008DF80700A8788DF8C1
:1043D0000800E8788DF809004FF4006004F1250228
:1043E00031460090204600F0BBFBFEBDFFE76FF0BA
:1043F0000300FAE75FF0000000EB400301EBC303AA
:104400001F7D022F06D32F685B689F4202D1C0B286
:104410001070C6E7401C40B20A28EDDB3246294640
:10442000204600F0D5F8E0E72E2E2F4D6964646C2D
:104430006577617265732F54686972645F50617249
:1044400074792F4C7749502F7372632F636F7265A5
:104450002F697076342F6574686172702E63000066
:104460006E6574696620213D204E554C4C0000005D
:10447000417373657274696F6E2022257322206602
:1044800061696C6564206174206C696E65202564C7
:1044900020696E2025730A007120213D204E554C65
:1044A0004C00000069706164647220213D204E550B
:1044B0004C4C0000B4B30008FC000020BC6E00208F
:1044C0002DE9F8431546884606461C4802EB45018F
:1044D00000EBC104207D022806D219A34FF43B72E1
:1044E00025A131A0FFF786FB144A05EB4501207D8D
:1044F00002EBC1050C35022813D1608A0327B0F501
:104500008E7F04D9211D304600F006FA07E0B0F591
:10451000877F06D3211D2A46304600F003FA00B9F2
:1045200027754FF4006006F125022B4641460090A6
:10453000304600F015FBBDE8F8830000BC6E00209B
:104540002E2E2F4D6964646C6577617265732F54EC
:10455000686972645F50617274792F4C7749502F8B
:104560007372632F636F72652F697076342F657471
:10457000686172702E6300006172705F7461626CBA
:10458000655B6172705F6964785D2E7374617465D8
:10459000203E3D204554484152505F5354415445BC
:1045A0005F535441424C4500417373657274696FA7
:1045B0006E2022257322206661696C656420617417
:1045C000206C696E6520256420696E2025730A00C1
:1045D0002DE9FC5F82461446253001900868884624
:1045E0004FF0FF364FF0000B514600F03DFD002824
:1045F00028D1D8F80000C0F303110E2922D0B8F159
:10460000000F1FD000281DD0012152464046FFF761
:10461000C3FC070018D4394907EB470901EBC9056A
:10462000287D002812D0012808D0022806D234A301
:1046300040F2C73240A14AA0FFF7DCFABBF1000FFD
:104640000AD108E06FF00F00BDE8FC9FC5F808A094
:104650000121297500E034B94146504600F05CF96B
:10466000002C0646F0D0287DDFF8908002280DD37C
:1046700045484FF4006105F10C0307705046019A5C
:104680000091214600F06CFA064635E0012833D14E
:104690004FF47B76254668892989884207D12868A6
:1046A00028B117A3324639A12DA0FFF7A3FA287B22
:1046B00001280ED029890022022002F031FA0500DB
:1046C00018D0214602F0FCFC58B1284602F07CFECE
:1046D00010E02D68002DDED12546204603F0A2F81B
:1046E00045B158F8390008B102F06EFE002648F8CE
:1046F000395001E04FF0FF363046A5E7BC6E002090
:104700002E2E2F4D6964646C6577617265732F542A
:10471000686972645F50617274792F4C7749502FC9
:104720007372632F636F72652F697076342F6574AF
:10473000686172702E6300006172705F7461626CF8
:10474000655B695D2E7374617465203D3D20504545
:104750004E44494E47206F7220535441424C45000D
:10476000417373657274696F6E202225732220660F
:1047700061696C6564206174206C696E65202564D4
:1047800020696E2025730A00FC0000206E6F2070E7
:1047900061636B65742071756575657320616C6C00
:1047A0006F776564210000002DE9FF4F81B09846C6
:1047B00006004FF00007DDE90FA9DDF838B006D19B
:1047C0002BA34FF48B6238A13BA0FFF713FA002212
:1047D0001C21022002F0A4F9050046D068891C289B
:1047E00006D223A340F263423DA133A0FFF702FAB1
:1047F0006C68119801F090FCE08096F8240006287F
:1048000006D044491AA32CA040F26A42FFF7F2F9FD
:10481000D8F800100623A1604FF48071B8F80400A6
:10482000A081DAF80020C4F812200822BAF80400A7
:10483000E082DBF80000C4F80E00D9F80000A061A7
:104840000420218040F606016280237160713046A9
:10485000DDE902230091294600F082F9284602F0A2
:10486000B3FD384605B0BDE8F08F4FF0FF30F9E7F3
:104870002E2E2F4D6964646C6577617265732F54B9
:10488000686972645F50617274792F4C7749502F58
:104890007372632F636F72652F697076342F65743E
:1048A000686172702E6300006E6574696620213D38
:1048B000204E554C4C000000417373657274696F53
:1048C0006E2022257322206661696C656420617404
:1048D000206C696E6520256420696E2025730A00AE
:1048E000636865636B2074686174206669727374B1
:1048F00020706275662063616E20686F6C6420733F
:104900007472756374206574686172705F68647234
:104910000000000090B50008014A00F003B8000054
:10492000B4B300087FB5064D0124031DCDE9021480
:10493000CDE9003521331946FFF736FF04B070BDCD
:10494000BAB3000870B5164D5FF0000404EB4400E4
:1049500005EBC001087DF0B14A8A521C92B24A822E
:10496000B2F5967F0AD2012806D003280AD004287F
:104970000AD001280BD00EE0052A08D32046FFF705
:1049800037FC08E0042000E00220087503E0886896
:10499000091DFFF7C1FF641CE4B20A2CD6D370BD19
:1049A000BC6E0020F8B5044690F824001F4615465A
:1049B00006280E4606D020A340F2AB122CA135A04B
:1049C000FFF718F99EB3306888B3214600F04CFB1E
:1049D00068BB3078C0F303100E2829D02246394630
:1049E0003046FFF7D9FA002820DB344A00EB4001BB
:1049F000022302EBC1000375002384602E68C660A9
:104A0000AE880682438252F8316076B142F8313086
:104A10004FF400602B4604F12502314600902046F9
:104A200000F09EF8304602F0CFFC0020F8BDFFE712
:104A30006FF00F00FAE700002E2E2F4D6964646CB2
:104A40006577617265732F54686972645F50617233
:104A500074792F4C7749502F7372632F636F72658F
:104A60002F697076342F6574686172702E63000050
:104A70006E657469662D3E6877616464725F6C650B
:104A80006E203D3D204554485F4857414444525FA5
:104A90004C454E00417373657274696F6E20222518
:104AA0007322206661696C6564206174206C696E94
:104AB0006520256420696E2025730A00BC6E0020E5
:104AC00070B5044640890D460E283CD960680178CF
:104AD0008689CA0714D0012905D020490622FBF790
:104AE000E4FB48B10CE0417851B980785E2807D1E9
:104AF000607B40F0100002E0607B40F008006073D3
:104B0000082E6FF00D0103D0B6F5C16F1BD10FE079
:104B100095F82B00000716D560890E2813DB204678
:104B200002F01CFD78B92946204600F0DFFB12E0B8
:104B300095F82B00000706D560890E2803DB204678
:104B400002F00CFD18B1204602F03EFC03E02946BD
:104B50002046FFF75FFB002070BD0000B4B30008E3
:104B60002DE9F0411F4690460E460446069801F096
:104B7000D3FA0E210546304602F0F0FC18B16FF072
:104B80000100BDE8F0817068858139680160B988ED
:104B90008180D8F80020C0F80620B8F804104181C0
:104BA00094F82400062806D006A340F22B1213A185
:104BB0001FA0FFF71FF8A26931462046BDE8F0416B
:104BC000104700002E2E2F4D6964646C657761726A
:104BD00065732F54686972645F50617274792F4CE9
:104BE0007749502F7372632F6E657469662F6574F1
:104BF0006865726E65742E63000000006E657469EE
:104C0000662D3E6877616464725F6C656E206D75B9
:104C10007374206265203620666F72206574686543
:104C2000726E65745F6F757470757421000000009A
:104C3000417373657274696F6E202225732220663A
:104C400061696C6564206174206C696E65202564FF
:104C500020696E2025730A0010B5040006D10BA34D
:104C60004FF404720EA112A0FEF7C4FF1A4973207C
:104C700061611A49A161742184F82C00204684F8EE
:104C80002D1001F015F9002010BD00002E2E2F531D
:104C900072632F65746865726E657469662E630051
:104CA0006E6574696620213D204E554C4C00000015
:104CB000417373657274696F6E20222573222066BA
:104CC00061696C6564206174206C696E652025647F
:104CD00020696E2025730A001943000865600008EA
:104CE00070B5054601F05CF9040009D02A6929462F
:104CF0009047002804D02046BDE8704002F064BB15
:104D000070BD38B504468DF8000069460320ABBE7F
:104D1000204638BD10B5002821D0114B0022001FBD
:104D2000196803E0814203D80A4649680029F9D18D
:104D300052B11368841A9C4204D100681844106070
:104D4000104602E0506000E0186039B102680B1AAA
:104D5000934203D10B681A4402604968416010BD58
:104D60000C0100200A46032100F0F4B82DE9FE4FA3
:104D70008A4644490446D1F8088098F800000007A4
:104D8000870E142F78D36089042875D36068007863
:104D9000002871D008286FD1486901F11405C0F3CB
:104DA00003120E2A68D08946096800F05DF90028D0
:104DB00062D1208908285FD307F10E0120460E46F4
:104DC00002F0CCFB00282DD020890022384481B28B
:104DD000022001F0A5FE06004ED0718907F10800FF
:104DE000814216D370683A464146FBF73AFA794257
:104DF000304602F0B3FB002806D0AF2222A330A138
:104E00003DA0FEF7F7FE04E02146304602F058F9D7
:104E100018B1304602F0D8FA2EE0204602F0D4FA5B
:104E200034460CE07142204602F098FB002806D080
:104E3000C02215A33AA130A0FEF7DCFE1CE0666894
:104E40003946204602F08AFBB0B9606800212A6822
:104E5000FF27C2600A46D9F8103003610123317080
:104E60007180077241812046CDE900133B462946F7
:104E7000CDF808A000F00CFB2046BDE8FE4F02F084
:104E8000A3BA0000943900202E2E2F4D6964646C63
:104E90006577617265732F54686972645F506172DF
:104EA00074792F4C7749502F7372632F636F72653B
:104EB0002F697076342F69636D702E6300000000D7
:104EC00069636D705F696E7075743A206D6F766995
:104ED0006E6720722D3E7061796C6F616420746F13
:104EE0002069636D70206865616465722066616920
:104EF0006C65640A00000000417373657274696F29
:104F00006E2022257322206661696C6564206174BD
:104F1000206C696E6520256420696E2025730A0067
:104F200069636D705F696E7075743A207265737431
:104F30006F72696E67206F726967696E616C20704D
:104F40002D3E7061796C6F6164206661696C656487
:104F50000A0000002DE9FF479246894600220646D6
:104F60002421012001F0DCFD050031D068892428CE
:104F700006D218A340F2611224A12FA0FEF73AFE38
:104F80006C684FF0000877681C2284F8009084F861
:104F900001A0A4F80480A4F806806868716808304D
:104FA000FBF75FF9F868039003A800F013FC60B109
:104FB000A4F802800122CDF80080FF23CDE9012072
:104FC0000021284603AA00F063FA284602F0FCF903
:104FD000BDE8FF872E2E2F4D6964646C6577617282
:104FE00065732F54686972645F50617274792F4CD5
:104FF0007749502F7372632F636F72652F697076D4
:10500000342F69636D702E63000000006368656370
:105010006B207468617420666972737420706275A5
:10502000662063616E20686F6C642069636D702018
:105030006D65737361676500417373657274696F41
:105040006E2022257322206661696C65642061747C
:10505000206C696E6520256420696E2025730A0026
:105060000A460B21FFF776BF421C12D088B191F897
:105070002B2092070BD54A68824208D089680A40E3
:1050800000EA0103934202D10143491C01D00020F0
:1050900070470120704700002DE9F74F86B00446A5
:1050A0000025AE1F07981427408C1438C11700EB59
:1050B0005170C0F3CF0B60680590017801F00F01CB
:1050C000052904D056A340F2E12264A10BE0C08878
:1050D00001F022F88104C0F30C0002900AD550A31D
:1050E00040F2E62267A16EA0FEF784FD304609B0CB
:1050F000BDE8F08F208914381FFA80F880E000BFE7
:10510000B8EBCB0F01D34FEACB0080B20390002263
:105110001421022001F004FD5FEA000A78D06089C2
:10512000142806D23EA34FF4427267A15CA0FEF79A
:1051300061FDDAF8040014220599FBF792F8DAF819
:105140000400039E04902BE06089C01B85B2AE4230
:1051500000D2354615B3052001F0A2FB5FEA000935
:1051600053D0606802224B4629463844CDE90005F9
:10517000042001F093FE0090F0B3204602F052FBB1
:1051800059495046C9E90414009901F0F7FE701B13
:105190000604360C06D024680027D5E724680027CB
:1051A000002ED1D1079879198FB2408C1438404520
:1051B0000298C0F30C0001DA40F4005000F0ACFF9C
:1051C0000499C8800398143080B200F0A5FF0499B8
:1051D000002248805146049842810798089A436902
:1051E0009847504602F0F0F80399A8EB01020299A3
:1051F0001FFA82F8594401E00DE009E088B20290FC
:10520000B8F100007FF47CAF71E7504602F0DCF8A3
:105210004FF0FF306BE7484600F00AFBF5E700006F
:105220002E2E2F4D6964646C6577617265732F54FF
:10523000686972645F50617274792F4C7749502F9E
:105240007372632F636F72652F697076342F697084
:10525000345F667261672E63000000006970345F1E
:1052600066726167282920646F6573206E6F7420F1
:10527000737570706F7274204950206F7074696F0D
:105280006E73000069705F6672616728293A204D6D
:105290004620616C7265616479207365740000005A
:1052A000417373657274696F6E20222573222066C4
:1052B00061696C6564206174206C696E6520256489
:1052C00020696E2025730A0074686973206E656515
:1052D00064732061207062756620696E206F6E6550
:1052E0002070696563652100195E00082DE9F05F93
:1052F000456806460F4604212878B1EB101F03D0FD
:10530000304602F061F88DE000F00F004FF6FF71BB
:1053100001EA8008688800F0FFFE04463089A04258
:1053200003D92146304602F0B1F971894145E7D3EE
:105330003089A042E4D3B8F1140FE1D3DFF848A1DB
:105340002969CAF81410C1F30312E9680E2ACAF8D1
:10535000101014D0DFF834B13C464FF0010900BF03
:1053600094F82B00C00712D0616881B1DAF81400FC
:10537000884220D02146FFF777FEE0B907E097F892
:105380002B00C0070FD0786868B13C4613E0B9F134
:10539000000F0AD09AF814007F2804D0DBF80040F0
:1053A0004FF0000902E0002405E02468BC4200D16F
:1053B0002468002CD4D1DAF810003946FFF754FEE7
:1053C00000289DD19AF81000D146C0F303100E2892
:1053D00096D0002C94D0E88830F0C00005D030463C
:1053E00000F01EF906001DD07568C8F10001C9F86B
:1053F00008503046C9E900472A781207920EA9F8EA
:105400000C2002F0ABF8687A012818D0062811D0D9
:1054100011280AD0D9F814004F462146FFF724FE80
:1054200090B11FE00020BDE8F09F3946304605F0FE
:10543000A9FE1AE03946304603F0BAF815E03946BD
:105440003046FFF793FC10E0387DC0F303100E28C0
:1054500008D04146304602F084F80221304675609B
:10546000FFF780FC304601F0AFFF0021C9F80010C3
:10547000C9F80410C9F80810A9F80C10C9F81010E0
:10548000C9F81410CEE700009439002098000020DD
:10549000FEB5DDE90954089E1AB109B10F6807B9D4
:1054A000211D0096CDE9015400F002F8FEBD000078
:1054B0002DE9F84FDDE90BA80546C089DDF828B0D5
:1054C0001F4601281646894606D02DA340F23332E6
:1054D00038A13BA0FEF78EFB002E39D014212846C0
:1054E00002F03CF818B16FF00100BDE8F88F688950
:1054F0006C68142806D222A34FF458723AA130A047
:10550000FEF778FB2772452084F809A031682161F5
:10551000207084F801B0288900F0FEFD3E4F4FF066
:10552000000A6080A4F806A0388800F0F5FDA0808D
:10553000B9F1000F388800F10100388005D0D9F8A2
:105540000000E060A4F80AA006E034480068F8E72C
:1055500068686E4600690090B8F8220040B1298959
:10556000814205D9324641462846FFF795FDBCE702
:10557000D8F814304046324629469847B5E700002F
:105580002E2E2F4D6964646C6577617265732F549C
:10559000686972645F50617274792F4C7749502F3B
:1055A0007372632F636F72652F697076342F697021
:1055B000342E6300702D3E726566203D3D20310023
:1055C000417373657274696F6E20222573222066A1
:1055D00061696C6564206174206C696E6520256466
:1055E00020696E2025730A00636865636B20746808
:1055F00061742066697273742070627566206361DD
:105600006E20686F6C6420737472756374206970A7
:105610005F68647200000000FE000020BCB4000857
:105620002DE9F05F45688346287800F00F000528D3
:105630007DD1E88800F070FDC004070C688800F098
:105640006BFD297801F00F01494200EB81001FFA40
:1056500080F8584601F02AFD5D4C0646208830440B
:105660000A2809D93146284600F080FB00285ED080
:10567000208830440A285AD8A14664684FF0000AAE
:105680000CE06069E968884207D1A069296988420D
:1056900003D1A089A988884203D02468002CF0D1C6
:1056A00006E02CB1E88800F037FDC0041BD025E0EF
:1056B000042001F0F5F804000AD13146284600F034
:1056C00055FBB04233DB042001F0EAF804007BD044
:1056D0002021FAF7DFFD0321E177D9F804102160DA
:1056E000C9F8044004E0E08900F016FDC00405D0CC
:1056F0001422294604F10800FAF7B3FDA87940F313
:1057000040156D1C08D007EB080080B2B8425BD38F
:105710004FF6EB71884257D82A465946204600F08A
:10572000CFF8411C50D0B9F80020324400E04BE0E3
:10573000A9F8002035B1A27F07EB0801A18342F050
:105740000102A27701283DD1A08B142204F10801A7
:105750001430A0836068456828462E68FAF781FDFA
:10576000A08B00F0D9FC01466980A5F806A06FF077
:105770001308A5F80AA0656809E077684146304635
:1057800001F0ECFE3146284601F0F8FB3E68002EA1
:10579000F3D1D9F804104E468C4205D1002105E022
:1057A0000868A04202D001460029F9D1204600F045
:1057B000B7F9284601F07AFC3188081A308028466B
:1057C000BDE8F09F0020FBE7584601F0FDFDF9E73A
:1057D0000001002070B50446134813E090F82B1028
:1057E000CA070FD04A070DD543685BB182682568A8
:1057F000134005EA02069E4214D0890702D4C1680C
:105800008D420FD000680028E8D10848006840B1F8
:1058100090F82B10CA0704D0490702D54168002927
:1058200000D1002070BD0000980000209C000020E6
:1058300010B5040006D106A340F2AE2213A116A0B3
:10584000FEF7D8F92146BDE81040052000F0B4BFAE
:105850002E2E2F4D6964646C6577617265732F54C9
:10586000686972645F50617274792F4C7749502F68
:105870007372632F636F72652F697076342F69704E
:10588000345F667261672E63000000007020213D66
:10589000204E554C4C000000417373657274696F63
:1058A0006E2022257322206661696C656420617414
:1058B000206C696E6520256420696E2025730A00BE
:1058C0002DE9F0474C68002592460F4606464FF0FA
:1058D0000108608800F020FC217801F00F014942A6
:1058E00000EB8109E08800F017FC7C68C00400220E
:1058F000010C01EB0900226083B2A180E380726891
:1059000026E05068B0F804C0614515D222606DB140
:10591000B5F806C061457BD38088834278D82F6074
:10592000A088844506D04FF0000803E080888342B9
:105930006ED8776072B12DE06AD0C288914267D389
:1059400025B1EA88624501D04FF00008026805469B
:10595000002AD6D1002D12D0E888A188884206D925
:1059600032A340F2AB1240A147A0FEF743F92F60EB
:10597000E888A18888420DD04FF000080AE07068DE
:10598000002806D029A340F2B31249A13EA0FEF799
:1059900031F97760BAF1000F02D1B07FC00732D081
:1059A000B8F1000F32D07268002A2FD0506880887A
:1059B00000282BD12068214628B14468C888A188D6
:1059C0008842F7D022E0B8F1000F1FD032B917A3F8
:1059D0004FF4EA7244A12CA0FEF70CF970684068FD
:1059E000A04206D111A340F2D5123FA126A0FEF796
:1059F00001F9206830B10DA340F2D7123EA122A0D8
:105A0000FEF7F8F80120BDE8F08701E00020FAE792
:105A1000384601F04BFB014640480288511A01808C
:105A2000384601F0D1FC4FF0FF30ECE72E2E2F4D21
:105A30006964646C6577617265732F546869726418
:105A40005F50617274792F4C7749502F7372632FB6
:105A5000636F72652F697076342F6970345F667278
:105A600061672E6300000000636865636B206672E7
:105A700061676D656E747320646F6E2774206F7636
:105A800065726C6170000000417373657274696FB8
:105A90006E2022257322206661696C656420617422
:105AA000206C696E6520256420696E2025730A00CC
:105AB0006E6F2070726576696F75732066726167AC
:105AC0006D656E742C2074686973206D7573742015
:105AD00062652074686520666972737420667261FD
