:020000040800F2
:1000000098720020DD010008F7390008D533000898
:10001000F53900086B070008714400080000000073
:10002000000000000000000000000000993B0008F4
:100030007909000800000000F93900089B3B00081E
:10004000F7010008F7010008F7010008F7010008B0
:10005000F7010008F7010008F7010008F7010008A0
:10006000F7010008F7010008D50A0008F7010008A9
:10007000F7010008F7010008F7010008F701000880
:10008000F7010008F7010008F7010008F701000870
:100090006D07000879070008F7010008F50A000855
:1000A000F70100089D3C0008F7010008F70100086F
:1000B000F7010008F7010008D93C0008F701000823
:1000C000F7010008F7010008F7010008FD390008F2
:1000D000F7010008F7010008F7010008F701000820
:1000E000CD0A0008F7010008F7010008F701000831
:1000F000F7010008F7010008F7010008F701000800
:10010000F7010008F7010008F7010008F7010008EF
:10011000F7010008F7010008F7010008F7010008DF
:10012000F7010008F7010008F7010008F7010008CF
:10013000F7010008F7010008F7010008F7010008BF
:10014000F7010008F7010008F7010008F7010008AF
:10015000F7010008F7010008F7010008F70100089F
:10016000F7010008F7010008F7010008F70100088F
:10017000F7010008F7010008F7010008000000007F
:10018000F7010008F7010008F7010008F70100086F
:10019000F7010008F7010008F7010008F70100085F
:1001A000F7010008F7010008F7010008F70100084F
:1001B000F7010008F7010008F7010008F70100083F
:1001C000F7010008F7010008DFF80CD000F09EFAF4
:1001D00000480047816B000898720020064880475D
:1001E00006480047FEE7FEE7FEE7FEE7FEE7FEE71C
:1001F000FEE7FEE7FEE7FEE7493C0008C90100080C
:100200002DE9F05F0546002092469B46884606464B
:10021000814640241BE0284641464746224600F0DE
:10022000BEF953465A46C01A914110D3114618469A
:10023000224600F0A5F92D1A67EB01084F46224629
:100240000120002100F09CF917EB00094E41201E0F
:10025000A4F10104DFDC484631462A464346BDE8A6
:10026000F09F40EA01039B0703D009E008C9121F71
:1002700008C0042AFAD203E011F8013B00F8013B60
:10028000521EF9D27047D2B201E000F8012B491E8C
:10029000FBD270470022F6E710B513460A46044623
:1002A0001946FFF7F0FF204610BD30B50446002088
:1002B000034600E05B1C934203D2E05CCD5C401B34
:1002C000F8D030BD2DE9FE4F804681EA0300C00F13
:1002D0000C46009021F0004123F00045B8EB0200ED
:1002E000A94105D24046214690461C460B4602468F
:1002F00023F00040104347D0270DC7F30A00C3F393
:100300000A510290401A019040286BDAC3F313009F
:1003100040F4801B0098924620B10023D2EB030AE0
:1003200063EB0B0B01985946C0F14002504600F0B8
:1003300027F906460D4650465946019A00F03FF906
:1003400010EB08006141002487EA115284EAE77348
:100350001A4340D0009A62B3019A012A4FEA075229
:1003600015DC001B61EB02014FF0004202EA07526C
:10037000CDE90042001C41F5801132462B4600F0C9
:1003800076F903B0BDE8F08F40462146F9E7001B3F
:1003900061EB0201001C41F5801300185B4120183D
:1003A000A2F5001747EB030140EAD570B6196D417D
:1003B00011E06D084FEA360645EAC0754FEA07526C
:1003C000001B61EB0201001C41F5801149084FEA56
:1003D00030000019514132462B4603B0BDE8F04FC2
:1003E00000F036B90098012240000023D0EB020251
:1003F00063EBE073009821464FEAE074B8EB00002D
:1004000061EB0401E9E783F000435BE781F0004121
:1004100058E72DE9FE4F81EA030404F0004421F07F
:10042000004100944FF0000B23F0004350EA010418
:100430005ED052EA03045BD0C3F30A54C1F30A55F9
:100440002C44A4F2F3340194A0FB0254C1F3130131
:1004500041F48011C3F3130343F4801301FB0244FE
:1004600000FB034E840A970A44EA815447EA835703
:10047000A4FB076802958D0A05FB07854FEA932CBC
:1004800004FB0C542705029D4FEA065847EA16372D
:10049000B5EB08056EEB070C870E920E47EA811745
:1004A00042EA8312A7FB0201B6EB0B0164EB0004E6
:1004B0002B0D43EA0C335E1844EB1C50DA465146D0
:1004C000E7FB0201C5F313044FEA0B3343EA14536D
:1004D0004FEA0432019C43EA0603A4F10C0402949F
:1004E000009CCDE900B400F0C2F803B0BDE8F08F85
:1004F00000200146F9E700F0004230F000400AD049
:10050000C10D01F56071C0F3160042EA0151C20845
:1005100040071143704700200146704701F0004337
:1005200030B421F0004150EA010206D00A0DA2F5D4
:100530006072C1F31301002A02DC30BC0020704756
:10054000440F44EAC104C100E01830BC00EBC250C3
:1005500000F047B830B50B460146002020220124A8
:1005600009E021FA02F59D4205D303FA02F5491B81
:1005700004FA02F52844151EA2F10102F1DC30BD97
:10058000202A04DB203A00FA02F100207047914053
:10059000C2F1200320FA03F3194390407047202A48
:1005A00004DB203A21FA02F00021704721FA02F31D
:1005B000D040C2F120029140084319467047202ADA
:1005C00006DBCB17203A41FA02F043EAE07306E07B
:1005D00041FA02F3D040C2F120029140084319468B
:1005E00070470029A8BF7047401C490008BF20F091
:1005F0000100704710B4B0FA80FC00FA0CF050EA29
:10060000010404BF10BC704749B1CCF1200421FAA9
:1006100004F411FA0CF118BF012121430843A3EBA4
:100620000C01CB1D4FEA00614FEA102042BF0020B1
:1006300010BC704700EBC35010440029A4BF10BC8D
:100640007047401C490008BF20F0010010BC7047F3
:1006500010B5141E73F1000408DA401C41F10001CA
:1006600092185B411A4301D120F0010010BD2DE921
:10067000F04D92469B4611B1B1FA81F202E0B0FA18
:1006800080F220329046FFF77BFF04460F4640EA97
:100690000A0041EA0B0153465A46084313D011465B
:1006A00053EA010019D0C8F140025046FFF777FF26
:1006B00005460E46504659464246FFF761FF08433D
:1006C00005D0012004E020463946BDE8F08D002029
:1006D000054346EAE0762C4337430A986305E40A6B
:1006E000A0EB08000022FD0A44EA47540A3002D574
:1006F00000200146E9E7010510196941DDE90845D7
:1007000000196941BDE8F04DA2E70000064C074D15
:1007100006E0E06840F0010394E8070098471034D1
:10072000AC42F6D3FFF754FD5CC200087CC200085F
:1007300030B58C1810F8012B12F00F0301D110F80E
:10074000013B120906D110F8012B03E010F8015B00
:1007500001F8015B5B1EF9D101E001F8013B521E7B
:10076000FBD1A142E6D3002030BDFEE7014800F0F6
:10077000D8BA000020020020014800F0D2BA0000E0
:100780002002002001220B4810B5910201F07BF9F4
:10079000094C01229103204601F075F901222046FF
:1007A000110301F070F901222046BDE8104010212C
:1007B00001F069B900100240001402402DE9F84F21
:1007C000984614468B460546501C06F081FA611C7B
:1007D000824645F080020270084606F079FA2C4BFA
:1007E000651CB8F1010F07464FF480614FF06406B5
:1007F00009D02848B8F1020F16D0B8F1030F26D05F
:10080000B8F1040F34D0002288469946184601F00A
:100810003AF9ABB220483A465146009602F070F8D9
:1008200001224146484603E000224FF4804911E08E
:1008300001F029F9791C22465846FFF712FD384687
:1008400004F0A8FE5046BDE8F84F04F0A3BE002215
:100850004FF480598046494601F015F9ABB20E4875
:100860003A465146009602F04BF8012249460DE007
:1008700000228046102101F006F9ABB206483A4644
:100880005146009602F03CF8012210214046CFE785
:100890000010024000140240AC020020F8B5344DB4
:1008A0008028344C4FF0FF361ED004DC102850D086
:1008B00040284ED106E0B0F5807F28D0B0F5007F0B
:1008C00047D137E02068401C2060012369460020A2
:1008D0001A46FFF773FF9DF80000022837D1012365
:1008E0002349082218463FE02068401C206001236D
:1008F000694600201A46FFF761FF9DF800000228B4
:1009000025D11B4902230822083101202CE0206850
:10091000401C20600123694600201A46FFF74EFF65
:100920009DF80000022812D111490323082210313A
:10093000012019E02068401C206001236946002046
:100940001A46FFF73BFF9DF80000022807D06E60B3
:100950002E602068032801D101206060F8BD0449A1
:100960000423082218310120FFF728FFF1E70000D7
:100970005C36002078000020704738B504460068D7
:1009800000F58050816941F480118161206800F593
:10099000805080690090012000F0F6FB20680099EB
:1009A00000F58050816138BD2DE9F041044621B148
:1009B0004FF40061C800C4E90201E0690025002885
:1009C00062D028462368D4E9021C3A4F40261A68B0
:1009D00041EA0C0101433A4041F4007010431860B1
:1009E00020680768012000F0CFFB206807602068BE
:1009F000466020684668012000F0C6FB20684FF67C
:100A000041724660206885602068C56021688869F9
:100A1000104040F08000886120688669012000F065
:100A2000B3FB206886612068C5612068C569012024
:100A300000F0AAFB2068204B2049C561206800F522
:100A4000805082691A4011438161206800F580500E
:100A50008569012000F098FB2068194900F5805055
:100A60008561206800F580500160206800F58050A5
:100A70000568012000F088FB206800F580500560C3
:100A8000A069012803D009E04FF480609AE720684C
:100A90000C4A00F58050C1691143C16160690A497F
:100AA00082880A640278D0F8010042EA0020486493
:100AB000BDE8F0810F8120FF233FDEF80400200213
:100AC0008020C10240000100008002404FF400502D
:100AD00000F0DCBE054810B507F0FEFD044910200B
:100AE0000860BDE8104000F0D1BE000048020020C0
:100AF000143C0140402010B500F0C8FE802000F0FA
:100B0000C5FE4FF4807000F0C1FEBDE810404FF408
:100B1000007000F0BBBE000030B590F82020012A24
:100B200007D0022A05D0416A41F4802141620120A8
:100B300030BD3B480122D0F8003243F00103C0F839
:100B40000032D0F8003223F47C53C0F80032D0F8E1
:100B500000324C6A43EA0423C0F80032D0F81C3259
:100B60000C7D04F01F04A2409343C0F81C32CB69F3
:100B7000B3B9D0F80C329343C0F80C328C894B686F
:100B80004D6964F31F4300EBC504C4F840320C897F
:100B90000B684D6964F31F4300EBC504C4F844328D
:100BA000CB69012B16D1D0F80C321343C0F80C32AC
:100BB0000C884B684D6964F31F4300EBC504C4F80F
:100BC00040320C89CB684D6964F31F4300EBC504C8
:100BD000C4F844328B69002BD0F804320ED0134392
:100BE000C0F804320B69002BD0F8143208D013433C
:100BF000C0F81432096A012904D008E09343EFE7F2
:100C00009343F5E7D0F81C121143C0F81C12D0F83A
:100C1000001221F00101C0F80012002030BD0000D8
:100C20000064004070470000F0B590F82040012CAF
:100C300005D0022C03D0416A41F4802166E00468AB
:100C400000295ED02469A4075DD005684FF4D874EC
:100C500004EB01142D5915F00405956005682D5914
:100C600057D0ED08C2F8045007684FF4DA754FF416
:100C7000DC7C4FF4DE763C59002905EB0115C4F30A
:100C80004007D7600CEB011406EB0111066876599A
:100C900006F00F06166106687659C6F307269661B8
:100CA000066875594FEA15455561026812591A7060
:100CB000026812594FEA12225A70026812594FEA1A
:100CC00012429A70026812594FEA1262DA70026890
:100CD00052581A71026852584FEA12225A71026829
:100CE00052584FEA12429A71026851584FEA116104
:100CF000D971006810D0016941F020010161002024
:100D0000F0BDE4689FE7416A41F4001141620120AF
:100D1000F0BD6D0D1560A7E7C16841F02001C1600D
:100D2000EDE72DE9F05F0546006800244669D0F83C
:100D300004908768D0F80CB0D0F810A0F207D0F873
:100D4000188048D0F90714D001218160BA0703D573
:100D5000284600F000FA0CE0780702D54FF4006452
:100D600007E0380702D54FF4805402E0284600F02F
:100D7000F1F9F80516D52868BA054FF4807181603D
:100D800003D5284600F0E9F90CE0780502D544F4D3
:100D9000005407E0380502D544F4804402E02846B8
:100DA00000F0DAF9F80316D52868BA034FF4803159
:100DB000816003D5284600F0D2F90CE0780302D513
:100DC00044F4004407E0380302D544F4803402E0E0
:100DD000284600F0C3F9300707D55FEACB6004D599
:100DE0002968102044F40074C86070074FF00807A9
:100DF00007D55FEA0B7004D52868C760284600F065
:100E00006DF9B00706D52868C068800702D028466B
:100E100000F066F9700607D55FEACA6004D5296854
:100E2000102044F480640861B00607D55FEA0A70B8
:100E300004D528680761284600F05CF9F00606D55D
:100E400028680069800702D0284600F054F9B003F2
:100E500008D55FEAC96005D5296810204860284692
:100E600000F04AF9F00307D55FEA097004D5286855
:100E70004760284600F074F9300446D55FEA4970AF
:100E800040D5F00504D55FEAC87001D044F00104F4
:100E9000B00504D55FEA887001D544F002047005FE
:100EA00004D55FEA487001D544F00404300529D523
:100EB00018F0700F26D008F07000402815D006DC1E
:100EC000102809D020280AD0302816D10AE050284E
:100ED0000ED0602811D10EE044F008040DE044F07B
:100EE00010040AE044F0200407E044F0400404E069
:100EF00044F0800401E044F480742868816921F0A2
:100F000070018161296804204860002C05D0686A5E
:100F1000204368622846FFF785FEBDE8F09F70B564
:100F2000040003D094F8200010B104E0012070BD4B
:100F3000204600F081F82068016821F0020101607C
:100F400000F0A6FD0526054604E000F0A1FD401BCB
:100F50000A2811D8206840688007F6D42068016804
:100F600041F00101016000F093FD05460BE000F047
:100F70008FFD401B0A2806D9606A40F40030606289
:100F800084F82060D2E720684068C007EFD0207E58
:100F90000128206801683DD021F080010160607E59
:100FA00001282068016838D021F040010160A07E4E
:100FB00001282068016833D021F020010160E07E23
:100FC0000128206801682ED041F010010160207FC7
:100FD00001282068016829D021F008010160607FA4
:100FE00001282068016824D021F004010160D4E9BF
:100FF0000110D4E903326569491E184323682A4366
:10100000104300220843D8610121626284F8201055
:10101000104670BD41F08001C0E741F04001C5E7D6
:1010200041F02001CAE721F01001CFE741F00801AB
:10103000D4E741F00401D9E7F0B587B004461421A4
:101040006846FFF727F92149206888423CD12048AB
:10105000016841F000710160006800F000700590C7
:101060001B481038016841F008010160016801F077
:1010700008010591016841F0020101600068022445
:101080000025694600F0020005900326092701208B
:101090008DE8F1000F4800F005FC200269468DE85C
:1010A000F1000D4800F0FEFB00221420114600F074
:1010B0004FFD142000F03EFD00221520114600F0E7
:1010C00047FD152000F036FD07B0F0BD006400407C
:1010D00040380240000C024000040240704700000B
:1010E000024B0021024AFFF79FBD00005000002084
:1010F00010050020704770477047000070B5044627
:1011000090F82000012804D0606A40F4002060625A
:1011100018E0022084F820002068016821F0010115
:10112000016000F0B5FC05460EE000BF00F0B0FC29
:10113000401B0A2808D9616A052041F40031616228
:1011400084F82000012070BD20684068C007EDD100
:10115000606270BD70477047704770477047704756
:10116000704790F83510022903D080214165012095
:101170007047052180F835100068016821F00101F1
:10118000016000207047000070B5044600F080FC4C
:101190000546601C02D004480078044400F078FC46
:1011A000401BA042FAD370BD800000202DE9F0431F
:1011B00090F845400025012C0DD04FF0010980F832
:1011C0004590022644F2F45780F844605E1E4FF0CA
:1011D000004C816217E00220BDE8F083C5EBC51822
:1011E00001EB451408EB480802EB8808C4F800C07E
:1011F000B542C4E9017804D204F12008C4F80C8097
:1012000000E0E1606D1C9D42E8D30368002403F513
:101210008053D96080F8449080F845402046DBE751
:101220002DE9F04390F8454091460022012C09D069
:10123000C1620126022480F845605D1E80F84440AA
:10124000E70422E00220BDE8F08300BFC2EBC21435
:1012500004EB440801EB421409EB880C2760C4F846
:1012600008C0D0F81CC0BCF1000F05D1D4F800C0F4
:101270004CF4400CC4F800C0AA4204D204F1200C83
:10128000C4F80CC000E0E160521C9A42DED3026850
:10129000002302F58052116180F8446080F84530E7
:1012A0001846D0E710B590F84510012913D0012257
:1012B00080F84520022180F844100023816A0C68E0
:1012C000002C28DB0C68E40519D5846B641C84634E
:1012D000012C02D002E0022010BD016341630C68C2
:1012E000C4F30D44241FC463046BA4680464C96878
:1012F000816280F8442080F84530002010BD0C68E1
:10130000A40503D58263C0E90C1302E0846B641C5E
:101310008463C968816280F8442080F845300120E8
:1013200010BD00002DE9FC474FF000060400B14657
:10133000009603D094F8440018B107E00120BDE8FE
:10134000FC87204684F8456000F0E4F867480168AF
:1013500041F480410160006800F4804001906448DD
:10136000016821F4000101600168226A11430160F3
:10137000206800F58050016841F00101016000F033
:1013800087FB4FF4FA77054609E000BF00F080FBC9
:10139000401BB84203D9032084F8440068E0206869
:1013A00000F580500068C007F0D12068006920F087
:1013B0001C0500F051FF4F4A4F4902448A4202D2B5
:1013C00045F0080516E04D494D4A0144914202D2CC
:1013D00045F00C050EE04B4A4B4902448A4209D3C2
:1013E0004A4A4B491044884202D245F0040501E0C4
:1013F00045F010052068056100214FF400422046A9
:1014000000F004FA4FF00105B0BBFF20FFF7BCFE6F
:10141000606890B300F03CFB804641F288370121C0
:101420006A46204600F0E4F800F032FBA0EB08002A
:10143000B84217D800984007F1D5002120464FF454
:10144000805200F0E3F9B8B900F022FB80466A460A
:101450000121204600F0CCF800F01AFBA0EB0800B8
:10146000B8420BD901212046FFF79EFA84F8445078
:10147000032084F8456062E724E018E000988006C5
:10148000E5D51F216A46204600F0B2F8D0B9009891
:10149000C10603D54FF40061E16000E0E66040075B
:1014A00001D5A66019E04FF48040A06015E0D4E9B2
:1014B0000210C00840EA510082B22046002100F02C
:1014C000A5F930B101212046FFF76EFA84F84450A7
:1014D00034E740F6FF70FFF757FE49462046FFF716
:1014E00063FA84F84450002029E7000044380240A1
:1014F0000438014000D3CEFEC0E1E40040F1E9FD34
:1015000040787D0100796CFC005A6202001F0AFAE3
:1015100080F0FA02F0B5006887B02F49884259D1AF
:101520002E48016841F000710160016801F000710E
:101530000591016841F080610160016801F08061FE
:101540000591016841F000610160016801F00061EE
:101550000591016841F004010160016801F0040196
:101560000591016841F001010160016801F001018C
:101570000591016841F002010160016801F002017A
:101580000591016841F040010160006802240025D6
:10159000694600F04000059003260B2732208DE8B5
:1015A000F1000F4800F07EF9862069468DE8F100D1
:1015B0000C4800F077F9200369468DE8F1000A48ED
:1015C00000F070F94FF4205069468DE8F1000748AB
:1015D00000F068F907B0F0BD0080024030380240EA
:1015E00000080240000002400004024000180240CF
:1015F0002DE9F047044690F84400914682281DD01A
:1016000082224FF6FF7084F844204FF4F86322687A
:1016100003EA8111258A136900EAC52003F01C033F
:101620001843014321F0020040F00105156100F06C
:101630002FFA012706464FF4803811E00220BDE85A
:10164000F08700BF00F024FA801B404506D300203D
:1016500084F8447084F845000320F0E720680569A9
:10166000E807EFD12068406981B2C9F8001084F81A
:1016700044700020E3E7F8B5044690F845000128DF
:1016800039D0012584F84550022084F844002068B0
:101690000026016841F008010160206800680090A0
:1016A0002846FFF771FD21680098086020680168EE
:1016B00041F0040101602068006800900120FFF7FC
:1016C00063FD2168009808602046FFF756F92068FE
:1016D00000F58050816941F400518161206800F576
:1016E0008050816941F00201816184F844500020FA
:1016F00084F84560F8BD0220F8BDF0B590F84520AB
:101700000023012A13D0012680F84560022280F8C8
:1017100044204FF0000561B1C76A3A68002A0BDA2D
:10172000122180F8441080F845500120F0BD0220BD
:10173000F0BD80F84460F6E740F2F454A1420BD9C2
:10174000B1FBF4F204FB121CB1FBF4F2BCF1000F8C
:1017500000D0521C012A45D13A68C1F30C0142F075
:1017600040523A60C26A5160C16A0A6842F000425F
:101770000A60C16AC968C16236E0D7F800C02CF0BF
:10178000405CC7F800C033B9C76AD7F800C04CF056
:10179000805CC7F800C0D0F82CC0571EBB42CCF804
:1017A000044014D1C76AC2F1010ED7F800C0CEEBD5
:1017B000CE1E4CF0005CC7F800C00EEB4E0ED0F809
:1017C0002CC001EB8E07C7F30C07CCF80470C76A76
:1017D000D7F800C04CF0004CC7F800C0C76A5B1CCB
:1017E000FF68C7629342C8D3016801F580514A6916
:1017F000520705D504224A61016801F580514D6008
:1018000080F8446080F845500020F0BD2DE9F0419B
:10181000044690F8440042281ED042204FF6FF7341
:1018200084F8440096B220684FF4F867258A07EAE6
:1018300081110269466103EAC520236802F01C0297
:101840001043014341F003051D6100F021F9012718
:1018500006464FF4803811E00220BDE8F08100BF59
:1018600000F016F9801B404506D3002084F8447030
:1018700084F845000320F0E720680569E807EFD108
:1018800084F84470E9E7FFF709B80000044910B58F
:101890000A68024202D00860FFF7F5FF10BD0000A1
:1018A000143C01402DE9F84FDFF89CE100224FF095
:1018B00001084FF0030B4FF00F0A00BF0B6808FA46
:1018C00002F42340A34271D14D68022D01D0122DA4
:1018D0000FD1D5080E69570700EB8505A9462D6A7B
:1018E000FF0E0AFA07FCBE4025EA0C052E43C9F894
:1018F00020600F79550006680BFA05FC07F0030716
:1019000026EA0C06AF40374307604E68012E05D02B
:10191000022E03D0112E01D0122E0ED18668CF6870
:1019200026EA0C06AF403743876046680F79A64326
:10193000C7F30017974037434760C4688E6824EAAE
:101940000C04AE402643C6604C68E40075D53F4C9D
:10195000256845F480452560246822F00306950734
:1019600004F4804400943A4C2D0F2644D6F80848DD
:10197000DFF8E0C00AFA05F7604524EA070401D160
:1019800000272EE0344FB84201D1012729E0334F20
:10199000B84201D1022724E0314FB84201D10327D8
:1019A0001FE0304FB84202D104271AE045E02E4F25
:1019B000B84201D1052714E02C4FB84201D10627C7
:1019C0000FE02B4FB84201D107270AE0294FB84258
:1019D00001D1082705E0284FB84201D1092700E0CE
:1019E0000A27AF4027437546C6F808784E68DEF8E8
:1019F0000040F60324EA030400D51C43124E2C6079
:101A0000361D4D683468AD0324EA030400D51C4339
:101A10000D4F346008374D683C68ED0224EA03043A
:101A200000D51C43084D3C600C354E682C68B6024E
:101A300024EA030400D51C432C60521C102AFFF436
:101A40003DAFBDE8F88F0000003C01404438024043
:101A50000030014000000240000402400008024043
:101A6000000C024000100240001402400018024026
:101A7000001C02400020024000240240006908408F
:101A800000D0012070470AB1816170470904FBE76B
:101A9000014880687047000080000020024881688B
:101AA000027811448160704780000020032010B547
:101AB00000F06EF8002000F005F800F023F8002098
:101AC00010BD000070B50D4D04464FF47A700C4AFD
:101AD00029781268B0FBF1F0B2FBF0F001F040F8A9
:101AE00048B9102C07D200222146501E00F030F8D1
:101AF00000206C6070BD012070BD000080000020DF
:101B00008C0000200A4808B5016841F0805101604E
:101B1000006800F0805000900548001D016841F405
:101B200080410160006800F48040009008BD000022
:101B300040380240002809DB410900F01F028900FB
:101B4000012001F1E0219040C1F800017047000040
:101B50000E4BF0B41B680D46C3F30223C3F1070616
:101B6000042E00D90426191D072901D2002300E004
:101B7000DB1E012404FA06F19C40491E2940641E24
:101B8000994014402143F0BC02F084BC0CED00E00D
:101B9000064900F0070210B54FF6FF040868044B31
:101BA000204040EA02201843086010BD0CED00E020
:101BB0000000FA051848F8B5016841F0805101604D
:101BC0000068164C00F080500090206840F480308F
:101BD0002060FFF75DFF4FF47A76054605E000BF11
:101BE000FFF756FF401BB0420FD86068C003F7D51F
:101BF000206840F400302060FFF74AFF054606E009
:101C0000FFF746FF401BB04201D90320F8BD6068D2
:101C10008003F5D50020F8BD403802400070004038
:101C20000248016841F48071016070470070004013
:101C30002DE9F84F04460078DFF824944FF00006B1
:101C40003746C0070ED0D9F8001021F40001C9F8BA
:101C50000010D9F80010626B1143C9F80010606BD6
:101C600000B90126FE4D2068843500030ED5E16BD6
:101C7000286820F4401008432860E06BB0F5801F0E
:101C800001D010B102E0012600E0012720684FF4E6
:101C9000800BC0020CD5216C286820F4400008435A
:101CA0002860206C584501D1012601E000B90127C8
:101CB0002068C10100D50126800666D5E848383085
:101CC000016841F0805101600068DFF898A300F0DE
:101CD00080500090DAF8001041F48071CAF80010CA
:101CE000FFF7D6FE804605E0FFF7D2FEA0EB080026
:101CF00064287DD8DAF80000C005F5D5DFF86083E8
:101D000008F16808D8F8000010F440702AD0218E3D
:101D100001F44071814225D0D8F80010D8F8002095
:101D200021F4407142F48032C8F80020D8F8002035
:101D300022F48032C8F80020C8F80010D8F800005B
:101D4000C0070FD0FFF7A4FE824607E0FFF7A0FE12
:101D5000A0EB0A0141F288308142CAD8D8F80000CD
:101D60008007F3D5206BC0F3012103297ED0D9F879
:101D7000001021F4F811C9F80010228ED8F80010D4
:101D8000C2F30B021143C8F800102078C00607D533
:101D9000286820F0807028602868A16B08432860BC
:101DA0002188AF488830490405D5626E016821F466
:101DB0004031114301602188090405D5A26E0168F4
:101DC00021F44021114301602168C90305D5E26E69
:101DD000016821F44011114301602168890305D590
:101DE000226F016821F4400111430160217800E075
:101DF00018E1490605D5626C016821F00301114321
:101E000001602178090605D5A26C016821F00C015A
:101E1000114301602188C90505D5E26C016821F0F4
:101E20003001114301602188890505D5226D0168C3
:101E300021F0C001114301602188490505D5626D7B
:101E4000016821F44071114301602188090505D51D
:101E5000A26D016821F44061114301602188C90429
:101E600007D5E26D016821F4405100E041E01143E3
:101E700001602188890405D5226E016821F4404162
:101E8000114301602168490205D5A26F016821F064
:101E900080611143016021684FF0006A890209D511
:101EA000E26F016821F0006111430160E16F51456B
:101EB00000D1012721680A0700D50127490305D56C
:101EC000626F016821F040711143016021680902CD
:101ED00006D5D4F88020016821F0805111430160BB
:101EE000DFF88491012E0ED02068B0F1007F0AD077
:101EF0008FE05E4AD9F80030104023F4F812024314
:101F0000C9F8002039E7D9F800004E4620F080607B
:101F1000C9F80000FFF7BCFD804605E0FFF7B8FDFB
:101F2000A0EB080064287DD830680001F6D4217841
:101F30004B487C30C90712D0616B81B9237A626843
:101F40000168D0F800C09201C1F3014142EA0142A8
:101F5000CCF3036142EA016141EA03710160216847
:101F60000A0303D5E26BB2F5801F04D0C9021AD56B
:101F7000216C594517D16368016894F80CC0026858
:101F80009B01C1F3014143EA0141C2F3027241EAFC
:101F90000C6141EA027101602968626A21F01F0147
:101FA000521E114329602168C90110D5238A626835
:101FB0000168D0F800C09201C1F3036142EA034214
:101FC00042EA0162CCF3027142EA017101602168C8
:101FD00089010CD56168228A237B94F808C08901A5
:101FE00041EA024141EA036141EA0C710160316852
:101FF000B04641F080613160FFF74AFD064604E0DB
:10200000FFF746FD801B64280CD8D8F800000001BB
:10201000F6D56FB3D9F800004E4620F08050C9F8CD
:10202000000000E079E0FFF733FD074605E000BF60
:10203000FFF72EFDC01B64286FD83068C0438000B6
:10204000F6D50748216880300A0301D5E26B1AB142
:10205000C90225D5216C19BB63690168277E08E098
:10206000083802400070004000380240FFFCFF0FBB
:102070005AE00268C1F301419B0143EA0143C2F304
:10208000027143EA076242EA0171016029686FF058
:10209000FF03A26A21F4F85103EB022211432960E5
:1020A0002168890212D5E16F51450FD1238C6269F5
:1020B000016807689201C1F3036142EA034242EA00
:1020C0000162C7F3027142EA0171016021780907D8
:1020D00016D561690268D0F800C08B01277FC2F372
:1020E0000362CCF3014143EA014141EA026141EA62
:1020F000077101602868E16A20F4403008432860D5
:10210000306840F080503060FFF7C2FC044607E0C2
:10211000FFF7BEFC001B642802D90320BDE8F88F3E
:102120003068C0438000F3D40020F7E72DE9F04782
:1021300005000F4663D0444E306800F00F00B842EF
:1021400009D2306820F00F0038433060306800F06A
:102150000F00B84253D128683C4C810712D5400784
:1021600003D5206840F4E05020602878000703D5AC
:10217000206840F460402060A968206820F0F000EA
:10218000084320602878C0072AD030496868083999
:10219000012810D00968022810D0890700292EDAFA
:1021A000216821F0030101432160FFF771FC8046A3
:1021B00041F288390DE009688903EFE78901EDE70D
:1021C000FFF766FCA0EB0801494502D90320BDE8F2
:1021D000F0876868216801F00C01B1EB800FEFD146
:1021E000306800F00F00B8420BD9306820F00F00C3
:1021F00038433060306800F00F00B84201D0012051
:10220000E5E72878400705D5E968206820F4E05024
:10221000084320602878000706D52869216821F442
:10222000604141EAC000206000F03CF82168084AA3
:10223000C1F30311515CC840064908600020FFF754
:1022400041FC0020C3E70000003C02400838024087
:1022500024C000088C00002001480068704700007E
:102260008C0000200449054809680068044AC1F34D
:102270008221515CC8407047083802408C00002021
:1022800034C000080449054809680068044AC1F3DD
:102290004231515CC8407047083802408C00002031
:1022A00034C00008154910B51548096811F00C0232
:1022B00013D04110042A0FD0082A0ED10F4C241F2E
:1022C0002268236802F03F025B0207D52068C0F352
:1022D0008810A0FB010106E0084610BD2168C1F38B
:1022E0008811A1FB00010023FDF78AFF2168C1F3DB
:1022F0000141491C4900B0FBF1F010BD0838024013
:102300000024F4002DE9F84F05004FF000076ED0CF
:102310002878DFF81C93A9F1040AC007AAF1040485
:102320004CD0D9F800104846C1F38101012908D0EA
:102330000068C0F3810002280AD1DAF800004002E8
:1023400006D52068800339D568680028DFD035E0DD
:102350006868B0F5803F0BD010B1B0F5A02F11D058
:10236000206820F480302060206820F4802002E083
:10237000206840F480302060686890B1FFF788FBE7
:1023800006460AE0206840F480202060F0E700BFA5
:10239000FFF77EFB801B642872D820688003F7D586
:1023A0000CE0FFF775FB064605E000BFFFF770FB8A
:1023B000801B6428F0D820688003F7D42878800731
:1023C00042D5D9F80010484611F00C0F08D000682B
:1023D000C0F3810002280BD1DAF80000400207D4D4
:1023E0002068800718D5E868012800D114E01CE1B6
:1023F000E8680028206817D040F001002060FFF74F
:1024000047FB064605E000BFFFF742FB801B0228A2
:10241000C2D820688007F7D52869216821F0F80123
:1024200041EAC00020600FE020F001002060FFF7CB
:102430002FFB064605E000BFFFF72AFB801B0228A2
:102440001ED820688007F7D42878000729D5784857
:1024500069696C3000298046016812D041F00101A1
:102460000160FFF715FB064605E000BFFFF710FB14
:10247000801B022804D8D8F800008007F6D510E0A9
:1024800089E021F001010160FFF702FB064604E04C
:10249000FFF7FEFA801B02287DD8D8F800008007DD
:1024A000F6D4287840076BD5DFF8848108F1380826
:1024B000D8F80000C0000BD4D8F8001041F08051CB
:1024C000C8F80010D8F80000012700F080500090F4
:1024D00058480168C90512D40168834641F48071E7
:1024E0000160FFF7D5FA064605E000BFFFF7D0FA16
:1024F000801B64284FD8DBF80000C005F6D54C4E91
:10250000A868683601280AD008B1052811D03068BB
:1025100020F001003060306820F0040002E03068F4
:1025200040F001003060A868A0B1FFF7B1FA83461F
:102530000CE0306840F004003060F0E7FFF7A8FAE4
:10254000A0EB0B0141F28830814266D830688007E9
:10255000F4D50EE0FFF79CFA834607E0FFF798FA00
:10256000A0EB0B0141F28830814256D830688007D9
:10257000F4D42FB1D8F8001021F08051C8F8001021
:10258000A869C8B3D9F80010C1F3810102294CD061
:102590000228206800E040E020F08070206003D036
:1025A000FFF776FA05463BE0FFF772FA064604E0CD
:1025B000FFF76EFA801B02282FD820688001F7D41D
:1025C000D5E90962D5E907011B4B570895F82C207E
:1025D000084303EB074343EA8611084340EA0260DD
:1025E00040F00050CAF80000206840F08070206081
:1025F000FFF74EFA054606E015E000BFFFF748FA80
:10260000401B022809D820688001F7D50BE000BFE5
:10261000FFF73EFA401B022802D90320BDE8F88FDD
:1026200020688001F4D40020F8E70120F6E70000DC
:1026300008380240007000400000FFFF70470000B3
:1026400038B5016804464A688868C043430606D521
:10265000C30704D1D3435B0601D4E16C05E08307D3
:1026600008D4D3431B0605D4216D01B02046BDE834
:1026700030400847830603D5430601D5C30552D42D
:10268000D3439B064FD443060AD494F85D30032B02
:102690004AD0236E43F004032366CB688B68009313
:1026A000830609D4236E43F0010323668B680093ED
:1026B0000B6823F040030B60C00506D4206E40F089
:1026C00008002066206880680090206E00282AD0CC
:1026D000206893074FF00101436823F0E003436053
:1026E00084F85D1001D4D00722D02068124D4168D3
:1026F00021F003014160A06D40B10565A06DFEF7BA
:1027000030FD18B1206E40F040002066606D00285A
:1027100009D00565606DFEF724FD002803D0206E0A
:1027200040F04000206638BDC8688868009038BD19
:102730002046FFF783FF38BD153A00082DE9F04722
:10274000040005D094F85D000025A56218B107E0EB
:102750000120BDE8F087204684F85C5000F050F876
:10276000022284F85D204FF4E0632068016821F0C4
:1027700040010160E068984201D9002101E04FF476
:102780008051B0F5706F02D0984200D0A5624FF032
:102790000109266B2EB9984201D9226301E0C4F8E1
:1027A0003090D4E90468D4E90102278B46EA080690
:1027B000A36A104307F4007830432668D4E907C2BF
:1027C00040EA080040EA0C00CC46042710431843B6
:1027D0003060D4F81880666B606AE26807EA1847D0
:1027E000236830433A431043084358602068C16966
:1027F00021F40061C161256684F85DC00020A8E76E
:102800002DE9F04186B0074614216846FDF742FDE8
:1028100038680025354A022433490326DFF8D08082
:102820000527904232D130481430026842F4805279
:102830000260006800F480500590086840F00100D4
:102840000860086800F001000590086840F0020088
:1028500008600868694600F00200059060208DE875
:10286000F1002448FFF71EF8202069468DE8F100AA
:102870004046FFF717F8002223201146FFF768F9BA
:102880002320FFF757F906B0BDE8F0811A4A9042BD
:10289000F9D115481030026842F4804202600068A5
:1028A00000F480400590086840F004000860086863
:1028B00000F004000590086840F002000860086815
:1028C000694600F0020005900C208DE8F1000B48ED
:1028D000FEF7E8FF4FF4806069468DE8F10040465E
:1028E000FEF7E0FFCFE70000303802400030014043
:1028F000000402400000024000380040000802408E
:102900002DE9F05F8B4690F85C1000271D460A9E6B
:102910000129924604464FF001090ED0012084F8A7
:102920005C00FFF7B5F8804694F85D006168012807
:102930000CD0B1F5827F07D102E00220BDE8F09F04
:10294000A16809B9042801D00227FFE0BBF1000FFC
:1029500024D0BAF1000F21D005B394F85D0004280B
:1029600002D0052084F85D00A4F844500020A5871B
:102970004FF4E062C4F838B0C4F840A0E1682066C3
:102980009142E0642065A4F84650E58701D8012D06
:1029900006D92068416821F4805105E00127D5E07F
:1029A0002068416841F4805141602068016849060F
:1029B00003D4016841F040010160E0689042606822
:1029C00045D908B1012D3AD1A06B21680088C860B3
:1029D000A06B801CA063E08F401EE0872FE0206882
:1029E000816889070FD5E18F69B1B9F1010F0AD16B
:1029F000A26B4FF000091188C160A06B801CA0631E
:102A0000E08F401EE08720688168C9070FD0B4F8C6
:102A1000461061B1C0684FF00109226C1080206C33
:102A2000801C2064B4F84600401EA4F84600FFF75E
:102A30002FF8A0EB0800B04201D3701C74D1E08FD6
:102A40000028CCD1B4F846000028C8D175E008B100
:102A5000012D6BD1E08F21680128A06B07D9008878
:102A6000C860A06B801CA063E08F801E06E0007829
:102A70000873A06B401CA063E08F401EE08755E008
:102A80002068816889071AD5E18FC1B1B9F1010FBA
:102A900015D1E18F0129A16B07D90988C160A06B0D
:102AA000801CA063E08F801E06E009780173A06B94
:102AB000401CA063E08F401EE0874FF000092068B3
:102AC0008168C90728D0B4F8461029B3B4F8461075
:102AD000012914D9C068216C0880206C801C2064F6
:102AE000B4F84600801EA4F84600B4F84600012859
:102AF00010D82068416841F4805141600AE0007BB1
:102B0000216C0870206C401C2064B4F84600401E04
:102B1000A4F846004FF00109FEF7BAFFA0EB080049
:102B2000B04202D3701C01D018E0BEB1E08F002883
:102B3000A6D1B4F846000028A2D14246314620462C
:102B400000F071FF10B1202020660127012084F8D9
:102B50005D000021384684F85C10EFE60327F5E7B6
:102B6000401EB0F1807F10B501D3012010BD4FF0A1
:102B7000E02460610F21601701F08CFC0020A0614F
:102B80000721216110BD70477047704770B590F8FC
:102B90003C20012A24D0134C012580F83C5002220D
:102BA00080F83D2002685368A242966802D00E4C1D
:102BB000A24203D14C6823F4700323430C6823F032
:102BC000700389681C435460002326F08006026865
:102BD0003143916080F83D5080F83C30184670BD1C
:102BE000022070BD000001400004014010B5040047
:102BF00003D094F83D0010B107E0012010BD002083
:102C000084F83C00204600F00DF8022084F83D00D6
:102C10002068211D01F072F8012084F83D00002099
:102C200010BD000008B500680B49884212D10B485E
:102C3000016841F00101016000680022114600F0C6
:102C4000010000901920FEF783FFBDE8084019201D
:102C5000FEF770BF08BD000000000140443802408C
:102C60000A4B022180F83D1001688A681A40062A42
:102C700006D0B2F5803F03D00A6842F001020A6034
:102C8000012180F83D10002070470000070001007E
:102C90000168094ACB6843F00103CB60016888688A
:102CA0001040062806D0B0F5803F03D0086840F0F9
:102CB00001000860002070470700010070B504465D
:102CC00090F83C00012817D0324B012584F83C5085
:102CD000022084F83D0022689068184020F47F406C
:102CE00090600868502830D00DDC20284DD005DCDD
:102CF00098B310283BD148E0022070BD302844D062
:102D0000402834D139E0602828D0702806D0B0F5AA
:102D1000805F2CD0B0F5005F29D10AE04A682068B6
:102D2000D1E9021301F05DF82068816841F0770174
:102D300009E04A682068D1E9021301F052F82068DE
:102D4000816841F48041816011E0CA684968206867
:102D500001F08EF92068502107E016E0CA68496842
:102D6000206801F096F92068602101F043F8002006
:102D700084F83D5084F83C0070BDCA6849682068FA
:102D800001F076F920684021EFE7226801461046FD
:102D9000EBE7000088FFFEFF2DE9F04104000D463F
:102DA00003D094F83D0018B108E00120BDE8F0819F
:102DB000002084F83C00204600F042F81F4A022020
:102DC00084F83D0020688168114081602068211DE1
:102DD00000F094FF226840F20336AF6940F60C4CD5
:102DE0002B684FF2F00EA86891680B439169B143CC
:102DF00041EA07210843D5E9031720EA0C00D5E989
:102E0000076C20EA0E00D2F820E03F0140EA0626D7
:102E100068686D69314347EA0C37936023680F4354
:102E200001229F612EF0AA0141EA0513216818438F
:102E3000086284F83D200020B8E70000F8BFFEFFDC
:102E400010B586B0044614216846FDF723FA1749E9
:102E50002068884227D11648016841F004010160CA
:102E6000006800F00400059011481038016841F036
:102E700008010160006800214FF4405200F0080092
:102E8000059002200092CDE90101CDE90310094827
:102E90006946FEF707FD00221E201146FEF758FE88
:102EA0001E20FEF747FE06B010BD000000080040DF
:102EB00040380240000C0240704770B5044600687C
:102EC00000250169C943890715D4C168C943890729
:102ED00011D4EA1E026101212177206880698007F0
:102EE000204602D0FFF7E8FF04E000F0E3F82046B8
:102EF00000F0AEF9257720680169C943490717D466
:102F0000C168C943490713D402216FF0040202616A
:102F100021772068806910F4407F204602D0FFF7B7
:102F2000CBFF04E000F0C6F8204600F091F92577C9
:102F300020680169C943090716D4C168C943090754
:102F400012D404216FF00802026121772068C06961
:102F50008007204602D0FFF7AFFF04E000F0AAF898
:102F6000204600F075F9257720680169C943C90634
:102F700017D4C168C943C90613D408216FF01002E1
:102F8000026121772068C06910F4407F204602D09A
:102F9000FFF792FF04E000F08DF8204600F058F9AA
:102FA000257720680169C943C90708D1C168C943A9
:102FB000C90704D1891E0161204600F071F920681B
:102FC0000169C943090609D4C168C943090605D482
:102FD0006FF0800101612046FFF7D6FD206801698E
:102FE000C943C90509D4C168C943090605D46FF4AA
:102FF000807101612046FFF7C6FD20680169C94361
:10300000490609D4C168C943490605D46FF0400197
:103010000161204600F045F920680169C94389062D
:103020000BD4C168C943890607D46FF02001016140
:103030002046BDE87040FFF7A8BD70BD30B587B031
:10304000044614216846FDF725F924680021164A34
:1030500002231648B4F1804F15D0154DAC4210D163
:10306000146844F002041460126802F0020205922F
:1030700010220092CDE90131CDE903136946FEF734
:1030800011FC07B030BD146844F0020414601268EB
:10309000012402F0020205924FF400620092CDE991
:1030A0000131CDE90314E9E7303802400004024061
:1030B00000040040704770B5044690F83C000D468F
:1030C00001280ED0012684F83C60022084F83D00DF
:1030D0000C2A45D007DC5AB1042A1BD0082A78D123
:1030E0002CE0022070BD102A4ED0142A71D15DE070
:1030F000206800F087FE2068816941F00801816145
:103100002068816921F00401816120682A69816950
:10311000114311E0206800F0AFFE2068816941F49E
:10312000006181612068816921F48061816120688A
:103130002969826942EA012181614AE0206800F040
:10314000D7FE2068C16941F00801C1612068C169EA
:1031500021F00401C16120682A69C169114311E0AD
:10316000206800F001FF2068C16941F40061C1617D
:103170002068C16921F48061C16120682969C26940
:1031800042EA0121C16124E0206800F019FF2068B3
:10319000416D41F0080141652068416D21F0040155
:1031A000416520682A69416D114311E0206800F0F3
:1031B00033FF2068416D41F4006141652068416D35
:1031C00021F48061416520682969426D42EA01214C
:1031D0004165002084F83D6084F83C0070BD10B566
:1031E000040003D094F83D0010B107E0012010BDA9
:1031F000002084F83C00204600F00CF8022084F8FF
:103200003D002068211D00F079FD012084F83D007B
:10321000002010BD08B501680B48B1F1804F0BD0FC
:103220000A4A914207D1016841F002010160006839
:1032300000F00200009008BD016841F0010101604A
:10324000006800F00100F5E740380240000400404B
:103250007047000010B501220446006800F0B4FD7C
:103260000C492068884202D00B49884203D1416C46
:1032700041F4004141642068084A816811400629F0
:1032800006D0B1F5803F03D0016841F00101016033
:10329000002010BD000001400004014007000100B3
:1032A0007047704710B5040002D0606F10B107E09E
:1032B000012010BD002084F87000204600F026F8A0
:1032C000242060672068016821F001010160204628
:1032D00000F074FF0128ECD0606A10B1204600F0C5
:1032E000EAFE2068416821F49041416020688168CD
:1032F00021F02A0181602068016841F0010101602C
:103300002046BDE8104000F03ABF00002DE9F04132
:1033100086B0064614216846FCF7BCFF2848002505
:1033200032680224274B103825490326DFF898809D
:103330009A4224D10A6842F480120A60096801F4B2
:1033400080110591016841F004010160016801F0FC
:1033500004010591016841F0080101600068082737
:10336000694600F00800059098148DE8F1001748B0
:10337000FEF798FA042069468DE8F1001AE0144B34
:103380009A421AD10A6842F480220A60096801F45C
:1033900080210591016841F0080101600068072162
:1033A00000F008000590CDE903614FF440706946D4
:1033B0008DE831004046FEF775FA06B0BDE8F081B1
:1033C0004038024000500040000C0240000802401B
:1033D00000480040FEE70000104A90ED000A82ED30
:1033E000000A90ED010A82ED010A90ED020A82EDD9
:1033F000020A91ED000A82ED030A91ED010A82EDC5
:10340000040A91ED020A82ED050A91ED030A0349CF
:1034100082ED060A1C22002005F040B94001002080
:10342000F0B58BB015490020134B012203901224F4
:10343000150608925604059017050090CDE906027E
:1034400001F1080201900290049082E8E100C1E9D4
:103450000034087648768876C87608774877084634
:10346000FDF75DFD05486946FDF756FB0348FDF78E
:1034700045FE0BB0F0BD00000064004020020020BB
:103480002DE9F04F87B014216846FCF703FF784818
:10349000016841F004010160016801F00401059137
:1034A000016841F020010160016801F020010591EF
:1034B000016841F080010160016801F0800105911F
:1034C000016841F001010160016801F0010105910D
:1034D000016841F002010160016801F002010591FB
:1034E000016841F010010160016801F010010591CF
:1034F000016841F008010160016801F008010591CF
:10350000016841F040010160006845F21005DFF8F4
:1035100064A1002200F04000294605905046FEF7C5
:10352000B2FADFF854B144F28118002241465846FD
:10353000FEF7A9FA4FF48069504800224946FEF789
:10354000A2FA4F4800227421FEF79DFA4D4800224E
:10355000C021FEF798FA4C4F4FF400500024694602
:103560000294CDE900074948FEF79CF90095012532
:10357000CDE90154694650460394FEF793F90226BB
:1035800069464FF420708DE851005046FEF78AF9E5
:10359000102000903E486946DFF8F8A0CDE901040C
:1035A0005046FEF77FF9CDF800806946CDE9015419
:1035B00058460394FEF776F9CDF800906946CDE9B8
:1035C00001542E480394FEF76DF974200090CDE964
:1035D00001542B4869460394FEF764F9802069463C
:1035E000CDE9000426480294FEF75CF94FF47070B0
:1035F0006946CDE9000725480296FEF753F90A22ED
:10360000029403214FF4E850CDE90312CDE90006FE
:1036100069465046FEF746F968026946CDE900045E
:1036200050460294FEF73EF9C0200090CDE90154C7
:10363000144869460394FEF735F900220A20114622
:10364000FEF786FA0A20FEF775FA002217201146C7
:10365000FEF77EFA1720FEF76DFA002228201146A9
:10366000FEF776FA2820FEF765FA07B0BDE8F08F7E
:1036700030380240001402400004024000100240B2
:1036800000180240000C0240000011100008024027
:103690000000311000000240FEB5394CC027A823BD
:1036A000251D3222277064216370FF20A2702F1D18
:1036B000E170002628706870A870EE703E707E7011
:1036C000BE70FE7003F04CFA2068E1782D4A90FA43
:1036D00080FC2D4B90FA80FE00BA0C060CF47F4C57
:1036E000084344EA0C240EF47F0CA5F1100144EACF
:1036F0001C2444EA106008602868E97890FA80FC8D
:1037000005BA00BA0C06084305F47F450CF47F0C9B
:10371000A7F1100144EA052444EA1C2444EA10609D
:1037200008603868F97805BA07BA00BA0C06084389
:10373000134905F47F45091F07F47F0744EA052470
:1037400044EA172444EA106008600096CDE901328B
:103750000A1F0E480B46083903F022FE0B4803F0FF
:10376000C3FE0A4890F82B004007084803D5BDE87F
:10377000FE4003F0F5BEBDE8FE4003F0BBBE000016
:103780006400002041530008D9540008440500207B
:10379000034810B501F0E4FEBDE8104004F0F8BFA6
:1037A000440500200C48002130B40A4C4FF4E0627C
:1037B000C0E900416315C0E9021201610724C0E9B4
:1037C000051301624162C0E90A140163416330BC20
:1037D000FEF7B4BF0030014048020020F0B40F48AB
:1037E0004FF4E06400210C4E4FF482751023C0E9C1
:1037F000021401617215E0E805650724082580E8D8
:103800000E00C1600161C0E90514C0E90715F0BCF4
:103810000248FEF793BF000000380040AC020020D1
:1038200010B588B01348002411498F2240F2E733C5
:10383000059406940394049400940194029480E8FF
:103840001600C0E9033444618461FFF7CFF94FF4F7
:1038500080500390074803A9FFF730FA05486946EE
:10386000009401940294FFF791F908B010BD000094
:10387000000001401003002010B58AB00024684603
:103880001C21079408940994FCF704FD11484FF497
:10389000E15109224FF08043C0E902410461846193
:1038A000C0E90032FFF79BFC0A4807A90794099476
:1038B000FFF76CF960206946CDE9000405480C2249
:1038C00002940494FFF7F7FB0248FFF7B7FB0AB036
:1038D00010BD00005003002010B58AB000246846D7
:1038E0001C21079408940994FCF7D4FC11484FF468
:1038F000E15109220E4BC0E9024104618461C0E933
:103900000032FFF76CFC0B4807A907940994FFF7F6
:103910003DF960206946CDE9000406480022029482
:103920000494FFF7C8FB0348FFF788FB0AB010BDFB
:10393000000400409003002030B58DB0242168467B
:10394000FCF7A8FC1248002442F20F730F4D0994B3
:1039500001210A9403220B94C0E90054C0E90243F8
:10396000046184610092CDE9014103940494CDE99E
:103970000541694607940894FFF70EFA044809A91F
:1039800009940B94FFF702F90DB030BD0008004018
:10399000D00300200A48002130B4084C0C224FF418
:1039A000E1330460C0E90131C160C0E90412816102
:1039B000C1610162416230BCFFF774BC005000403D
:1039C000100400200A48002130B4084C0C224FF4A7
:1039D000E1330460C0E90131C160C0E904128161D2
:1039E000C1610162416230BCFFF75CBC004800402D
:1039F00090040020FEE7704770470000044810B5AF
:103A000004F0A0FEBDE810400148FEF719BE00001A
:103A10004802002010B5806B0021A0F84610C18735
:103A2000FEF70CFE10BDF8B515460E4604460B46D3
:103A30004FF4C0510092002200F019F888B900221A
:103A4000334680212046009500F05CF848B90022FA
:103A500033464FF4C0612046009500F008F8002876
:103A600004D0206E40F0200020660320F8BD2DE930
:103A7000F0474FF4C0681D4617460E46DDF820900B
:103A800004460CE0464501D107B9007B681C06D00E
:103A9000FDF7FEFFA0EB0900A84208D23DB1206867
:103AA00081683140B942EDD10020BDE8F08720683F
:103AB000416821F0E00141606068B0F5827F0BD180
:103AC000A068B0F5004F02D0B0F5806F04D1206837
:103AD000016821F040010160A06AB0F5005F09D1E2
:103AE0002068016821F4005101602068016841F4F8
:103AF00000510160012184F85D10002084F85C0011
:103B00000320D2E72DE9F0411D4617460E46044634
:103B1000DDF8188008E0681C06D0FDF7B9FFA0EBBF
:103B20000800A8420BD255B12068806836EA000030
:103B300030D00020B842EED10020BDE8F0812068EE
:103B4000416821F0E00141606068B0F5827F0BD1EF
:103B5000A068B0F5004F02D0B0F5806F04D12068A6
:103B6000016821F040010160A06AB0F5005F09D151
:103B70002068016821F4005101602068016841F467
:103B800000510160012184F85D10002084F85C0080
:103B90000320D2E70120CDE77047FDF77FBF00008B
:103BA00070B5B4B0302121A8FCF774FB14212DA806
:103BB000FCF770FB84216846FCF76CFBFEF730F8DD
:103BC0001F48016841F080510160006800F080509A
:103BD00032901C48016841F44041016000684FF494
:103BE000A021022400F4404032900120D825820513
:103BF00009260423CDE92742CDE92101CDE9293564
:103C0000CDE92B4621A8FEF77DFBFDF7D3FFE202AD
:103C10004FF4A0510025CDE930122DAA0F20072125
:103C200082E831002DA8FEF781FA4FF4A0601395C9
:103C3000159500906846FDF7FBFF34B070BD00009D
:103C40004038024000700040104A30B510481468F7
:103C500000210F4B44F470041460083305680D4ACA
:103C60000D4C45F00105056019600368051D134002
:103C7000074A03600C322C600568E305034C25F409
:103C800080250560803C1160236030BD88ED00E038
:103C900000380240FFFFF6FE1030002410B50B4C38
:103CA00004212046FDF7EAFE70B1002220460421DF
:103CB000FDF7E9FE02F0ACFD054901200860BDE812
:103CC00010400448FFF7F9B80122EFE7001802405E
:103CD0007000002010030020064801680648496A69
:103CE0000029416804D0491E41600248FFF7E5B849
:103CF000491CF9E7D003002070000020F0B5274BE5
:103D00004FF0804E264D02689842264E264F274C93
:103D100009D0704507D0A84205D0B04203D0B842C0
:103D200001D0A04205D1D1F804C022F070024CEAC3
:103D3000020298421BD0704519D0A84217D0B04259
:103D400015D0B84213D0A04211D0194DA8420ED0C0
:103D5000184DA8420BD0184DA84208D0174DA842C4
:103D600005D0174DA84202D0164DA84203D1CD6808
:103D700022F440722A434D6922F080022A430260F5
:103D800098428A68C2620A68826201D0A04201D168
:103D90000969016301214161F0BD0000000001409B
:103DA0000004004000080040000C004000040140F6
:103DB000004001400044014000480140001800401C
:103DC000001C00400020004010B5046A012301F0EF
:103DD0001F018B409C4304628A40016A11430162C7
:103DE00010BD42EA032283680A4323F47F410A4359
:103DF00082607047826822F070020A4342F0070135
:103E000081607047F0B5026ADFF860C0184F22F099
:103E10000102DFF860E00262066A4268836926F008
:103E200002060D68B8428C6803EA0C0323F0030312
:103E300044EA060445EA030501D0704505D1CB6884
:103E400024F00804234323F00404B84201D0704551
:103E500005D122F44076D1E9053233431A4342605A
:103E60008561496841630462F0BD00008FFFFEFF79
:103E70000000014000040140F0B5026A194E1A4CDE
:103E800022F01002DFF864E00262056A436882698A
:103E900025F02005D1F808C0A0420F6802EA06020A
:103EA00022F4407245EA0C1542EA072201D070451F
:103EB00006D1CE6825F0800545EA061525F04005B7
:103EC000A04201D0704507D1D1E9054623F44063F3
:103ED00043EA840343EA860343608261496881635D
:103EE0000562F0BDFF8FFFFE0000014000040140AD
:103EF000F0B5026A194F1A4E22F48072DFF864E0BE
:103F00000262056A4368C26925F40075D1F808C0E9
:103F1000B0420C6802EA070222F0030245EA0C25CF
:103F200044EA020401D0704506D1CF6825F400624E
:103F300042EA072222F48065B04201D0704507D1E1
:103F400023F44052D1E9053642EA031242EA06134D
:103F50004360C4614968C1630562F0BD8FFFFEFF25
:103F60000000014000040140F0B5026A124B114FFD
:103F700022F4805298420262046A4268C36924F4BF
:103F800000548E680D6803EA070323F4407344EA83
:103F9000063443EA052302D0084DA84204D14D69F6
:103FA00022F4804242EA85124260C361496801649A
:103FB0000462F0BDFF8FFFFE0000014000040140DD
:103FC000F0B5026ADFF844C022F480320262056A6A
:103FD0004268446D25F400350E8960450C4F0B682E
:103FE00004EA070445EA064543EA040302D0094C03
:103FF000A04204D14C6922F4803242EA0422426099
:104000004365496881650562F0BD0000000001401C
:104010008FFFFEFF00040140F0B5026ADFF844C0E4
:1040200022F480120262046A4268436D24F4001490
:104030000E8960450C4F0D6803EA070344EA0654F5
:1040400043EA052302D0094DA84204D14D6922F468
:10405000802242EA8522426043654968C165046264
:10406000F0BD000000000140FF8FFFFE0004014092
:1040700010B5036A046A23F00A0324F00104046201
:1040800084690B4324F0F00141EA0211816103626B
:1040900010BD10B5036A23F0100303628369046A3C
:1040A00023F4704324F0A00443EA0232826144EA1C
:1040B0000111016210BD90F82410C90706D00168F3
:1040C000836A4A6822F400321A434A6090F8241046
:1040D000890706D50168C36A4A6822F480321A4308
:1040E0004A6090F82410490706D50168036B4A68B6
:1040F00022F480221A434A6090F82410090706D55A
:104100000168436B4A6822F400421A434A6090F8FF
:104110002410C90606D50168836B8A6822F4805290
:104120001A438A6090F82410890606D50168C36B8B
:104130008A6822F400521A438A6090F824104906D3
:1041400011D50168036C4A6822F480121A434A6050
:10415000016CB1F5801F06D10168436C4A6822F4F6
:10416000C0021A434A6090F82410090606D5016877
:10417000826C486820F4002010434860704738B5CE
:1041800000250446C567FDF783FC034620680068E8
:1041900000070BD56FF07E400090002220464FF4C0
:1041A000001100F035F908B1032038BD2020606708
:1041B00084F87050A067002038BD00002DE9F04160
:1041C00004468068DFF818C2864F2368D4E9045299
:1041D000E16928431E6800250A438349104306EA23
:1041E0000C0606431E604FF400422068E6684368F0
:1041F00023F44053334343602368A669206AD3F80D
:1042000008C030432CF4306606439E602068B842F4
:104210000AD1086810F0030052D001287BD0022890
:104220007AD003286ED186E0704B98420AD1086894
:1042300010F00C0079D004287BD0082877D00C2807
:1042400060D178E06A4B98420AD1086810F03000DB
:104250006BD010286DD0202869D0302852D16AE068
:10426000644B98420AD1086810F0C0005DD0402825
:104270005FD080285BD0C02844D15CE05E4B984280
:104280000DD1086810F440704FD0B0F5807F50D049
:10429000B0F5007F4BD0B0F5407F33D14BE0574BAA
:1042A00098420FD1086810F4406009D0B0F5806FD3
:1042B0003FD0B0F5006F3AD0B0F5406F22D13AE070
:1042C000012120E04E4B98420DD1086810F4405077
:1042D0002BD0B0F5805F2CD0B0F5005F27D0B0F5C3
:1042E000405F0FD127E0474B98420BD1086810F48C
:1042F00040401AD0B0F5804F1BD0904217D0B0F597
:10430000404F18D01021E0694FF6EF76904238D137
:1043100009295DD202E00CE009E006E0DFE801F0E7
:104320000D1027582A5858582D000021EBE702217C
:10433000E9E70421E7E70821E5E7FDF793FF01E05E
:10434000FDF7A0FF0146D4F80400490001EB50013D
:10435000B1FBF0F080B2A0F11001B14238D84FF6B5
:10436000F0732168C0F342021840104324E026494C
:104370006068EBE7FDF796FFE4E760684FF4803193
:10438000E4E7092924D2DFE801F0050819231C23FA
:1043900023231F00FDF766FF01E0FDF773FF0146D1
:1043A000D4F8040001EB5001B1FBF0F080B2A0F1B1
:1043B0001001B1420CD82168C8600AE01349606856
:1043C000F0E7FDF76FFFEAE7606802EB5001EBE70B
:1043D00001250020206660662846BDE8F0810000C7
:1043E000F369FFEF001001409038024000440040A4
:1043F00000480040004C00400050004000140140C4
:1044000000780040007C00400048E8010024F400EF
:104410002DE9F041984617460E460446069D08E0F1
:10442000681C06D0FDF734FBA0EB0800A8420BD8AF
:1044300055B12068C06936EA000017D00020B842A4
:10444000EED00020BDE8F0812168202000220B681A
:1044500023F4D0730B6021688B6823F001038B6019
:104460006067A067032084F87020EBE70120E6E78F
:10447000FEE700000FB4054B10B503A9044A0298EB
:1044800000F028F810BC5DF814FB0000835500080C
:1044900034010020090700284FEA116104DB00F114
:1044A000E02080F80014704700F00F0000F1E020D9
:1044B00080F8141D704702E008C8121F08C1002AC6
:1044C000FAD170477047002001E001C1121F002A95
:1044D000FBD170472DE9FF4F8BB09A460F4605463A
:1044E000002606E025280BD052460D9990476D1CFA
:1044F000761C28780028F5D10FB03046BDE8F08F43
:104500000024A0460122604900E0044315F8013F61
:10451000203B02FA03F00842F7D128782E2817D161
:1045200015F8010F44F004042A280ED06FF02F0272
:104530002878A0F1300109290AD808EB880102EB9C
:10454000410100EB01086D1CF2E757F8048B6D1C6C
:10455000287869283ED006DC0028CDD063280BD00F
:10456000642804D136E0732810D075284BD0524609
:104570000D999047761C85E017F8040B8DF8000024
:1045800000208DF80100E946012003E057F8049B64
:104590004FF0FF3061074FF0000401D40AE0641CC3
:1045A00044450DDA8442FADB19F804100029F6D1EB
:1045B00006E0641C8442FCDB19F804100029F8D1E1
:1045C000264404E019F8010B52460D999047641EE9
:1045D000F8D257E001CF4FF00A0B002802DA404230
:1045E0002D2102E0210504D52B218DF82410012175
:1045F00003E0E10705D02021F7E70DF1200908913C
:104600000CE00021F9E701CF4FF00A0BF9E759461A
:10461000FBF7A0FF01F1300209F8012D0028F6D1C7
:10462000ADEB090000F1200B600701D44FF0010849
:10463000D84502DDA8EB0B0000E0002080460024F6
:1046400006E009A85246005D0D999047641C761C4F
:1046500008988442F5DB04E0302052460D999047DB
:10466000761CB8F10001A8F10108F5DC05E019F8A5
:10467000010B52460D999047761CBBF10001ABF13E
:10468000010BF4DC6D1C34E70928010010B5044669
:104690004068804720682246BDE81040014904F088
:1046A000A5B800008D46000870B50C460546880781
:1046B00006D006A34FF4CE7210A118A0FFF7DAFEC1
:1046C000A86800682060A868046070BD2E2E2F4D79
:1046D0006964646C6577617265732F54686972648C
:1046E0005F50617274792F4C7749502F7372632F2A
:1046F000636F72652F6D656D702E63006D656D70F3
:104700005F667265653A206D656D2070726F7065C9
:10471000726C7920616C69676E65640041737365C2
:104720007274696F6E2022257322206661696C6540
:1047300064206174206C696E6520256420696E2098
:1047400025730A0010B580680468002C0CD021681D
:10475000A207016006D005A34FF4A4720FA118A010
:10476000FFF788FE204610BD002010BD2E2E2F4DD5
:104770006964646C6577617265732F5468697264EB
:104780005F50617274792F4C7749502F7372632F89
:10479000636F72652F6D656D702E63006D656D7052
:1047A0005F6D616C6C6F633A206D656D7020707227
:1047B0006F7065726C7920616C69676E656400006A
:1047C000417373657274696F6E20222573222066AF
:1047D00061696C6564206174206C696E6520256474
:1047E00020696E2025730A0070B50A4D0024064624
:1047F00004EB440005EBC000017D29B18068B042A4
:1048000002D1204600F034F9641CE4B20A2CEFD344
:1048100070BD0000A46B00202DE9F74F84B04FF06D
:104820000A0B00240646DA465F46D94602940194F4
:10483000009404EB44004F490A2F039001EBC00899
:1048400098F8145016D0002D24D0012D08D0022D38
:1048500006D249A340F2251255A165A0FFF70AFE32
:1048600066B13168D8F80400814207D160B207B060
:10487000BDE8F08F002DE8D167B20BE0012D17D015
:10488000022D07D3B8F812000099884202D34FFADC
:1048900084FA0090641CE4B20A2CCAD305988107FC
:1048A0004FF0FF30E3D40A2F18D01ADAFCB242E0FE
:1048B0003048039950F831000028B8F8120006D0AB
:1048C00002998842E6D34FFA84F90290E2E701990F
:1048D0008842DFD34FFA84FB0190DBE70599C907D3
:1048E000C5D0BAF10A0F0FDA0AF0FF04214804EB31
:1048F000440150F8310090B11FA340F26F1246A15D
:104900003BA0FFF7B7FD0AE0BBF10A0F02DA0BF09C
:10491000FF0404E0B9F10A0FA9DA09F0FF040A2C38
:1049200006D315A340F2811241A131A0FFF7A2FDE9
:10493000204600F09DF80A2C06D30FA340F2851202
:104940003BA12BA0FFF796FD0A4804EB440100EBC6
:10495000C105287D30B108A34FF4C37239A124A04A
:10496000FFF788FD0EB130686860002160B269828F
:104970007DE70000A46B00202E2E2F4D6964646C2F
:104980006577617265732F54686972645F506172F4
:1049900074792F4C7749502F7372632F636F726550
:1049A0002F697076342F6574686172702E63000011
:1049B0007374617465203D3D204554484152505FF9
:1049C00053544154455F50454E44494E47207C7CEA
:1049D000207374617465203E3D2045544841525017
:1049E0005F53544154455F535441424C45000000CD
:1049F000417373657274696F6E202225732220667D
:104A000061696C6564206174206C696E6520256441
:104A100020696E2025730A006172705F7461626C98
:104A2000655B695D2E71203D3D204E554C4C00006C
:104A300069203C204152505F5441424C455F5349EC
:104A40005A4500006172705F7461626C655B695DFC
:104A50002E7374617465203D3D2045544841525089
:104A60005F53544154455F454D5054590000000078
:104A700070B5074C00EB4005002654F8350018B11E
:104A800003F0E0F944F8356004EBC500067570BD2D
:104A9000A46B00202DE9F0430D00074685B009D036
:104AA0007C684FF480782088404539D120790628E9
:104AB00036D109E01CA34FF4227229A12CA0FFF7E4
:104AC000D9FC05B0BDE8F0836079042828D160885E
:104AD000082825D1D4F80E0004906868A16920B197
:104AE000814202D10126334601E0002602232846F6
:104AF00004F1080204A9914600F094FBE0884045C7
:104B00000ED16EB10222284604AB291DCDE9023236
:104B1000CDE9001905F125034A46194600F084FA4B
:104B2000384603F08FF9CCE72E2E2F4D6964646C64
:104B30006577617265732F54686972645F50617242
:104B400074792F4C7749502F7372632F636F72659E
:104B50002F697076342F6574686172702E6300005F
:104B60006E6574696620213D204E554C4C00000056
:104B7000417373657274696F6E20222573222066FB
:104B800061696C6564206174206C696E65202564C0
:104B900020696E2025730A00FEB5040015460E46F6
:104BA00006D141A340F21B324DA151A0FFF762FC98
:104BB00036B93DA34FF4477257A14DA0FFF75AFCF9
:104BC00035B939A340F21D3256A149A0FFF752FC76
:104BD0002868214600F088FE08B1564B3CE0286862
:104BE000C0F303110E2922D0D4E901210A4001406B
:104BF000914208D080B2A0F57E41A93903D0E06887
:104C0000A0B304F10C054C4A4C49107800EB40036A
:104C100001EBC3031F7D022F2CD32F685B689F42DB
:104C200028D102463146204600F08AF8FEBD012216
:104C30008DF8042000208DF805005E218DF8061007
:104C4000687801AB00F07F008DF80700A8788DF838
:104C50000800E8788DF809004FF4006004F125029F
:104C600031460090204600F0BBFBFEBDFFE76FF031
:104C70000300FAE75FF0000000EB400301EBC30321
:104C80001F7D022F06D32F685B689F4202D1C0B2FE
:104C90001070C6E7401C40B20A28EDDB32462946B8
:104CA000204600F0D5F8E0E72E2E2F4D6964646CA5
:104CB0006577617265732F54686972645F506172C1
:104CC00074792F4C7749502F7372632F636F72651D
:104CD0002F697076342F6574686172702E630000DE
:104CE0006E6574696620213D204E554C4C000000D5
:104CF000417373657274696F6E202225732220667A
:104D000061696C6564206174206C696E652025643E
:104D100020696E2025730A007120213D204E554CDC
:104D20004C00000069706164647220213D204E5582
:104D30004C4C00003CC0000828010020A46B00205F
:104D40002DE9F8431546884606461C4802EB450106
:104D500000EBC104207D022806D219A34FF43B7258
:104D600025A131A0FFF786FB144A05EB4501207D04
:104D700002EBC1050C35022813D1608A0327B0F578
:104D80008E7F04D9211D304600F006FA07E0B0F509
:104D9000877F06D3211D2A46304600F003FA00B96A
:104DA00027754FF4006006F125022B46414600901E
:104DB000304600F015FBBDE8F8830000A46B00202E
:104DC0002E2E2F4D6964646C6577617265732F5464
:104DD000686972645F50617274792F4C7749502F03
:104DE0007372632F636F72652F697076342F6574E9
:104DF000686172702E6300006172705F7461626C32
:104E0000655B6172705F6964785D2E73746174654F
:104E1000203E3D204554484152505F535441544533
:104E20005F535441424C4500417373657274696F1E
:104E30006E2022257322206661696C65642061748E
:104E4000206C696E6520256420696E2025730A0038
:104E50002DE9FC5F8246144625300190086888469B
:104E60004FF0FF364FF0000B514600F03DFD00289B
:104E700028D1D8F80000C0F303110E2922D0B8F1D0
:104E8000000F1FD000281DD0012152464046FFF7D9
:104E9000C3FC070018D4394907EB470901EBC905E2
:104EA000287D002812D0012808D0022806D234A379
:104EB00040F2C73240A14AA0FFF7DCFABBF1000F75
:104EC0000AD108E06FF00F00BDE8FC9FC5F808A00C
:104ED0000121297500E034B94146504600F05CF9E3
:104EE000002C0646F0D0287DDFF8908002280DD3F4
:104EF00045484FF4006105F10C0307705046019AD4
:104F00000091214600F06CFA064635E0012833D1C5
:104F10004FF47B76254668892989884207D128681D
:104F200028B117A3324639A12DA0FFF7A3FA287B99
:104F300001280ED029890022022002F02FFB050053
:104F400018D0214602F0FAFD58B1284602F07AFF47
:104F500010E02D68002DDED12546204603F0A0F993
:104F600045B158F8390008B102F06CFF002648F846
:104F7000395001E04FF0FF363046A5E7A46B002022
:104F80002E2E2F4D6964646C6577617265732F54A2
:104F9000686972645F50617274792F4C7749502F41
:104FA0007372632F636F72652F697076342F657427
:104FB000686172702E6300006172705F7461626C70
:104FC000655B695D2E7374617465203D3D205045BD
:104FD0004E44494E47206F7220535441424C450085
:104FE000417373657274696F6E2022257322206687
:104FF00061696C6564206174206C696E652025644C
:1050000020696E2025730A00280100206E6F207031
:1050100061636B65742071756575657320616C6C77
:105020006F776564210000002DE9FF4F81B098463D
:1050300006004FF00007DDE90FA9DDF838B006D112
:105040002BA34FF48B6238A13BA0FFF713FA002289
:105050001C21022002F0A2FA050046D068891C2813
:1050600006D223A340F263423DA133A0FFF702FA28
:105070006C68119801F072FDE08096F82400062813
:1050800006D044491AA32CA040F26A42FFF7F2F975
:10509000D8F800100623A1604FF48071B8F804001E
:1050A000A081DAF80020C4F812200822BAF804001F
:1050B000E082DBF80000C4F80E00D9F80000A0611F
:1050C0000420218040F60601628023716071304621
:1050D000DDE902230091294600F082F9284602F01A
:1050E000B1FE384605B0BDE8F08F4FF0FF30F9E76C
:1050F0002E2E2F4D6964646C6577617265732F5431
:10510000686972645F50617274792F4C7749502FCF
:105110007372632F636F72652F697076342F6574B5
:10512000686172702E6300006E6574696620213DAF
:10513000204E554C4C000000417373657274696FCA
:105140006E2022257322206661696C65642061747B
:10515000206C696E6520256420696E2025730A0025
:10516000636865636B207468617420666972737428
:1051700020706275662063616E20686F6C642073B6
:105180007472756374206574686172705F686472AC
:105190000000000018C20008014A00F003B8000037
:1051A0003CC000087FB5064D0124031DCDE9021463
:1051B000CDE9003521331946FFF736FF04B070BD45
:1051C00042C0000870B5164D5FF0000404EB4400C7
:1051D00005EBC001087DF0B14A8A521C92B24A82A6
:1051E000B2F5967F0AD2012806D003280AD00428F7
:1051F0000AD001280BD00EE0052A08D32046FFF77D
:1052000037FC08E0042000E00220087503E088680D
:10521000091DFFF7C1FF641CE4B20A2CD6D370BD90
:10522000A46B0020F8B5044690F824001F461546EC
:1052300006280E4606D020A340F2AB122CA135A0C2
:10524000FFF718F99EB3306888B3214600F04CFB95
:1052500068BB3078C0F303100E2829D022463946A7
:105260003046FFF7D9FA002820DB344A00EB400132
:10527000022302EBC1000375002384602E68C66020
:10528000AE880682438252F8316076B142F83130FE
:105290004FF400602B4604F1250231460090204671
:1052A00000F09EF8304602F0CDFD0020F8BDFFE78B
:1052B0006FF00F00FAE700002E2E2F4D6964646C2A
:1052C0006577617265732F54686972645F506172AB
:1052D00074792F4C7749502F7372632F636F726507
:1052E0002F697076342F6574686172702E630000C8
:1052F0006E657469662D3E6877616464725F6C6583
:105300006E203D3D204554485F4857414444525F1C
:105310004C454E00417373657274696F6E2022258F
:105320007322206661696C6564206174206C696E0B
:105330006520256420696E2025730A00A46B002077
:1053400070B5044640890D460E283CD96068017846
:105350008689CA0714D0012905D020490622FAF708
:10536000A4FF48B10CE0417851B980785E2807D19C
:10537000607B40F0100002E0607B40F0080060734A
:10538000082E6FF00D0103D0B6F5C16F1BD10FE0F1
:1053900095F82B00000716D560890E2813DB2046F0
:1053A00002F01AFE78B92946204600F0DFFB12E031
:1053B00095F82B00000706D560890E2803DB2046F0
:1053C00002F00AFE18B1204602F03CFD03E0294637
:1053D0002046FFF75FFB002070BD00003CC00008C6
:1053E0002DE9F0411F4690460E460446069801F00E
:1053F000B5FB0E210546304602F0EEFD18B16FF008
:105400000100BDE8F0817068858139680160B98864
:105410008180D8F80020C0F80620B8F80410418137
:1054200094F82400062806D006A340F22B1213A1FC
:105430001FA0FFF71FF8A26931462046BDE8F041E2
:10544000104700002E2E2F4D6964646C65776172E1
:1054500065732F54686972645F50617274792F4C60
:105460007749502F7372632F6E657469662F657468
:105470006865726E65742E63000000006E65746965
:10548000662D3E6877616464725F6C656E206D7531
:105490007374206265203620666F722065746865BB
:1054A000726E65745F6F7574707574210000000012
:1054B000417373657274696F6E20222573222066B2
:1054C00061696C6564206174206C696E6520256477
:1054D00020696E2025730A0010B5040006D10BA3C5
:1054E0004FF404720EA112A0FEF7C4FF1A497320F4
:1054F00061611A49A161742184F82C00204684F866
:105500002D1001F0F7F9002010BD00002E2E2F53B2
:1055100072632F65746865726E657469662E6300C8
:105520006E6574696620213D204E554C4C0000008C
:10553000417373657274696F6E2022257322206631
:1055400061696C6564206174206C696E65202564F6
:1055500020696E2025730A00994B0008A96A00088B
:1055600070B5054601F03EFA040009D02A692946C3
:105570009047002804D02046BDE8704002F062BC8D
:1055800070BD38B504468DF8000069460320ABBEF7
:10559000204638BD10B5002821D0114B0022001F35
:1055A000196803E0814203D80A4649680029F9D105
:1055B00052B11368841A9C4204D1006818441060E8
:1055C000104602E0506000E0186039B102680B1A22
:1055D000934203D10B681A4402604968416010BDD0
:1055E000380100200A46032100F0F4B82DE9FE4FEF
:1055F0008A4644490446D1F8088098F8000000071C
:10560000870E142F78D36089042875D360680078DA
:10561000002871D008286FD1486901F11405C0F342
:1056200003120E2A68D08946096800F05DF9002847
:1056300062D1208908285FD307F10E0120460E466B
:1056400002F0CAFC00282DD020890022384481B203
:10565000022001F0A3FF06004ED0718907F1080077
:10566000814216D370683A464146FAF7FAFD79420C
:10567000304602F0B1FC002806D0AF2222A330A1B0
:105680003DA0FEF7F7FE04E02146304602F056FA50
:1056900018B1304602F0D6FB2EE0204602F0D2FBD5
:1056A00034460CE07142204602F096FC002806D0F9
:1056B000C02215A33AA130A0FEF7DCFE1CE066680C
:1056C0003946204602F088FCB0B9606800212A689B
:1056D000FF27C2600A46D9F81030036101233170F8
:1056E0007180077241812046CDE900133B4629466F
:1056F000CDF808A000F00CFB2046BDE8FE4F02F0FC
:10570000A1BB00007C3600202E2E2F4D6964646CF6
:105710006577617265732F54686972645F50617256
:1057200074792F4C7749502F7372632F636F7265B2
:105730002F697076342F69636D702E63000000004E
:1057400069636D705F696E7075743A206D6F76690C
:105750006E6720722D3E7061796C6F616420746F8A
:105760002069636D70206865616465722066616997
:105770006C65640A00000000417373657274696FA0
:105780006E2022257322206661696C656420617435
:10579000206C696E6520256420696E2025730A00DF
:1057A00069636D705F696E7075743A2072657374A9
:1057B0006F72696E67206F726967696E616C2070C5
:1057C0002D3E7061796C6F6164206661696C6564FF
:1057D0000A0000002DE9FF4792468946002206464E
:1057E0002421012001F0DAFE050031D06889242847
:1057F00006D218A340F2611224A12FA0FEF73AFEB0
:105800006C684FF0000877681C2284F8009084F8D8
:1058100001A0A4F80480A4F80680686871680830C4
:10582000FAF71FFDF868039003A800F013FC60B1BD
:10583000A4F802800122CDF80080FF23CDE90120E9
:105840000021284603AA00F063FA284602F0FAFA7B
:10585000BDE8FF872E2E2F4D6964646C65776172F9
:1058600065732F54686972645F50617274792F4C4C
:105870007749502F7372632F636F72652F6970764B
:10588000342F69636D702E630000000063686563E8
:105890006B2074686174206669727374207062751D
:1058A000662063616E20686F6C642069636D702090
:1058B0006D65737361676500417373657274696FB9
:1058C0006E2022257322206661696C6564206174F4
:1058D000206C696E6520256420696E2025730A009E
:1058E0000A460B21FFF776BF421C12D088B191F80F
:1058F0002B2092070BD54A68824208D089680A405B
:1059000000EA0103934202D10143491C01D0002067
:1059100070470120704700002DE9F74F86B004461C
:105920000025AE1F07981427408C1438C11700EBD0
:105930005170C0F3CF0B60680590017801F00F0142
:10594000052904D056A340F2E12264A10BE0C088EF
:1059500001F004F98104C0F30C0002900AD550A3B1
:1059600040F2E62267A16EA0FEF784FD304609B042
:10597000BDE8F08F208914381FFA80F880E000BF5E
:10598000B8EBCB0F01D34FEACB0080B203900022DB
:105990001421022001F002FE5FEA000A78D060893B
:1059A000142806D23EA34FF4427267A15CA0FEF712
:1059B00061FDDAF8040014220599FAF752FCDAF8CE
:1059C0000400039E04902BE06089C01B85B2AE42A8
:1059D00000D2354615B3052001F090FC5FEA0009BE
:1059E00053D0606802224B4629463844CDE9000571
:1059F000042001F091FF0090F0B3204602F050FC2B
:105A000059495046C9E90414009901F0F5FF701B8B
:105A10000604360C06D024680027D5E72468002742
:105A2000002ED1D1079879198FB2408C1438404597
:105A30000298C0F30C0001DA40F4005001F08EF837
:105A40000499C8800398143080B201F087F8049953
:105A5000002248805146049842810798089A436979
:105A60009847504602F0EEF90399A8EB010202991B
:105A70001FFA82F8594401E00DE009E088B2029073
:105A8000B8F100007FF47CAF71E7504602F0DAF91C
:105A90004FF0FF306BE7484600F00AFBF5E70000E7
:105AA0002E2E2F4D6964646C6577617265732F5477
:105AB000686972645F50617274792F4C7749502F16
:105AC0007372632F636F72652F697076342F6970FC
:105AD000345F667261672E63000000006970345F96
