:020000040800F2
:10000000B00500209D0100084F210008711F000865
:100010004D210008A90400083D260008000000004A
:100020000000000000000000000000007321000834
:10003000D1040008000000007121000875210008AB
:10004000B7010008B7010008B7010008B7010008B0
:10005000B7010008B7010008B7010008B7010008A0
:10006000B7010008B7010008B7010008B701000890
:10007000B7010008B7010008B7010008B701000880
:10008000B7010008B7010008B7010008C50400085F
:10009000AD040008B9040008B7010008B701000862
:1000A000B7010008B7010008B7010008B701000850
:1000B000B701000851220008B7010008B701000885
:1000C000B7010008B7010008B7010008B701000830
:1000D000B7010008B7010008B7010008B701000820
:1000E000B7010008B7010008B7010008B701000810
:1000F00079220008B7010008B7010008B70100081D
:10010000B7010008B7010008B7010008B7010008EF
:10011000B7010008B7010008B7010008B7010008DF
:10012000B7010008B7010008B7010008B7010008CF
:10013000B7010008B7010008B7010008B7010008BF
:10014000B7010008B7010008B7010008B7010008AF
:10015000B7010008B7010008B7010008B70100089F
:10016000B7010008B7010008B7010008B70100088F
:10017000B7010008B7010008B7010008000000003F
:10018000B7010008B7010008DFF80CD000F0E8F86C
:100190000048004779260008B0050020064880473F
:1001A00006480047FEE7FEE7FEE7FEE7FEE7FEE75C
:1001B000FEE7FEE7FEE7FEE7FD21000889010008F3
:1001C0002DE9F05F0546002092469B46884606468C
:1001D000814640241BE0284641464746224600F01F
:1001E00052F853465A46C01A914110D31146184648
:1001F000224600F039F82D1A67EB01084F462246D7
:100200000120002100F030F817EB00094E41201EBC
:10021000A4F10104DFDC484631462A464346BDE8E6
:10022000F09FD2B201E000F8012B491EFBD27047CB
:100230000022F6E710B513460A4604461946FFF7B2
:10024000F0FF204610BD0EB5C10F80EAE0700844F3
:10025000CA07002140F233438DE80E000A460B46E0
:1002600000F030F803B000BD202A04DB203A00FA89
:1002700002F1002070479140C2F1200320FA03F3FD
:10028000194390407047202A04DB203A21FA02F0FB
:100290000021704721FA02F3D040C2F120029140C0
:1002A00008431946704710B5141E73F1000408DAAC
:1002B000401C41F1000192185B411A4301D120F02A
:1002C000010010BD2DE9F04D92469B4611B1B1FAE7
:1002D00081F202E0B0FA80F220329046FFF7C4FFCC
:1002E00004460F4640EA0A0041EA0B0153465A46CB
:1002F000084313D0114653EA010019D0C8F1400257
:100300005046FFF7C0FF05460E4650465946424646
:10031000FFF7AAFF084305D0012004E02046394634
:10032000BDE8F08D0020054346EAE0762C433743D4
:100330000A986305E40AA0EB08000022FD0A44EADB
:1003400047540A3002D500200146E9E7010510199B
:100350006941DDE9084500196941BDE8F04DA2E7B2
:10036000064C074D06E0E06840F0010394E8070002
:1003700098471034AC42F6D3FFF70AFF382800083C
:1003800058280008454910B54A6822F440324A60AE
:100390004A6843681A434A6001684A6822F48072D6
:1003A0004A6001684A68036942EA03224A600168B8
:1003B0004A6822F040724A6001684A6883681A43BA
:1003C0004A6001688A6822F400628A6001688A686B
:1003D000C3681A438A60816A6FF07062D142016813
:1003E0008A6822F070628A6001688A680CD0836A29
:1003F0001A438A6001688A6822F040528A60016864
:100400008A68C36A1A4301E022F040528A60016898
:100410008A6822F002028A6001688A68836942EA77
:1004200043028A60016A002901684A680FD042F4D9
:1004300000624A6001684A6822F460424A600168CA
:100440004A68174C436A04EB43331A4301E022F431
:1004500000624A600168CA6A22F47002CA620168D6
:10046000CA6A838B0F4C04EB03531A43CA620168B8
:100470008A6822F400728A6001688A68036B42EA23
:1004800043228A6001688A6822F480628A60016877
:100490008A68406942EA8020886010BD00230140DC
:1004A00000E0FFFF0000F0FFFEE70000014800F061
:1004B0002FBC000084000020014800F029BC00008F
:1004C00084000020014800F023BC000084000020CC
:1004D0007047000070B590F83C20694D012A19D092
:1004E000012280F83C200A6807230468092A13D9EE
:1004F000E6680A3A02EB420293409E43E6600A78BD
:100500008B680A3A02EB420293400268D4682343A4
:10051000D36010E0022070BD266902EB42029340D6
:100520009E4326610A788B6802EB42029340026880
:100530001469234313610268936B23F4401393639C
:100540000268936B0C8A4F4E06EB0454234393636B
:100550000A790B7CD21AD21C02EB82021F23934031
:100560000268946B9C4394630A790B7CD21AD21C68
:1005700002EB82030A8892B29A4003689C6B224382
:100580009A63CA69AA420268936823F4702393604D
:10059000026893680CD0CC69234393600268936827
:1005A00023F440139360026893680C6A234301E0CC
:1005B00023F4401393608A69002A0268536802D0CA
:1005C00043F4806301E023F4806353604A69002AA6
:1005D0000268536802D043F4805301E023F480534F
:1005E00053604A68012A16D0022A1FD0032A0268E3
:1005F00027D0136A6FF30B0313620268136ACC6887
:1006000023431362214B04681F4A9C4227D10C6884
:10061000122C20D023E0026853696FF30B0353615F
:1006200002685369CC6823435361EBE7026893691E
:100630006FF30B03936102689369CC682343936162
:10064000E0E7D3696FF30B03D3610268D369CC6829
:100650002343D361D6E7546844F4800454600468AB
:100660009C4208D10968102901D0112903D1516891
:1006700041F400015160002180F83C10084670BD33
:1006800001000F000000F0FF0023014000200140A6
:1006900008B5002200920368521F1A60012911D088
:1006A00002290CD0032906D0042901D0009808BDE6
:1006B0000068806C01E00068406C009008BD006834
:1006C000006CFAE70068C06BF7E770B50D460446AA
:1006D00000F002FF06460EE0681C0CD025B100F0C9
:1006E000FBFE801BA84206D904202064002084F869
:1006F0003C00032070BD206800684007ECD52168ED
:100700006FF00C000860206C40F4005020642068FA
:10071000816811F4401F1AD1816B11F4401F02D07F
:100720008168490513D44168490510D4806810F0E8
:10073000405F0CD1A06950B9206C20F48050206437
:10074000206CC00503D4206C40F001002064002020
:1007500070BD000018B50022009290F83C100129ED
:1007600007D0012180F83C1001688B68DB0702D0BC
:1007700011E0022018BD8B6843F001038B60224911
:10078000224B0968B1FBF3F101EB410100E0491E86
:1007900000910029FBD101688B68DB0726D0036C30
:1007A00042F20104A34343F480530364036CDB056A
:1007B00000D4426480F83C206FF004020A601449BF
:1007C00049680068C906816801F4401110D0C1B1C0
:1007D000002241680F4B41F38021491C984205D10A
:1007E00022B119B1816841F480018160002018BDF7
:1007F00029B10022416841F38021491CF0E7012220
:10080000F8E70122E5E700003800002040420F0031
:10081000002301400020014078B50024009490F8A6
:100820003C20012A19D0012280F83C200A680723C5
:100830000568092A13D9EE680A3A02EB420293408E
:100840009E43EE600B788A680A3B03EB43039A40B1
:100850000368DD682A43DA6010E0022078BD2E6963
:1008600002EB420293409E432E610B788A6803EBB1
:1008700043039A4003681D692A431A614A681F238B
:10088000072A13D205686E6B521E02EB8202934058
:100890009E436E630B790A885B1E92B203EB83035F
:1008A0009A4003685D6B2A435A6327E005680D2A66
:1008B00012D22E6BD21F02EB820293409E432E6314
:1008C0000B790A88DB1F92B203EB83039A4003681B
:1008D0001D6B2A431A6311E0EE6A0D3A02EB8202A5
:1008E00093409E43EE620B790A880D3B92B203EB74
:1008F00083039A400368DD6A2A43DA62164B05686F
:10090000144A9D4206D10D68122D03D1556845F455
:100910008005556005689D4218D10B68102B01D0E9
:10092000112B13D1536843F4000353600968102955
:100930000CD10A490A4A0968B1FBF2F101EB8101C5
:10094000490000E0491E00910029FBD180F83C409D
:10095000002078BD00230140002001403800002025
:1009600040420F0070B504004FF0000503D0206C2A
:10097000002610B107E0012070BD666484F83C6079
:10098000204600F019F8206CC00610D4206C20F42A
:10099000885040F0020020642046FFF7F3FC6664B4
:1009A000206C20F0020040F00100206400E00125EE
:1009B00084F83C60284670BD10B586B0044614210A
:1009C0006846FFF735FC1149206888421CD1104861
:1009D0000021026842F480720260006800F48070B6
:1009E00005900B481438026842F00102026000686A
:1009F00000F0010005900F2000900320CDE90101D7
:100A00006946044800F08AFC06B010BD0020014091
:100A1000443802400000024090F82020012A09D00A
:100A200090F82020022A05D0416A41F480214162D9
:100A300001207047006842690A4342610020704704
:100A4000F0B590F82040012C07D090F82040022CFF
:100A500003D0416A41F4802153E00468A5686D0128
:100A600005D4A5682D0102D4A568ED0046D5A4687B
:100A70000125C4F30164A5401D608D684FF4C07367
:100A80009DB1CE6835434E6845EAC605066803EB5E
:100A90000417F5514FF4C275076805EB04150E698C
:100AA0007E51097D012905D009E00E88CD6845EA0F
:100AB0004655EBE701684E5946F480764E51117960
:100AC000D2F805504FF4C67641EA0521056806EBD9
:100AD0000416A9511178D2F801204FF4C47541EAE7
:100AE0000221026805EB04155151006803EB041163
:100AF000425842F0010242500020F0BD416A41F4E8
:100B0000001141620120F0BD10B590F82020012AAB
:100B100009D090F82020022A05D0416A41F48021B2
:100B20004162012010BD3A48D0F8002242F0010293
:100B3000C0F80022D0F8002222F47C52C0F8002233
:100B4000D0F800224B6A42EA0322C0F800220B7D53
:100B500001229A40D0F81C329343C0F81C32CB6972
:100B6000B3B9D0F80C329343C0F80C328C894B687F
:100B700064F31F434C6900EBC404C4F840320C8991
:100B80000B6864F31F434C6900EBC404C4F844329F
:100B9000CB69012B16D1D0F80C321343C0F80C32BC
:100BA0000C884B6864F31F434C6900EBC404C4F821
:100BB00040320C89CB6864F31F434C6900EBC404DA
:100BC000C4F844328B69002BD0F804320ED01343A2
:100BD000C0F804320B69002BD0F8143208D013434C
:100BE000C0F81432096A012904D008E09343EFE702
:100BF0009343F5E7D0F81C121143C0F81C12D0F84B
:100C0000001221F00101C0F80012002010BD000008
:100C100000640040704730B590F82040012C07D0A8
:100C200090F82040022C03D0416A41F4802109E071
:100C300011B1012909D00CE00468E46807E0416AB9
:100C400041F400114162012030BD04682469A40709
:100C5000F5D04FF4D874056804EB01142D5915F044
:100C60000405956005682D5942D0ED08556005686A
:100C70002C59C4F34004D4604FF4DA74056804EBD3
:100C800001142D5905F00F05156105682D59C5F39F
:100C90000725956105682C59240C54614FF4DC72CA
:100CA000046802EB0112A4581C700468A458240ABA
:100CB0005C700468A458240C9C700468A258120E3E
:100CC000DA704FF4DE72046802EB0112A4581C7152
:100CD0000468A458240A5C710468A458240C9C710C
:100CE0000468A258120EDA7129B1012909D00DE069
:100CF0006D0D1560BBE70068C16841F02001C1605F
:100D000004E00068016941F020010161002030BD6C
:100D10002DE9F05F0546006800244669D0F804908C
:100D20008768D0F80CB0D0F810A0D0F81880F10780
:100D300048D0F90714D001218160B80703D52846AF
:100D400000F03DFA0CE0780702D54FF4006407E0AC
:100D5000380702D54FF4805402E0284600F02EFAFE
:100D6000F80516D529684FF480708860B80503D55A
:100D7000284600F026FA0CE0780502D544F4005429
:100D800007E0380502D544F4804402E0284600F02C
:100D900017FAF80316D529684FF480308860B80335
:100DA00003D5284600F00FFA0CE0780302D544F48E
:100DB000004407E0380302D544F4803402E02846BA
:100DC00000F000FA300707D55FEACB6004D5296848
:100DD000102044F40074C86070074FF0080707D56E
:100DE0005FEA0B7004D52868C760284600F06AF9EE
:100DF000B00706D52868C068800702D0284600F0F2
:100E000063F9700607D55FEACA6004D52968102027
:100E100044F480640861B00607D55FEA0A7004D51F
:100E200028680761284600F099F9F00606D5286879
:100E30000069800702D0284600F091F9B00308D578
:100E40005FEAC96005D5296810204860284600F08F
:100E500087F9F00307D55FEA097004D52868476071
:100E6000284600F0B1F9300446D55FEA497040D514
:100E7000F00504D55FEAC87001D044F00104B00564
:100E800004D55FEA887001D544F00204700504D5EA
:100E90005FEA487001D544F00404300529D518F004
:100EA000700F26D008F07000402815D006DC1028FE
:100EB00009D020280AD0302816D10AE050280ED0B8
:100EC000602811D10EE044F008040DE044F0100455
:100ED0000AE044F0200407E044F0400404E044F059
:100EE000800401E044F480742868816921F0700175
:100EF0008161296804204860002C05D0686A20437D
:100F000068622846FFF786FEBDE8F09F70B50400D2
:100F100003D094F8200010B104E0012070BD2046F9
:100F200000F082F82068016821F00201016000F001
:100F3000D3FA0546052604E000F0CEFA401B0A2845
:100F400011D8206840688007F6D42068016841F015
:100F50000101016000F0C0FA05460BE000F0BCFAA8
:100F6000401B0A2806D9606A40F40030606284F8A9
:100F70002060D2E720684068C007EFD0207E0128BB
:100F8000206801683DD021F080010160607E012869
:100F90002068016838D021F040010160A07E01285E
:100FA0002068016833D021F020010160E07E012833
:100FB000206801682ED041F010010160207F0128D7
:100FC0002068016829D021F008010160607F0128B4
:100FD0002068016824D021F004010160D4E90201F5
:100FE0000843D4E90412114308436168491E0843C9
:100FF0002168C86100206062012084F82000002080
:1010000070BD41F08001C0E741F04001C5E741F00B
:101010002001CAE721F01001CFE741F00801D4E731
:1010200041F00401D9E7000010B586B00446142150
:101030006846FFF7FDF820492068884239D11F48EB
:101040000021026842F000720260006800F0007047
:1010500005901A481038026842F0010202600068E8
:1010600000F0010005904FF4C05000900220CDE93F
:10107000010103200390092004906946104800F004
:101080004DF900221146132000F092FA132000F0CF
:1010900083FA00221146142000F08AFA142000F08E
:1010A0007BFA00221146152000F082FA152000F08C
:1010B00073FA06B010BD00000064004040380240E2
:1010C00000000240704700007CB506466B461F4A90
:1010D0000021FFF7A0FD1D4C2068012816D1A06853
:1010E000002831D11A481B4D90ED000ABDEEC00A10
:1010F00010EE101AA98001F0B1FA2860A5F11403CE
:101100002A4604F11C013046FFF79AFC20680228A9
:101110001AD1A068002817D10E4C0098183C206006
:10112000BDF80400A0802046B0F9000000EE100ACF
:10113000B8EEC00A01F02AFB01222021064800F087
:10114000C5F900F0C9F9A0607CBD0000780100205D
:10115000280000201800002000040240704770475B
:101160007047000070B5044690F82000012804D0B4
:10117000606A40F40020606218E0022084F82000D9
:101180002068016821F00101016000F0A5F9054621
:101190000EE000BF00F0A0F9401B0A2808D9606AE1
:1011A00040F400306062052084F82000012070BD0A
:1011B00020684068C007EDD1606270BD704770471D
:1011C0007047704770477047704770B54379012B7F
:1011D0001AD0012646710223037105682C6840F677
:1011E000FE7393409C43D1E900310B43934023436A
:1011F0002B6001680B68C0249440A3430B60067108
:1012000000214171084670BD022070BD70B5040018
:1012100003D02079002510B105E0012070BD657173
:10122000204600F007F8022020712561012020717E
:10123000002070BD10B586B0044614216846FEF744
:10124000F7FF1149206888421CD11048002102682C
:1012500042F000520260006800F0005005900B4818
:101260001038026842F001020260006800F00100DC
:101270000590302000900320CDE901016946044823
:1012800000F04CF806B010BD007400404038024039
:101290000000024018B5046800940068104421B1B1
:1012A000143000900360002018BD0830F9E730B515
:1012B0004279012A16D00122427102230371036888
:1012C0001D6802FA01F425431D60002901680B68BE
:1012D0000AD00C6803F4802304F46014B3F5802F63
:1012E0000FD015E0022030BD0C6803F0040304F0B9
:1012F0003804042B0CD1382C0AD14B6843F001037D
:1013000005E0B4F5601F03D14B6843F002034B6066
:10131000027100214171084630BD00002DE9F84FEF
:10132000DFF87CB100224FF001084FF0030A4FF0C4
:101330000F090BF1040E00BF0B6808FA02F42340FA
:10134000A3426ED14D68022D01D0122D0ED1D508C9
:1013500000EB850CDCF820505607F70E09FA07F66B
:10136000B5430E69BE402E43CCF820600668550098
:101370000F790AFA05FC07F0030726EA0C06AF40CE
:10138000374307604E68012E05D0022E03D0112E80
:1013900001D0122E0ED18668CF6826EA0C06AF4027
:1013A000374387604668A6430C79C4F30014944021
:1013B00034434460C6688C6826EA0C06AC4034436B
:1013C000C4604C68E40065D5364C256845F480451A
:1013D0002560246822F0030504F480440094324C14
:1013E0002E19D6F8084895072F0F09FA07F5AC43D0
:1013F0002E4DA84201D1002524E02D4DA84201D157
:1014000001251FE02B4DA84201D102251AE02A4DEB
:10141000A84201D1032515E0284DA84202D1042598
:1014200010E037E0264DA84201D105250AE0254D00
:10143000A84201D1062505E0234DA84201D1072588
:1014400000E00825BD402543C6F80858DBF80040F9
:101450005D464E689C43F60300D51C432C60DEF8C5
:10146000004075464E689C43B60300D51C432C6073
:101470000B4D08352C684E689C43F60200D51C4382
:101480002C60074D0C352C684E689C43B60200D585
:101490001C432C60521C102AFFF44EAFBDE8F88F9D
:1014A000003C01404438024000300140000002404E
:1014B0000004024000080240000C024000100240FC
:1014C0000014024000180240001C02400AB1816171
:1014D00070470904FBE7000001488068704700007E
:1014E0002C00002002488168027811448160704716
:1014F0002C0000200B4810B5016841F40071016018
:10150000016841F480610160016841F4807101600B
:10151000032000F06DF8002000F006F800F024F839
:10152000002010BD003C024070B50D4D04464FF444
:101530007A712878B1FBF0F00A490968B1FBF0F044
:1015400000F0DEFA48B9102C07D200222146501EC6
:1015500000F02EF800206C6070BD012070BD00000E
:101560002C000020380000200A4808B5016841F42A
:1015700080410160006800F4804000900548001F31
:10158000016841F080510160006800F080500090D7
:1015900008BD00004438024000F01F0201219140C4
:1015A0004009800000F1E020C0F800117047000001
:1015B000F0B40E4B1B680C46C3F30223C3F10705BE
:1015C000042D00D90425191D072901D2002300E0AC
:1015D000DB1E012606FA05F1491E214099409E4076
:1015E000761E16403143F0BC00F0B2BD0CED00E0B9
:1015F000064900F0070208684FF6FF03184040EA6A
:101600000220034A10430860704700000CED00E020
:101610000000FA052DE9F0470E46050065D0DFF819
:101620001481D8F80000F7B200F00F00B04207D2E2
:1016300088F80070D8F8000000F00F00B04254D1D4
:1016400028683D4C810712D5400703D5206840F437
:10165000E05020602878000703D5206840F46040FF
:1016600020602068A96820F0F000084320602878F6
:10167000C0072DD0304968680839012812D00228E7
:1016800013D0032811D00968890700292DDA2168B1
:1016900021F0030101432160FFF71EFF814641F263
:1016A000883A0EE009688903EFE709688901ECE7E9
:1016B000FFF712FFA0EB0901514502D90320BDE855
:1016C000F0872068696800F00C00B0EB810FEFD163
:1016D000D8F80010404601F00F01B14207D9077059
:1016E000006800F00F00B04201D00120E7E7287841
:1016F000400705D52068E96820F4E05008432060E1
:101700002878000706D52068296920F4604040EA5F
:10171000C100206000F036F82168084AC1F30311C7
:10172000515CC840064908600020FFF7FDFE00201C
:10173000C5E70000003C02400838024020280008AD
:10174000380000200448054900680968044AC1F3CC
:101750008221515CC84070473800002008380240A0
:10176000302800080448054900680968044AC1F3A4
:101770004231515CC84070473800002008380240B0
:1017800030280008154810B5006810F00C02144805
:1017900013D04110042A0FD0082A0ED10F4C241F59
:1017A0002268236802F03F025B0207D52068C0F37D
:1017B0008810A0FB010106E0084610BD2168C1F3B6
:1017C0008811A1FB00010023FEF7FAFC2168C1F398
:1017D0000141491C4900B0FBF1F010BD083802403E
:1017E0000024F4002DE9F84F050076D02878DFF8C2
:1017F000F8B2BE4CC00749D0DBF800105846C1F320
:101800008101012908D00068C0F3810002280AD1B3
:10181000201D0068400206D52068800336D5686820
:101820000028E2D032E06868B0F5803F10D0B0F513
:10183000A02F206810D020F480302060206820F491
:10184000802020606868A0B1FFF746FE06460CE0E5
:10185000206840F48030F4E740F480202060F7E70F
:10186000FFF73AFE801B642873D820688003F7D501
:101870000CE0FFF731FE064605E000BFFFF72CFE47
:10188000801B6428F0D820688003F7D42878DFF81C
:10189000608280074FF000093ED5DBF80010584603
:1018A00011F00C0F09D00068C0F3810002280BD1A1
:1018B0008D48001F0068400206D42068800715D5B7
:1018C000E868012809D111E0E868B8B10120C8F83A
:1018D0000000FFF701FE064605E002E1FFF7FCFD10
:1018E000801B0228C0D820688007F7D520682969A6
:1018F00020F0F80040EAC10020600DE0C8F8009038
:10190000FFF7EAFD064604E0FFF7E6FD801B02282C
:101910001FD820688007F7D42878000722D5724E98
:10192000744869696C3671B101210160FFF7D4FD1B
:10193000074604E0FFF7D0FDC01B022809D8306835
:101940008007F7D50EE0C0F80090FFF7C5FD074609
:1019500005E083E0FFF7C0FDC01B02287ED8306899
:101960008007F7D42878400768D5DFF87CA10027E6
:101970000AF1380ADAF80000C0000BD4DAF80010D7
:1019800041F08051CAF80010DAF80000012700F099
:1019900080500090584E3068C00510D4306840F434
:1019A00080703060FFF798FD009005E0FFF794FD30
:1019B0000099401A022851D83068C005F6D54A4E21
:1019C000A868683601280FD00528306810D020F0AC
:1019D00001003060306820F004003060A868B8B1C1
:1019E000FFF77AFD00900FE0306840F00100F4E767
:1019F00040F004003060F7E7FFF76EFD0099411AF0
:101A000041F28830814264D830688007F4D50EE016
:101A1000FFF762FD009007E0FFF75EFD0099411AB5
:101A200041F28830814254D830688007F4D42FB115
:101A3000DAF8001021F08051CAF80010A869C0B38C
:101A4000DBF80010C1F3810102294AD00228484680
:101A500007D0C8F86000FFF73FFD00E039E0054619
:101A60003AE04746C8F86000FFF736FD064604E056
:101A7000FFF732FD801B02282BD820688001F7D4A5
:101A8000D5E907010843A96A1C4A490802EB01414C
:101A90006A6A41EA8211084395F82C1040EA016114
:101AA0001148001F016001203866FFF715FD05464B
:101AB00005E014E0FFF710FD401B022809D820685C
:101AC0008001F7D50BE000BFFFF706FD401B0228A1
:101AD00002D90320BDE8F88F20688001F4D40020EB
:101AE000F8E70120F6E7000008380240003802401D
:101AF00000004742800E4742007000400000FFFF98
:101B000010B5401EB0F1807F01D3012010BD4FF011
:101B1000E02460610F21601700F01AFB0020A06133
:101B200007202061002010BD7047704730B590F845
:101B30003820012A20D0012280F83820022380F8A2
:101B4000393003685C6824F070045C6003685C688A
:101B50000D682C435C6003689C6824F080049C60E2
:101B600003689C6849680C439C6080F83920002118
:101B700080F83810084630BD022030BD10B5040092
:101B800003D094F8390010B107E0012010BD002007
:101B900084F83800204600F00DF8022084F839005F
:101BA000211D206800F094FB012084F839000020FA
:101BB00010BD000008B500680B49884212D10B48DF
:101BC000016841F0800101600068002200F080009F
:101BD000009011462C20FFF7EBFCBDE808402C20BC
:101BE000FFF7DABC08BD0000001C0040403802408E
:101BF0000168CA6842F00102CA600068016841F0E9
:101C000001010160002070472DE9F0410D460400FC
:101C100003D094F8390018B108E00120BDE8F08144
:101C2000002084F83800204600F03AF8022084F8BA
:101C300039002068816821F007018160211D20683A
:101C400000F046FB226890689169166A2B68AF69BC
:101C5000034340F20330814341EA0721A868EF695A
:101C600008434FF6FC418843E96840EA07200143F6
:101C700028692F6A000140EA0730084369686D69E6
:101C800026F0AA0646EA051529439360226890616A
:101C900020680162012084F839000020BEE70000BE
:101CA00010B586B0044614216846FEF7C1FA1649FD
:101CB0002068884226D115480021026842F00202BD
:101CC0000260006800F002000590104810380268B9
:101CD00042F001020260006800F001000590C0209F
:101CE00000900220CDE90101CDE9031069460848C2
:101CF000FFF714FB002211461D20FFF759FC1D20A1
:101D0000FFF74AFC06B010BD000400404038024016
:101D100000000240704770B50446006801694FF04A
:101D20000005C943890715D4C168C943890711D47F
:101D3000E91E016101202076206880698007204625
:101D400002D0FFF7E7FF04E000F098F8204600F02B
:101D500096F8257620680169C943490717D4C168F8
:101D6000C943490713D46FF00401016102202076B2
:101D70002068806910F4407F204602D0FFF7CAFF38
:101D800004E000F07BF8204600F079F82576206822
:101D90000169C943090716D4C168C943090712D4A8
:101DA0006FF008010161042020762068C069800777
:101DB000204602D0FFF7AEFF04E000F05FF82046B7
:101DC00000F05DF8257620680169C943C90617D47B
:101DD000C168C943C90613D46FF01001016108201E
:101DE00020762068C06910F4407F204602D0FFF7BB
:101DF00091FF04E000F042F8204600F040F825761C
:101E000020680169C943C90708D1C168C943C90726
:101E100004D1891E0161204600F032F82068016972
:101E2000C943090609D4C168C943090605D46FF03E
:101E3000800101612046FFF777FE20680169C943F0
:101E4000490609D4C168C943490605D46FF0400169
:101E50000161204600F015F820680169C943890630
:101E60000BD4C168C943890607D46FF02001016112
:101E70002046BDE87040FFF758BE70BD7047704700
:101E80007047704770B5040004D094F839000025FD
:101E900010B106E0012070BD84F83850204600F0F3
:101EA00023F8242084F839002068C16821F4005107
:101EB000C160204600F06CFA2068016921F490416D
:101EC00001612068416921F02A0141612068C168EF
:101ED00041F40051C160E563202084F8390084F8A2
:101EE0003A00002070BD0000F0B587B00446142110
:101EF0006846FEF79DF91A49206888422DD1194895
:101F0000016841F480110160006800F480100590C0
:101F100014481038016841F004010160016801F0C3
:101F200004010591016841F0080101600068022484
:101F300000F0080005904FF4805001250326082783
:101F40008DE8F10069460848FFF7E8F904208DE8BC
:101F5000F10069460548FFF7E1F907B0F0BD000060
:101F6000005000404038024000080240000C02408F
:101F7000FEE7000030B58DB0002409940A940B945C
:101F8000242168460C94FEF753F919481749012596
:101F900001604FF48031C0E9011484611549046285
:101FA000C0E90A14C0E90345C56145610463FEF751
:101FB000D9FCCDE9094509A90D480B94FEF72CFC85
:101FC00002200490CDE900450B480294CDE90704B6
:101FD00006940594694606480394FEF77BFA694621
:101FE00003480095FEF776FA0DB030BD00200140A1
:101FF0003C0000200100000F01000F0010B5184840
:102000008AB0164901600E210024C0E901144FF086
:102010008071C160C9110161C900416104764476D3
:102020008476C47604774477FEF770FF0120CDE90B
:102030000640039405940890009401940294694624
:1020400004940748FEF760FD0548FFF78BF802216E
:102050000348FEF7E1FC0AB010BD00000064004038
:102060008400002030B587B014216846FEF7E0F800
:102070001D480024016841F080010160016801F001
:1020800080010591016841F001010160016801F0E2
:1020900001010591016841F004010160016801F04E
:1020A00004010591016841F008010160016801F037
:1020B00008010591016841F00201016000680B4DC3
:1020C00000F002000590002260212846FFF7FEF98B
:1020D000602000900120CDE9010469462846039460
:1020E000FFF71CF907B030BD303802400004024051
:1020F00010B58CB024216846FEF79AF800241248E7
:10210000099410490A94C0E900144FF6FF71C0E920
:10211000024104610320CDE900040120CDE902045D
:102120000494CDE905400794694607480894FFF7F1
:102130006BFD099409A904480A94FFF7F7FC0CB059
:1021400010BD000000040040C0000020FEE7704702
:102150000907090E002806DA00F00F0000F1E02060
:1021600080F8141D704700F1E02080F800147047DB
:1021700070477047FFF7B6B930B593B03021684665
:10218000FEF756F814210CA8FEF752F8194800255E
:10219000016841F080510160006800F080501190AA
:1021A0001548016841F4804101600068022400F490
:1021B0008040119001200090000401908001CDE941
:1021C000064008AA0420A82182E813000B90684664
:1021D000FFF708FB0CA90F2081E831004FF4A05055
:1021E0000F90E002109005210CA8FFF713FA13B02E
:1021F00030BD0000403802400070004010480168C7
:1022000041F4700101600F48016841F00101016073
:102210000C4A00210832116002680B4B1A40026020
:10222000031D0A4A1A60026822F4802202600548EF
:102230000C30016002495806803908607047000080
:1022400088ED00E000380240FFFFF6FE1030002469
:102250000648016806480029416804D0491E4160CB
:102260000448FFF758BD491CF9E70000240400406A
:1022700020000020C000002010B51248FFF74BFDE1
:102280001148FEF767FA64210F48FEF71EFA022193
:102290000D48FEF7FDF900EE100A0C4C0121B8EED6
:1022A000400A094884ED020AFEF7F2F900EE100A2E
:1022B000D4ED020AB8EE400A30EEC00A84ED020AFC
:1022C00010BD0000FC0000203C0000202000002089
:1022D000F0B50268234B244D244E254F254C4FF07A
:1022E000804C984209D0604507D0A84205D0B04242
:1022F00003D0B84201D0A04204D122F0700E4A6847
:1023000042EA0E0298421BD0604519D0A84217D06D
:10231000B04215D0B84213D0A04211D0164DA842F9
:102320000ED0164DA8420BD0154DA84208D0154D21
:10233000A84205D0144DA84202D0144DA84203D1A2
:1023400022F44075CA682A4302608A68C2620A6839
:102350008262984201D0A04201D109690163012142
:102360004161F0BD00000140000400400008004051
:10237000000C0040000401400040014000440140C6
:102380000048014000180040001C004000200040B0
:102390002DE9F04104460068016921F44052E168EA
:1023A000114301612168C86849F20C6290432369B6
:1023B000A268E5691A4363692B431A430243CA6062
:1023C0002168486920F44072A06910434861E169BE
:1023D0006425B1F5004F9748974A21684FF03208BD
:1023E0003FD0914201D081427CD1FFF7BBF900EB95
:1023F000C00101EB001061688900B0FBF1F6FFF746
:10240000B1F900EBC00101EB001061688900B0FB7D
:10241000F1F0B0FBF5F06FF01801484306EB8001D6
:1024200008EB0110B0FBF5F000F0F006FFF79AF9A9
:1024300000EBC00101EB001061688900B0FBF1F016
:10244000B0FBF5F006EB0016FFF78CF900EBC001CE
:1024500001EB001061688900B0FBF1F7FFF782F92A
:10246000D2E0914201D081423DD1FFF77BF900EBF0
:10247000C00101EB001061684900B0FBF1F0B0FB56
:10248000F5F00601FFF76EF900EBC00101EB00105B
:1024900061684900B0FBF1F7FFF764F900EBC00198
:1024A00001EB001061684900B0FBF1F0B0FBF5F002
:1024B0006FF01801484307EB800108EBC100B0FB47
:1024C000F5F000F0F80006EB4006FFF74BF900EBE3
:1024D000C00101EB001061684900B0FBF1F7FFF7A4
:1024E00041F93CE055E0FFF72DF900EBC00101EBAD
:1024F000001061684900B0FBF1F0B0FBF5F0060197
:10250000FFF720F900EBC00101EB00106168490002
:10251000B0FBF1F7FFF716F900EBC00101EB00107B
:1025200061684900B0FBF1F0B0FBF5F06FF0180105
:10253000484307EB800108EBC100B0FBF5F000F069
:10254000F80006EB4006FFF7FDF800EBC00101EBD9
:10255000001061684900B0FBF1F7FFF7F3F800EBFA
:10256000C00101EB001061684900B0FBF1F0B0FB65
:10257000F5F06FF01801484307EB800108EBC1004C
:10258000B0FBF5F000F00700216830448860BDE83A
:10259000F081FFF7D7F800EBC00101EB0010616894
:1025A0008900B0FBF1F6FFF7CDF800EBC00101EBBD
:1025B000001061688900B0FBF1F0B0FBF5F06FF03E
:1025C0001801484306EB800108EB0110B0FBF5F061
:1025D00000F0F006FFF7B6F800EBC00101EB0010C9
:1025E00061688900B0FBF1F0B0FBF5F006EB001676
:1025F000FFF7A8F800EBC00101EB0010616889004B
:10260000B0FBF1F7FFF79EF800EBC00101EB001003
:1026100061688900B0FBF1F0B0FBF5F06FF01801D4
:10262000484307EB800108EB0110B0FBF5F000F028
:102630000F00A9E70014014000100140FEE702E08E
:1026400008C8121F08C1002AFAD17047704700203D
:1026500001E001C1121F002AFBD1704704494868FC
:10266000044AC0EB004012681044086000B2704792
:1026700020000020240400403D4800242DED028B62
:1026800082B0C4600621846001610121016004758B
:10269000FEF730FFFFF770FDFFF7E4FCFFF7AEFC3D
:1026A00033490094E8393348019408600846FEF73E
:1026B000ADFD2F48009400226946E8380194FEF7EA
:1026C00084FD2B4810226946E838FEF77EFDFFF7AF
:1026D00051FC274828495C3801604FF4E131C0E9DA
:1026E00001140C21C460C0E904418461C461FFF796
:1026F000C9FB1F4821499838C0E9001442F2CF01B4
:10270000C0E902410461FFF739FAFFF7F1FC18480C
:102710009838FFF76DFA1648D438FFF769FA14486D
:102720000021E838FEF7C3FD11481021E838FEF714
:10273000BEFDFEF7D1FE124CA0609FED128A124D35
:10274000FEF7CAFEFFF78AFFFDF77DFDC4E904012D
:10275000FEF7C2FEA168401A3228F1D9B0EE480A4D
:1027600000F014F8002220212846FEF7AFFEE7E72C
:10277000940100200074004000500040001C004004
:1027800000000020000000000004024010B51F49B6
:102790002DED028BB0EE408A18EE100A884202DD61
:1027A0009FED1B8A06E018EE100A1A49884201D9EB
:1027B0009FED198AB5EEC08AF1EE10FA12DDBCEE7B
:1027C000C80A10EE103A002210211448FEF762FDEC
:1027D0000023BDEC028B0022BDE8104011460F48DB
:1027E000FEF758BDB5EEC08A4FF00003F1EE10FAC7
:1027F000E9D2002210210948FEF74CFDB1EE480A4B
:10280000BCEEC00A10EE103AE3E7000000F07F458E
:1028100000F07F4500F07FC500F07FC5AC000020D0
:102820000000000000000000010203040607080980
:1028300000000000010203045828000800000020E6
:102840003C0000003E260008942800083C000020C0
:10285000740500004E260008000000000000000083
:102860000000000000000000000000000000000068
:102870000000000000000000000000000000000058
:102880000000000001000000100000000000000037
:042890000024F4002C
:040000050800018965
:00000001FF
