:020000040800F2
:10000000C805002001010008071F00089D1D000809
:10001000051F0008E5010008112400080000000089
:100020000000000000000000000000002B1F00087E
:100030002B02000800000000291F00082D1F0008E7
:100040001B0100081B0100081B0100081B01000820
:100050001B0100081B0100081B0100081B01000810
:100060001B0100081B0100081B0100081B01000800
:100070001B0100081B010008F50100081B01000816
:100080001B0100081B0100081B010008F9230008E0
:1000900005240008E90100081B0100081B010008F5
:1000A0001B0100081B0100081B0100081B010008C0
:1000B000D91F00081B0100081B0100081B010008D4
:1000C0001B0100081B0100081B0100081B010008A0
:1000D0001B010008ED2300081B0100081B0100089C
:1000E0001B0100081B0100081B010008DFF80CD0F1
:1000F00000F040F800480047BD250008C805002072
:100100000648804706480047FEE7FEE7FEE7FEE7B1
:10011000FEE7FEE7FEE7FEE7FEE7FEE7911F0008C9
:10012000ED000008D2B201E000F8012B491EFBD21D
:1001300070470022F6E710B513460A4604461946F2
:10014000FFF7F0FF204610BD30B50B4601460020FA
:100150002022012409E021FA02F59D4205D303FA89
:1001600002F5491B04FA02F52844151EA2F101020A
:10017000F1DC30BD064C074D06E0E06840F00103BD
:1001800094E8070098471034AC42F6D3FFF7B2FF6B
:10019000502700087027000870B504460068816881
:1001A000C943C9071CD1816821F00101816000F0B9
:1001B0004BFF05460FE000BF00F046FF401B022842
:1001C00009D9A06A40F01000A062E06A40F0010086
:1001D000E062012070BD20688068C043C007EBD09A
:1001E000002070BDFEE70000014800F0BBBA00002F
:1001F0005C000020014800F02FBD000084010020B9
:1002000030B590F840500124AC40C56B6C60046878
:1002100063604368102B036803D099600068C26074
:1002200030BD9A600068C16030BD70477047000003
:10023000F8B50024009490F824202546012A12D015
:10024000012280F824204A681F23072A0DD206685D
:10025000776B521E02EB820293409F430B689340E0
:100260001F43776319E00220F8BD06680D2A0AD201
:10027000376BD21F02EB820293409F430B6893407F
:100280001F43376309E0F76A0D3A02EB820293409D
:100290009F430B6893401F43F7620A680723066871
:1002A0000A2A0AD3F7680A3A02EB420293409F43B4
:1002B0008B6893401F43F76008E0376902EB420206
:1002C00093409F438B6893401F4337610A68102A0D
:1002D00001D0112A20D1124B02689A4217D193689B
:1002E0001B0219D4936843F4000393600968102932
:1002F00012D10C490C4A0968B1FBF2F101EB810102
:10030000490000E0491E00910029FBD104E0816A08
:1003100041F020018162012480F824502046F8BD7C
:10032000002401402800002040420F002DE9F04148
:100330004FF0000704003D467ED0A06A002628B991
:10034000E66284F82460204600F07EF82046FFF73D
:1003500023FFA16AC90600D420B1A06A40F01000B2
:10036000A06269E0A16A21F4885141F00201A16212
:100370006268E169E3680A4347EA43010A43A16806
:100380004FF48077B94209D0012907D05FF000010E
:10039000D4F814C0BCF1010F02D00AE03946F7E7E7
:1003A000F3B1A36A43F02003A362E36A43F00103BD
:1003B000E3622368D3F804C02CF4694C4CEA010CC6
:1003C000C3F804C021688B68DFF870C003EA0C032F
:1003D00013438B60A168B9420BD0012909D00CE00E
:1003E000DFF85CC0A3690CEB43330B4343F40061BB
:1003F000DFE7218A0D05A5F580152168CB6A23F476
:1004000070032B43CB62216889680E4B19409142DF
:1004100008D1E662A16A21F0020141F00101A16266
:10042000BDE8F081A06A20F0020040F01000A06258
:10043000E06A40F00100E0620120F1E7FDF7E1FF32
:1004400000E0FFFFFE0E1FFF00B585B00021009108
:1004500001910291039100680E49884218D10E481B
:10046000816941F400718161816901F40071049135
:10047000816941F0040181618069694600F00400EE
:1004800004900120009003200190044800F0F4FC47
:1004900005B000BD002401400010024000080140EA
:1004A00090F82020012A07D0022A05D0416A41F4A1
:1004B0008021416201207047006842690A4342611D
:1004C00000207047F0B590F820500468A468012D12
:1004D00005D0022D03D0416A41F4802153E014F08D
:1004E000406F01D1E5004BD5C4F30164022C03D960
:1004F000416A41F4000146E00125A5401D608D6878
:100500004FF4C0739DB1CE6835434E6845EAC605C9
:10051000066803EB0417F5514FF4C275076805EB45
:1005200004150E697E51097D012905D009E00E8868
:10053000CD6845EA4655EBE701684E5946F48076AA
:100540004E511179D2F805504FF4C67641EA05258F
:10055000016806EB04168D511178D2F801204FF492
:10056000C47541EA0221026805EB04155151006887
:1005700003EB0411425842F0010242500020F0BD4A
:10058000416A41F4001141620120F0BD10B590F8BC
:1005900020300268012B07D0022B05D0416A41F4BC
:1005A00080214162012010BDD2F8000240F001001C
:1005B000C2F80002087D00F01F0301209840D2F825
:1005C0001C328343C2F81C32CB69B3B9D2F80C3267
:1005D0008343C2F80C328C894B6864F31F434C6927
:1005E00002EBC404C4F840320C890B6864F31F4367
:1005F0004C6902EBC404C4F84432CB69012B16D118
:10060000D2F80C320343C2F80C320C884B6864F306
:100610001F434C6902EBC404C4F840320C89CB6818
:1006200064F31F434C6902EBC404C4F844328B6981
:10063000002BD2F804320FD053EA0003C2F8043280
:100640000B69002BD2F8143208D00343C2F81432DD
:10065000096A012904D008E08343EFE78343F5E703
:10066000D2F81C120143C2F81C12D2F8000220F08A
:100670000100C2F80002002010BD704730B590F8AC
:100680002040012C05D0022C03D0416A41F4802186
:100690005DE00468002955D02469A40754D04FF4C4
:1006A000D874056804EB01142D5915F00405956004
:1006B00005682D594ED0ED08556005682C59C4F3D6
:1006C0004004D4604FF4DA74056804EB01142D592A
:1006D00005F00F05156105682D59C5F307259561CE
:1006E00005682C59240C54614FF4DC72046802EB49
:1006F0000112A4581C700468A458240A5C70046891
:10070000A458240C9C700468A258120EDA704FF49E
:10071000DE72046802EB0112A4581C710468A4582C
:10072000240A5C710468A458240C9C710468A258C3
:10073000120EDA71006881B1016941F02001016196
:10074000002030BDE468A8E7416A41F4001141622D
:10075000012030BD6D0D1560AFE7C16841F020018B
:10076000C160EDE72DE9F05F0546006800244669A9
:10077000D0F804908768D0F80CB0D0F810A0D0F86A
:100780001880F10748D0F90714D001218160B8071B
:1007900003D5284600F00DFA0CE0780702D54FF497
:1007A000006407E0380702D54FF4805402E0284681
:1007B00000F0FEF9F80516D529684FF480708860BE
:1007C000B80503D5284600F0F6F90CE0780502D507
:1007D00044F4005407E0380502D544F4804402E0B4
:1007E000284600F0E7F9F80316D529684FF4803061
:1007F0008860B80303D5284600F0DFF90CE07803E1
:1008000002D544F4004407E0380302D544F48034B0
:1008100002E0284600F0D0F9300707D55FEACB6048
:1008200004D52968102044F40074C86070074FF0A4
:10083000080707D55FEA0B7004D52868C76028460B
:1008400000F06AF9B00706D52868C068800702D0B2
:10085000284600F063F9700607D55FEACA6004D540
:100860002968102044F480640861B00607D55FEA67
:100870000A7004D528680761284600F069F9F00677
:1008800006D528680069800702D0284600F061F983
:10089000B00308D55FEAC96005D529681020486013
:1008A000284600F057F9F00307D55FEA097004D530
:1008B00028684760284600F081F9300446D55FEA91
:1008C000497040D5F00504D55FEAC87001D044F006
:1008D0000104B00504D55FEA887001D544F0020434
:1008E000700504D55FEA487001D544F00404300572
:1008F00029D518F0700F26D008F07000402815D0C8
:1009000006DC102809D020280AD0302816D10AE0A9
:1009100050280ED0602811D10EE044F008040DE0FC
:1009200044F010040AE044F0200407E044F04004DE
:1009300004E044F0800401E044F480742868816994
:1009400021F070018161296804204860002C05D0E5
:10095000686A204368622846FFF78FFEBDE8F09F73
:1009600070B5040003D094F8200010B104E0012019
:1009700070BD204600F082F82068016821F0020175
:10098000016000F061FB0546052604E000F05CFB19
:10099000401B0A2811D8206840688007F6D42068D8
:1009A000016841F00101016000F04EFB05460BE0DB
:1009B00000F04AFB401B0A2806D9606A40F4003068
:1009C000606284F82060D2E720684068C007EFD0FA
:1009D000207E0128206801683DD021F0800101605F
:1009E000607E01282068016838D021F04001016054
:1009F000A07E01282068016833D021F02001016029
:100A0000E07E0128206801682ED041F010010160CD
:100A1000207F01282068016829D021F008010160A9
:100A2000607F01282068016824D021F00401016062
:100A3000D4E902010843D4E9041211430843616870
:100A4000491E08432168C86100206062012084F8C3
:100A50002000002070BD41F08001C0E741F040015E
:100A6000C5E741F02001CAE721F01001CFE741F0CE
:100A70000801D4E741F00401D9E7000010B586B0C1
:100A80000021009101910291039100681F49884261
:100A90003AD11F48C16941F00071C161C16901F0DB
:100AA00000710491816941F0040181618069194CF0
:100AB00000F0040004904FF4006000906946204666
:100AC00000F0DAF9A01400900220019003200390B6
:100AD0006946204600F0D0F900221146132000F0AC
:100AE0001DFB132000F00EFB00221146142000F025
:100AF00015FB142000F006FB00221146152000F023
:100B00000DFB152000F0FEFA06B010BD0064004099
:100B10000010024000080140704700001CB56B4601
:100B2000094A0021FFF7AAFD07480168012909D1F8
:100B30008068002806D10548416000990161BDF830
:100B4000041081821CBD0000040100200000002070
:100B5000704770477047000070B5044690F8200059
:100B6000012804D0606A40F40020606218E002208E
:100B700084F820002068016821F00101016000F084
:100B800063FA05460EE000BF00F05EFA401B0A283B
:100B900008D9606A40F400306062052084F82000C3
:100BA000012070BD20684068C007EDD1606270BD53
:100BB0007047704770477047704770477047000034
:100BC00010B590F821100024022903D0042181637C
:100BD00001243DE001680A6822F00E020A60016803
:100BE0000A6822F001020A601A4A0168914201D1A2
:100BF000012121E0174A1432914201D110211BE05A
:100C0000144A2832914201D1891515E0114A3C322B
:100C1000914201D189140FE00E4A5032914202D123
:100C20004FF4803108E00B4A6432914202D14FF414
:100C3000801101E04FF08071064A083A51600121AD
:100C400080F82110002180F82010416B01B1884705
:100C5000204610BD080002402DE9F05FC16B0C6812
:100C600001680B68D0F840C0042202FA0CF2494D2A
:100C7000DFF824A1494E4A4FDFF828B1DFF828E118
:100C800022422CD05A072AD50A68920603D40A6851
:100C900022F004020A600168A94201D1042219E08D
:100CA000514501D1402215E0B14202D14FF480629A
:100CB00010E0B94202D14FF480420BE0594502D115
:100CC0004FF4802206E0714502D14FF4800201E02A
:100CD0004FF080622F4908394A60C16A3BE04FF00B
:100CE000020808FA0CF818EA040F4FF000094FF058
:100CF000010235D05FEA837832D50B689B0605D4B4
:100D00000B6823F00A030B6080F821200168A942D8
:100D100001D1022219E0514501D1202215E0B14252
:100D200002D14FF4007210E0B94202D14FF40052E8
:100D30000BE0594502D14FF4003206E0714502D173
:100D40004FF4001201E04FF00072124908394A6076
:100D500080F82090816A00291AD0BDE8F05F08472A
:100D6000082505FA0CF5254212D01B0710D50B6893
:100D700023F00E030B6090F84010C36B02FA01F1F0
:100D80005960826380F8212080F82090016BE2E7AF
:100D9000BDE8F09F080002401C0002403000024005
:100DA00044000240580002406C00024030B528B3B5
:100DB00008C8134914221944B1FBF2F18900C16338
:100DC00010498163022141771A6843F6F0718A4322
:100DD000D0E900142143D0E902452C4321430469A2
:100DE000214344692143846921431143196000214F
:100DF0004163012242770177084630BD012030BDB2
:100E0000F8FFFDBF0000024070B5044690F82000D6
:100E1000002501280CD0012084F8200094F82160DE
:100E20000020012E06D084F820000225284670BD3F
:100E3000022070BD022684F82160A0632068066845
:100E400026F0010606602046FFF7DAF9E06A00287E
:100E50002068016802D041F00E0106E021F0040193
:100E600001602068016841F00A01016020680168A2
:100E700041F001010160D9E72DE9F84FDFF890A1B9
:100E800000220AF1040B144601274FF00F090BF161
:100E9000040E00BF0B6807FA04F52B40AB4274D177
:100EA000DFF870C14E68A6EB0C0866452BD00DDC50
:100EB000032E34D005DC36B3012E19D0022E2FD1EB
:100EC0001BE0112E16D0122E2AD119E0B8F5881F7A
:100ED00019D006DCB8F5803F15D0B8F5801F1FD1BA
:100EE00011E0B8F5001F0ED0B8F5041F18D10AE0C4
:100EF000CA6815E0CA68121D12E0CA6808320FE01D
:100F0000CA680C320CE08A682AB1012A4FF0080244
:100F100003D0456104E0042202E0056100E0002204
:100F2000FF2B01D8064601E000F104064FEA8405D4
:100F300001D9A5F12005D6F800C009FA05F82CEA78
:100F4000080C02FA05F54CEA050CC6F800C04D681D
:100F5000ED0057D5304DAE6946F00106AE61AD6982
:100F600024F0030605F0010500952C4D06EB050C59
:100F7000DCF80850A6074FEA167809FA08F6B543D8
:100F8000274EB04202D1002610E03BE0254EB04291
:100F900001D101260AE0244EB04201D1022605E02B
:100FA000224EB04201D1032600E0042606FA08F6DC
:100FB0002E43CCF808604D68DAF80060ED03554622
:100FC00001D51E4300E09E432E604D68DBF80060B3
:100FD000AD035D4601D51E4300E09E432E604D6883
:100FE000DEF80060ED02754601D51E4300E09E4329
:100FF0002E604D68AD020E4D2E6801D51E4300E0F7
:101000009E432E60641C102CFFF444AFBDE8F88FA3
:1010100000040140000011100010024000000140D7
:1010200000080140000C0140001001400014014084
:101030000C0401408068084000D0012070470AB1CC
:10104000016170470904FBE70148806870470000B0
:101050001C000020024881680278114481607047BA
:101060001C000020074810B5016841F01001016024
:10107000032000F073F8002000F006F800F024F8D8
:10108000002010BD0020024070B50D4D04464FF405
:101090007A712878B1FBF0F00A490968B1FBF0F0E9
:1010A00000F072FB48B9102C07D200222146501ED6
:1010B00000F034F800206C6070BD012070BD0000AD
:1010C0001C000020280000200C4808B5816941F070
:1010D00001018161816901F001010091C16941F063
:1010E0008051C161C06900F080500090044841689F
:1010F00021F0E06141F00071416008BD0010024044
:101100000000014000F01F020121914040098000D1
:1011100000F1E020C0F8001170470000F0B40E4B61
:101120001B680C46C3F30223C3F10705042D00D945
:101130000425191D072901D2002300E0DB1E01262A
:1011400006FA05F1491E214099409E40761E164040
:101150003143F0BC00F0D8BE0CED00E0064900F0D1
:10116000070208684FF6FF03184040EA0220034ACE
:1011700010430860704700000CED00E00000FA0525
:101180002DE9F84305460078354CC00754D0E06996
:101190000026C00008D4E06940F08050E061E069BA
:1011A000012600F0805000902E480168C90512D435
:1011B0000168804641F480710160FFF745FF0746F2
:1011C00005E000BFFFF740FFC01B642823D8D8F814
:1011D0000000C005F6D5206A10F4407021D0A9881F
:1011E00001F4407181421CD0206A1F49012220F481
:1011F00040700A6000220A602062C00711D0FFF729
:1012000023FF074641F2883808E000BFFFF71CFFC4
:10121000C11B414502D90320BDE8F883206A80073D
:10122000F4D5206A696820F44070084320621EB13A
:10123000E06920F08050E0612878800705D560687B
:10124000A96820F44040084360602878C00605D5AE
:101250006068E96820F48000084360600020DBE7F4
:101260000010024000700040400442422DE9F04767
:10127000DFF8548105460E46D8F8000000F007005C
:10128000B0420CD2D8F8001021F007013143C8F861
:101290000010D8F8000000F00700B0426FD12868B5
:1012A0004A4C810712D5400703D5606840F4E060DE
:1012B00060602878000703D5606840F46050606083
:1012C0006068A96820F0F000084360602878C007D3
:1012D00044D06868012816D02168022816D08907F2
:1012E00000294CDA616821F0030101436160FFF7D6
:1012F000ABFE6968074641F2883001290ED0022909
:10130000814618D026E021688903E9E78901E7E7EB
:10131000FFF79AFEC11B494501D918E08146606874
:10132000C0F381000128F3D118E000BFFFF78CFE65
:10133000C11B49450BD86068C0F381000228F5D174
:101340000CE000BFFFF780FEC11B494502D9032016
:10135000BDE8F087606810F00C0FF3D1D8F80010EA
:10136000404601F00701B1420BD9016821F00701A5
:1013700031430160006800F00700B04201D0012055
:10138000E6E72878400705D56068E96820F4E06062
:10139000084360602878000706D56068296920F452
:1013A000605040EAC100606000F036F86168084AA9
:1013B000C1F30311515CC840064908600020FFF7E3
:1013C00063FE0020C4E7000000200240001002403D
:1013D00038270008280000200448054900684968AB
:1013E000044AC1F30221515CC84070472800002024
:1013F0000010024048270008044805490068496871
:10140000044AC1F3C221515CC84070472800002043
:10141000001002404827000812A185B00FC98DE8CE
:101420000F0014A0144A006804905168134801F09A
:101430000C03042B10D0082B0ED1C1F38343C90336
:101440001DF803000AD5516804AAC1F34041515C5C
:101450000A4A5043B0FBF1F005B0704708494843D1
:10146000FAE7000002030405060708090A0B0C0D41
:101470000E0F1010010200000010024000127A004E
:1014800000093D002DE9F84F04460078B94DC0072A
:1014900048D06868C0F38100012807D06868C0F3AD
:1014A0008100022809D16868C00306D52868800336
:1014B00038D5606800286FD034E06068B0F5803FB0
:1014C0000BD010B1B0F5A02F11D0286820F48030D7
:1014D0002860286820F4802002E0286840F48030EA
:1014E0002860606888B1FFF7AFFD064609E028680C
:1014F00040F480202860F0E7FFF7A6FD801B6428F9
:1015000075D828688003F7D50CE0FFF79DFD0646E7
:1015100005E000BFFFF798FD801B6428F0D828681D
:101520008003F7D42078944E80074FF001094FF0E4
:1015300000083BD5686810F00C0F07D06868C0F34E
:101540008100022809D16868C00306D42868800792
:1015500014D5206901281FD110E02069B0B1C6F868
:101560000090FFF771FD074605E000BFFFF76CFD37
:10157000C01B0228C4D828688007F7D5286861698D
:1015800020F0F80040EAC10028600FE0C6F80080B3
:10159000FFF75AFD074606E0E9E000BFFFF754FDFC
:1015A000C01B022823D828688007F7D420780007BA
:1015B0002CD57248A169D9B1C0F80090FFF744FD5D
:1015C000074604E0FFF740FDC01B02280FD8686AF9
:1015D0008007F7D56A484FF4FA510068B0FBF1F084
:1015E000009000BF0098411E0091FAD20EE080E00A
:1015F000C0F80080FFF728FD074604E0FFF724FD50
:10160000C01B022875D8686A8007F7D42078400785
:1016100060D5E8690027C00008D4E86940F0805030
:10162000E861E869012700F08050009055480168A2
:10163000C90513D40168834641F480710160FFF746
:1016400003FD824606E000BFFFF7FEFCA0EB0A00A8
:1016500064284ED8DBF80000C005F5D5E068012805
:101660000AD008B1052813D0286A20F001002862AA
:10167000286A20F0040002E0286A40F00100286295
:10168000E06841F2883B98B1FFF7DEFC82460BE050
:10169000286A40F004002862EEE700BFFFF7D4FCA0
:1016A000A0EB0A0159455AD8286A8007F6D50CE004
:1016B000FFF7CAFC824605E0FFF7C6FCA0EB0A0173
:1016C00059454CD8286A8007F6D41FB1E86920F044
:1016D0008050E861E06988B36968C1F3810102293B
:1016E00045D00228C6F8608004D0FFF7ADFC044660
:1016F00038E034E0FFF7A8FC074604E0FFF7A4FC5D
:10170000C01B02282BD828688001F7D4206AB0F5C6
:10171000803F05D16868A16820F400300843686004
:10172000D4E908010843696821F47411084368602A
:10173000C6F86090FFF788FC044606E015E000BF9D
:10174000FFF782FC001B022809D828688001F7D522
:101750000BE000BFFFF778FC001B022802D9032032
:10176000BDE8F88F28688001F4D40020F8E7012054
:10177000F6E70000001002400000424280044242AE
:10178000280000200070004010B5401EB0F1807F9E
:1017900001D3012010BD4FF0E02460610F216017DC
:1017A00000F0B2FB0020A06107202061002010BDE6
:1017B0007047704730B590F83C20012A20D00122B4
:1017C00080F83C20022380F83D3003685C6824F0F8
:1017D00070045C6003685C680D682C435C6003689F
:1017E0009C6824F080049C6003689C6849680C43F2
:1017F0009C6080F83D20002180F83C10084630BDF8
:10180000022030BD10B5040003D094F83D0010B1A3
:1018100007E0012010BD002084F83C00204600F0C5
:101820000DF8022084F83D00211D206800F0DEFB49
:10183000012084F83D00002010BD000008B50068BC
:10184000B0F1804F12D10A48C16941F00101C16174
:10185000C069002200F00100009011461C20FFF733
:101860005DFCBDE808401C20FFF74CBC08BD000033
:10187000001002400168CA6842F00102CA600068B4
:10188000016841F0010101600020704770B5044615
:1018900090F83C00012817D0012584F83C50022024
:1018A00084F83D002068826822F0770222F47F42AB
:1018B00082600868502837D00DDC202859D005DC1C
:1018C00088B3102841D151E0022070BD302853D098
:1018D00040283AD13FE060282ED070280BD0B0F5D8
:1018E000805F03D0B0F5005F2FD110E020688168E1
:1018F00021F0070115E0CB68D1E90121206800F053
:10190000ABFB2168886840F0770088601DE0CB68F9
:10191000D1E90121206800F09FFB2068816841F433
:101920008041816011E01EE0CA684968206800F0CB
:10193000A5FB5021206806E0CA684968206800F0CD
:10194000AEFB6021206800F091FB84F83D50002040
:1019500084F83C0070BDCA684968206800F08EFBBE
:1019600040212068EFE700212068ECE71021206883
:10197000E9E720212068E6E730212068E3E77047A7
:1019800070B50446006801694FF00005C943890736
:1019900015D4C168C943890711D4E91E016101202A
:1019A0002077206880698007204602D0FFF7E7FF94
:1019B00004E000F098F8204600F096F825772068BB
:1019C0000169C943490717D4C168C943490713D4FA
:1019D0006FF004010161022020772068806910F413
:1019E000407F204602D0FFF7CAFF04E000F07BF8FA
:1019F000204600F079F8257720680169C943090776
:101A000016D4C168C943090712D46FF008010161F7
:101A1000042020772068C0698007204602D0FFF7A5
:101A2000AEFF04E000F05FF8204600F05DF8257797
:101A300020680169C943C90617D4C168C943C906EA
:101A400013D46FF010010161082020772068C0696D
:101A500010F4407F204602D0FFF791FF04E000F031
:101A600042F8204600F040F8257720680169C94314
:101A7000C90708D1C168C943C90704D1891E0161DA
:101A8000204600F032F820680169C943090609D4EC
:101A9000C168C943090605D46FF080010161204681
:101AA000FFF786FE20680169C943490609D4C16869
:101AB000C943490605D46FF040010161204600F09A
:101AC00015F820680169C94389060BD4C168C94368
:101AD000890607D46FF0200101612046BDE87040FF
:101AE000FFF767BE70BD704770477047704770471B
:101AF00070B5026804461068D168536910F00F0F82
:101B000050D003F0010501F4907635435DD0C20753
:101B100005D0CA0503D5E26B42F00102E263420739
:101B200005D5DA0703D0E26B42F00202E2638207D6
:101B300005D5DA0703D0E26B42F00402E263020744
:101B400005D5DA0703D0E26B42F00802E263E26BEC
:101B5000002A33D0800604D5880602D5204600F03E
:101B600010FB20684069E16BC0F38010090700D4C6
:101B700028B3204600F0EEFA2068416949061AD5DC
:101B8000416921F040014161606BA0B11B49416393
:101B9000606BFFF715F8002810D0606B416BBDE853
:101BA00070400847830610D58B060ED52046BDE849
:101BB000704000F0E6BA2046FFF799FF70BD20465E
:101BC000FFF795FF0020E06370BD030606D50B0606
:101BD00004D52046BDE8704000F0D6BB4006F3D5E2
:101BE0004806F1D5D168204621F04001D16020217E
:101BF00084F8391000F0D0F870BD0000C320000850
:101C000070B5040004D094F83900002510B106E046
:101C1000012070BD84F83850204600F023F82420BD
:101C200084F839002068C16821F40051C160204661
:101C300000F0F2FA2068016921F490410161206806
:101C4000416921F02A0141612068C16841F40051D5
:101C5000C160E563202084F8390084F83A00002050
:101C600070BD000070B586B0002506460095019550
:101C7000029503950068224988423FD1214988692D
:101C800040F480408861886900F48040049088694D
:101C900040F00400886188691B4C00F00400049047
:101CA00048150090022001900320039069462046C9
:101CB000FFF7E2F82015CDE90005694620460295B8
:101CC000FFF7DAF8124C114820601020C4E9010532
:101CD0008020C4E903056561A5612046E561FFF741
:101CE00065F808B1FEF7A2FA3463002211462520F8
:101CF0006662FFF713FA2520FFF704FA06B070BDFD
:101D00000038014000100240000801404400024039
:101D1000840100207047000070B5044690F8390037
:101D2000202830D169B362B394F8380001282AD052
:101D3000012084F838002162A284E2840025E56352
:101D4000212084F83900236B10489862236B1048D7
:101D5000D862236B0F481863206B134645632668CF
:101D6000206B321DFFF750F821686FF040000860CB
:101D700084F838502068416941F0800141610020B9
:101D800070BD012070BD022070BD00001D21000843
:101D90004B210008D320000870477047FEE7000081
:101DA0003EB500240D480094019402948460C46000
:101DB000094944610160012505614FF460214460D7
:101DC000C161FEF7B3FACDE90045694603480294C4
:101DD000FEF72EFA3EBD0000002401402C0000203A
:101DE00010B518488AB0164901600C210024C0E9DA
:101DF00001144FF08071C160C9110161C9004161D6
:101E0000047644768476C47604774477FEF7A8FD9A
:101E10000120CDE9064003940594089000940194B4
:101E20000294694604940748FEF7B0FB0548FEF7A4
:101E300093FE02210348FEF733FB0AB010BD0000F9
:101E4000006400405C00002070B586B00024174894
:101E50000094019402940394816941F0200181610E
:101E6000816901F020010491816941F004018161DF
:101E700080690F4E00F004000490002206213046D5
:101E8000FFF7DDF80620009001AA0120022582E874
:101E9000310069463046FEF7EFFF08208DE831003B
:101EA00069463046FEF7E8FF06B070BD00100240FC
:101EB0000008014010B586B0002411480094019438
:101EC0000294039404944FF080410594C0E90014F7
:101ED00048F69F41C0E9024104618461FFF792FC2A
:101EE0004FF48050009069460548FFF7CFFC0494FA
:101EF00004A903480594FFF75DFC06B010BD00007F
:101F000084000020FEE770470907090E002806DA62
:101F100000F00F0000F1E02080F8141D704700F180
:101F2000E02080F80014704770477047FFF792B8C0
:101F300030B593B028216846FEF7FBF814210AA8B3
:101F4000FEF7F7F8002401200F9410941194010477
:101F500012948DE8130004904FF4E010CDE90810BE
:101F6000022507956846FFF78DFA0F20CDE90A058F
:101F70006802CDE90C4002210AA80E94FFF776F919
:101F8000A80311900F950FA8FFF7FAF813B030BD12
:101F90000D48016841F00101016041680B4A1140A0
:101FA000416001680A4A11400160016821F4802102
:101FB0000160416821F4FE0141604FF41F0181601E
:101FC0000449C00308607047001002400000FFF899
:101FD000FFFFF6FE08ED00E002490120086002481C
:101FE000FFF7CEBC1800002084000020F0B5026886
:101FF000164B174C174D4FF08047984205D0B8420A
:1020000003D0A04201D0A84203D122F070064A6852
:102010003243984205D0B84203D0A04201D0A84232
:1020200003D122F44074CA68224322F080044A6932
:10203000224302608A68C2620A688262984201D1C1
:102040000969016301214161F0BD0000002C0140DC
:10205000000400400008004010B5846842EA0322F2
:1020600024F47F440A432243826010BD826822F038
:1020700070020A4342F007018160704710B5036A9D
:10208000046A24F001040462846924F0F00444EA40
:10209000021423F00A020A438461026210BD10B5E3
:1020A000036A23F0100303628369046A23F4704314
:1020B00043EA023224F0A00343EA01118261016283
:1020C00010BD10B5406A0021C185C184FFF70FFD26
:1020D00010BD70B5446A2068406994F83910C0F3A7
:1020E000C0100025212904D118B1E584204600F054
:1020F0003FF82068406994F83A10C0F38010222914
:1021000004D118B1E585204600F024F8E06B40F0DA
:102110001000E0632046FFF7EAFC70BD10B50146F1
:10212000406A0968096889060CD40021C1840168E5
:102130004A6922F080024A610068C16841F04001AA
:10214000C16010BDFFF728FE10BD10B5406AFFF753
:1021500024FE10BD0168CA6822F49072CA6001684A
:102160004A6922F001024A61202180F83A10704742
:102170000168CA6822F0C002CA60202180F83910C4
:10218000704710B590F83A10222901D0022010BDF6
:102190008168B1F5805F11D00169002901681FD005
:1021A000496801F07F03816A4A1C82620B70C18D0D
:1021B000491E0904090CC18518D02BE00269816A07
:1021C000002A0268526805D0D2B20A80816A491C8E
:1021D0008162ECE7C2F308020A80816A891CF7E792
:1021E0004A68816A4B1C83620A70E0E70168CA682A
:1021F00022F02002CA600168CA6822F48072CA60B4
:1022000001684A6922F001024A61202180F83A10EF
:10221000FFF780FD002010BD2DE9F0410446006865
:102220000169E26821F44051114301612169A0680C
:102230000843616908432168CA6841F20C639A4304
:102240000243CA6020684169A26921F440711143C8
:1022500041614C4920686425322688423CD1FFF711
:10226000CBF800EBC00101EB001061688900B0FB06
:10227000F1F7FFF7C1F800EBC00101EB0010616856
:10228000B0468900B0FBF1F0B0FBF5F06FF018013B
:10229000484307EB800106EB0110B0FBF5F000F0BE
:1022A000F006FFF7A9F800EBC00101EB0010616830
:1022B0008900B0FBF1F0B0FBF5F006EB0016FFF77C
:1022C0009BF800EBC00101EB001061688900B0FBD6
:1022D000F1F7FFF791F83BE0FFF77EF800EBC00164
:1022E00001EB001061688900B0FBF1F7FFF774F8AB
:1022F00000EBC00101EB00106168B0468900B0FB43
:10230000F1F0B0FBF5F06FF01801484307EB8001E6
:1023100006EB0110B0FBF5F000F0F006FFF75CF8FB
:1023200000EBC00101EB001061688900B0FBF1F027
:10233000B0FBF5F006EB0016FFF74EF800EBC0011E
:1023400001EB001061688900B0FBF1F7FFF744F87A
:1023500000EBC00101EB001061688900B0FBF1F0F7
:10236000B0FBF5F06FF01801484307EB800108EB74
:102370000110B0FBF5F0216800F00F0030448860D8
:10238000BDE8F0810038014090F83910212901D0D2
:10239000022070478168B1F5805F016A0BD04A1C4A
:1023A0000262026809785160C18C491E0904090C57
:1023B000C1840ED017E009880268C1F3080151609A
:1023C00001690029016A02D0491C0162ECE7891CFD
:1023D000FBE70168CA6822F08002CA600068C16831
:1023E00041F04001C1600020704700000148FFF744
:1023F0007FBB0000C40000200148FEF7B3B9000015
:102400005C0000200148FEF7ADB900005C00002030
:10241000FEE700000FB4084B10B504A902AA039808
:1024200000F01CF8044602A9002000F0C1F8204684
:1024300010BC5DF814FB0000B125000802E008C8DC
:10244000121F08C1002AFAD170477047002001E02E
:1024500001C1121F002AFBD1704700002DE9FF4F78
:1024600089B09B460446002506E025280BD05A4635
:102470000B999047641C6D1C20780028F5D10DB095
:102480002846BDE8F08F0027B8460122474900E002
:10249000074314F8013F203B02FA03F00842F7D14A
:1024A00020782E2819D114F8010F47F004072A28A4
:1024B0000ED06FF02F022078A0F1300109290CD83E
:1024C00008EB880102EB410100EB0108641CF2E714
:1024D0000A98641C50F8048B0A9020780028CED00B
:1024E000642808D0692806D075281ED05A460B9952
:1024F00090476D1C58E00A994FF00A0901C90A91EA
:10250000002802DA40422D2102E0390504D52B21B2
:102510008DF82010012103E0F90704D02021F7E70E
:102520008A4608AE0DE00021FAE70A994FF00A0941
:1025300001C90A91F7E74946FDF706FE303106F872
:10254000011D0028F7D1ADEB060000F12009780746
:1025500001D44FF00108C84502DDA8EB090000E0F6
:1025600000208046002706E008A85A46C05D0B9967
:1025700090476D1C7F1C5745F6DB04E030205A461F
:102580000B9990476D1CB8F10001A8F10108F5DC2A
:1025900005E016F8010B5A460B9990476D1CB9F1EE
:1025A0000001A9F10109F4DC641C65E709280100B8
:1025B0000A68531C0B6010707047000008B5DFF804
:1025C000588100244FF0020BC8F80C404FF001096D
:1025D000C8F810B0C8F80090C8F8084088F814404F
:1025E000A246FEF73FFDFFF7A3FCFFF72DFC4B488B
:1025F000416941F0010141614069002200F00100A0
:10260000009011460E20FEF789FD0E20FEF77AFDA0
:10261000FFF7E6FBA8F15C00414901604FF4E131AE
:10262000C0E901140C21C460C0E904418461C461A3
:10263000FFF7E6FAFFF7B4FBFFF73CFC394D3AA190
:1026400008F118002A78FFF7E5FEA8F19C00FFF7D3
:1026500011F9FEF7F9FC064608F1580061210170F6
:102660006221334F417038680128FCD1A86820B13D
:10267000012814D002281CD136E02A4B2649C8F87C
:1026800000904E460C330022A1F1C400C8F810405F
:10269000FDF718FFAE60FEF7D7FC0646E3E7686873
:1026A000012808D0C5F80890FEF7CEFC801B6428EE
:1026B000D9D9AC60D7E71B491748103158300A68A0
:1026C0004260B1F904100AF1010A8160BAF1130FF6
:1026D00006DD01460C22B438FFF71EFB4FF0000A5E
:1026E0006C60C5F808B0BEE7C8F810B00821114802
:1026F000C8F800B0FEF79EFC0A49C002891C01F12F
:102700000A0308800A460449A1F1C400FDF7DAFE75
:10271000AC603C60A7E700002001002000100240F0
:10272000003801400000002025640A0D0000000070
:102730001800002000080140000000000000000018
:102740000102030406070809000000000102030457
:1027500070270008000000202C0000003C24000826
:102760009C2700082C0000209C0500004C24000839
:102770007B000000000000000000000000000000DE
:102780000000000000000000000000000100000048
:0C279000100000000000000000A24A043D
:04000005080000ED02
:00000001FF
