:020000040800F2
:10000000D8050020010100089318000827160008F1
:10001000911800086D0100086D1B00080000000029
:10002000000000000000000000000000A51900080A
:10003000F901000800000000B5180008A719000821
:100040001B0100081B0100081B0100081B01000820
:100050001B0100081B010008FD0100080D0200083B
:100060001B0100081B0100081D0200081B010008FD
:100070001B0100081B0100081B0100081B010008F0
:100080001B0100081B0100081B010008551B00088C
:10009000611B0008710100081B0100081B0100081A
:1000A0001B0100081B0100081B0100081B010008C0
:1000B0001B0100081B0100084D1A00081B01000865
:1000C0001B0100081B0100081B010008B9180008EB
:1000D0001B0100081B0100081B0100081B01000890
:1000E0001B0100081B0100081B010008DFF80CD0F1
:1000F00000F02AF8004800478D1B0008D8050020B2
:100100000648804706480047FEE7FEE7FEE7FEE7B1
:10011000FEE7FEE7FEE7FEE7FEE7FEE7051A00085A
:10012000ED000008D2B201E000F8012B491EFBD21D
:1001300070470022F6E710B513460A4604461946F2
:10014000FFF7F0FF204610BD064C074D06E0E068C3
:1001500040F0010394E8070098471034AC42F6D30E
:10016000FFF7C8FFA41C0008C41C0008FEE700003D
:10017000014800F0E5B900006400002070B51C4C97
:100180006068012820D100256069012630B101286E
:1001900015D0022828D0032824D11AE0256015485C
:1001A000134B01460660056118330022DC3800F06D
:1001B00077F800B1FEE700F0F3FCE0610FE02068A3
:1001C000012802D00320606170BD2560A660022076
:1001D000F9E700F0E5FCE169401A142801D26661F4
:1001E00070BD6560656170BD6561656070BD000072
:1001F000000000204001002070470000024901205B
:10020000086000F0D9BB00000C000020024901206A
:100210008860022000F0D0BB3400002010B5144CE0
:10022000206800E0C1688168C907FBD1102111482E
:1002300000F0ACFC104A002150B12068036843F480
:100240008073036051602068016821F0400109E07B
:1002500051602068016821F48071016020680168A4
:1002600041F040010160BDE81040102000F0A4BB47
:100270008C000020000801403400002090F820206D
:10028000012A07D0022A05D0416A41F48021416247
:1002900001207047006842690A43426100207047AC
:1002A000F0B590F820500468A468012D05D0022D07
:1002B00003D0416A41F4802153E014F0406F01D132
:1002C000E5004BD5C4F30164022C03D9416A41F423
:1002D000000146E00125A5401D608D684FF4C07304
:1002E0009DB1CE6835434E6845EAC605066803EB06
:1002F0000417F5514FF4C275076805EB04150E6934
:100300007E51097D012905D009E00E88CD6845EAB6
:100310004655EBE701684E5946F480764E51117907
:10032000D2F805504FF4C67641EA0525016806EB80
:1003300004168D511178D2F801204FF4C47541EAAA
:100340000221026805EB04155151006803EB04110A
:10035000425842F0010242500020F0BD416A41F48F
:10036000001141620120F0BD10B590F82030026804
:10037000012B07D0022B05D0416A41F48021416254
:10038000012010BDD2F8000240F00100C2F80002C6
:10039000087D00F01F0301209840D2F81C328343EF
:1003A000C2F81C32CB69B3B9D2F80C328343C2F81D
:1003B0000C328C894B6864F31F434C6902EBC40414
:1003C000C4F840320C890B6864F31F434C6902EB9C
:1003D000C404C4F84432CB69012B16D1D2F80C32D4
:1003E0000343C2F80C320C884B6864F31F434C691A
:1003F00002EBC404C4F840320C89CB6864F31F4399
:100400004C6902EBC404C4F844328B69002BD2F867
:1004100004320FD053EA0003C2F804320B69002BF8
:10042000D2F8143208D00343C2F81432096A012901
:1004300004D008E08343EFE78343F5E7D2F81C12CA
:100440000143C2F81C12D2F8000220F00100C2F8E9
:100450000002002010BD704730B590F82040012CFC
:1004600005D0022C03D0416A41F480215DE004688C
:10047000002955D02469A40754D04FF4D8740568D6
:1004800004EB01142D5915F00405956005682D59EC
:100490004ED0ED08556005682C59C4F34004D46073
:1004A0004FF4DA74056804EB01142D5905F00F05BB
:1004B000156105682D59C5F30725956105682C5907
:1004C000240C54614FF4DC72046802EB0112A4584E
:1004D0001C700468A458240A5C700468A458240C96
:1004E0009C700468A258120EDA704FF4DE72046831
:1004F00002EB0112A4581C710468A458240A5C7110
:100500000468A458240C9C710468A258120EDA7175
:10051000006881B1016941F020010161002030BD16
:10052000E468A8E7416A41F400114162012030BD4E
:100530006D0D1560AFE7C16841F02001C160EDE7C6
:100540002DE9F05F0546006800244669D0F8049064
:100550008768D0F80CB0D0F810A0D0F81880F10758
:1005600048D0F90714D001218160B80703D5284687
:1005700000F01BFA0CE0780702D54FF4006407E0A6
:10058000380702D54FF4805402E0284600F00CFAF8
:10059000F80516D529684FF480708860B80503D532
:1005A000284600F004FA0CE0780502D544F4005423
:1005B00007E0380502D544F4804402E0284600F004
:1005C000F5F9F80316D529684FF480308860B80330
:1005D00003D5284600F0EDF90CE0780302D544F489
:1005E000004407E0380302D544F4803402E0284692
:1005F00000F0DEF9300707D55FEACB6004D5296843
:10060000102044F40074C86070074FF0080707D545
:100610005FEA0B7004D52868C760284600F076F9B9
:10062000B00706D52868C068800702D0284600F0C9
:100630006FF9700607D55FEACA6004D529681020F3
:1006400044F480640861B00607D55FEA0A7004D5F7
:1006500028680761284600F077F9F00606D5286873
:100660000069800702D0284600F06FF9B00308D572
:100670005FEAC96005D5296810204860284600F067
:1006800065F9F00307D55FEA097004D5286847606B
:10069000284600F08FF9300446D55FEA497040D50E
:1006A000F00504D55FEAC87001D044F00104B0053C
:1006B00004D55FEA887001D544F00204700504D5C2
:1006C0005FEA487001D544F00404300529D518F0DC
:1006D000700F26D008F07000402815D006DC1028D6
:1006E00009D020280AD0302816D10AE050280ED090
:1006F000602811D10EE044F008040DE044F010042D
:100700000AE044F0200407E044F0400404E044F030
:10071000800401E044F480742868816921F070014C
:100720008161296804204860002C05D0686A204354
:1007300068622846FFF78FFEBDE8F09F70B50400A1
:1007400003D094F8200010B104E0012070BD2046D1
:1007500000F082F82068016821F00201016000F0D9
:100760001FFA0546052604E000F01AFA401B0A2885
:1007700011D8206840688007F6D42068016841F0ED
:100780000101016000F00CFA05460BE000F008FAE8
:10079000401B0A2806D9606A40F40030606284F881
:1007A0002060D2E720684068C007EFD0207E012893
:1007B000206801683DD021F080010160607E012841
:1007C0002068016838D021F040010160A07E012836
:1007D0002068016833D021F020010160E07E01280B
:1007E000206801682ED041F010010160207F0128AF
:1007F0002068016829D021F008010160607F01288C
:100800002068016824D021F004010160D4E90201CC
:100810000843D4E90412114308436168491E0843A0
:100820002168C86100206062012084F82000002057
:1008300070BD41F08001C0E741F04001C5E741F0E3
:100840002001CAE721F01001CFE741F00801D4E709
:1008500041F00401D9E7000010B586B000210091F5
:1008600001910291039100682449884243D12448B0
:10087000C16941F00071C161C16901F00071049169
:10088000816941F00801816180691E4C00F0080017
:1008900004904FF4807000906946204600F098F86C
:1008A00060150090022001900320039069462046C5
:1008B00000F08EF81448416821F4C04141F0E06135
:1008C00041F48041416000221146132000F0D2F92A
:1008D000132000F0C3F900221146142000F0CAF9D9
:1008E000142000F0BBF900221146152000F0C2F9D7
:1008F000152000F0B3F906B010BD00000064004000
:1009000000100240000C0140000001407047000050
:1009100010B50B4B0B4A0021FFF79EFD00B1FEE71F
:1009200008480168012909D18068002806D10448D7
:1009300024380160416AC162018D018610BD00004A
:1009400024000020240100207047704770470000F9
:1009500070B5044690F82000012804D0606A40F485
:100960000020606218E0022084F8200020680168FE
:1009700021F00101016000F013F905460EE000BF0F
:1009800000F00EF9401B0A2808D9606A40F40030D4
:100990006062052084F82000012070BD2068406856
:1009A000C007EDD1606270BD7047704770477047F7
:1009B0007047704770477047044910B50A68024293
:1009C00002D00860FFF7F7FF10BD000014040140DB
:1009D0002DE9F84FDFF890A100220AF1040B14462C
:1009E00001274FF00F090BF1040E00BF0B6807FA47
:1009F00004F52B40AB4274D1DFF870C14E68A6EB12
:100A00000C0866452BD00DDC032E34D005DC36B344
:100A1000012E19D0022E2FD11BE0112E16D0122E2E
:100A20002AD119E0B8F5881F19D006DCB8F5803F47
:100A300015D0B8F5801F1FD111E0B8F5001F0ED0FA
:100A4000B8F5041F18D10AE0CA6815E0CA68121D7B
:100A500012E0CA6808320FE0CA680C320CE08A68FB
:100A60002AB1012A4FF0080203D0456104E00422B4
:100A700002E0056100E00022FF2B01D8064601E0FC
:100A800000F104064FEA840501D9A5F12005D6F846
:100A900000C009FA05F82CEA080C02FA05F54CEA40
:100AA000050CC6F800C04D68ED0057D5304DAE6955
:100AB00046F00106AE61AD6924F0030605F00105BC
:100AC00000952C4D06EB050CDCF80850A6074FEA04
:100AD000167809FA08F6B543274EB04202D100262F
:100AE00010E03BE0254EB04201D101260AE0244E41
:100AF000B04201D1022605E0224EB04201D10326C8
:100B000000E0042606FA08F62E43CCF808604D688B
:100B1000DAF80060ED03554601D51E4300E09E4320
:100B20002E604D68DBF80060AD035D4601D51E43C5
:100B300000E09E432E604D68DEF80060ED027546D1
:100B400001D51E4300E09E432E604D68AD020E4D60
:100B50002E6801D51E4300E09E432E60641C102CBD
:100B6000FFF444AFBDE8F88F00040140000011100D
:100B7000001002400000014000080140000C01404C
:100B800000100140001401400C040140806808403E
:100B900000D0012070470AB1016170470904FBE7EA
:100BA00001488068704700005400002002488168B6
:100BB000027811448160704754000020074810B546
:100BC000016841F010010160032000F073F800207B
:100BD00000F006F800F024F8002010BD00200240CC
:100BE00070B50D4D04464FF47A712878B1FBF0F0E2
:100BF0000A490968B1FBF0F000F060FB48B9102C1D
:100C000007D200222146501E00F034F800206C600C
:100C100070BD012070BD0000540000206000002065
:100C20000C4808B5816941F001018161816901F0D9
:100C300001010091C16941F08051C161C06900F0BA
:100C4000805000900448416821F0E06141F000715B
:100C5000416008BD001002400000014000F01F028A
:100C6000012191404009800000F1E020C0F800110E
:100C700070470000F0B40E4B1B680C46C3F3022310
:100C8000C3F10705042D00D90425191D072901D238
:100C9000002300E0DB1E012606FA05F1491E214073
:100CA00099409E40761E16403143F0BC00F0F2BDE4
:100CB0000CED00E0064900F0070208684FF6FF035C
:100CC000184040EA0220034A1043086070470000C1
:100CD0000CED00E00000FA052DE9F047DFF8548143
:100CE00005460E46D8F8000000F00700B0420CD2CE
:100CF000D8F8001021F007013143C8F80010D8F8E7
:100D0000000000F00700B0426FD128684A4C81070C
:100D100012D5400703D5606840F4E0606060287831
:100D2000000703D5606840F4605060606068A9689F
:100D300020F0F000084360602878C00744D068685D
:100D4000012816D02168022816D0890700294CDA1C
:100D5000616821F0030101436160FFF721FF6968C9
:100D6000074641F2883001290ED00229814618D069
:100D700026E021688903E9E78901E7E7FFF710FF2B
:100D8000C11B494501D918E081466068C0F3810064
:100D90000128F3D118E000BFFFF702FFC11B49454E
:100DA0000BD86068C0F381000228F5D10CE000BFC9
:100DB000FFF7F6FEC11B494502D90320BDE8F087C5
:100DC000606810F00C0FF3D1D8F80010404601F025
:100DD0000701B1420BD9016821F0070131430160DD
:100DE000006800F00700B04201D00120E6E7287853
:100DF000400705D56068E96820F4E060084360605A
:100E00002878000706D56068296920F4605040EA18
:100E1000C100606000F016F86168084AC1F3031170
:100E2000515CC840064908600020FFF7D9FE002049
:100E3000C4E700000020024000100240941C00089B
:100E40006000002013A185B00FC98DE80F0015A028
:100E5000154A00680490516801F00C00042804D081
:100E6000082804D0114805B070471148FBE7C1F3CA
:100E70008343C9031DF8030009D5516804AAC1F3CF
:100E80004041515C0A4A5043B0FBF1F0EBE709499D
:100E90004843E8E702030405060708090A0B0C0D9E
:100EA0000E0F1010010200000010024000127A0024
:100EB000001BB70000093D002DE9F84F04460078FB
:100EC000B94DC00748D06868C0F38100012807D039
:100ED0006868C0F38100022809D16868C00306D59C
:100EE0002868800338D5606800286FD034E06068D7
:100EF000B0F5803F0BD010B1B0F5A02F11D028680D
:100F000020F480302860286820F4802002E02868DF
:100F100040F480302860606888B1FFF741FE0646E3
:100F200009E0286840F480202860F0E7FFF738FEE9
:100F3000801B642875D828688003F7D50CE0FFF77C
:100F40002FFE064605E000BFFFF72AFE801B64283F
:100F5000F0D828688003F7D42078944E80074FF0AB
:100F600001094FF000083BD5686810F00C0F07D05E
:100F70006868C0F38100022809D16868C00306D4FC
:100F80002868800714D5206901281FD110E0206946
:100F9000B0B1C6F80090FFF703FE074605E000BFBA
:100FA000FFF7FEFDC01B0228C4D828688007F7D5CC
:100FB0002868616920F0F80040EAC10028600FE06D
:100FC000C6F80080FFF7ECFD074606E0E9E000BF49
:100FD000FFF7E6FDC01B022823D828688007F7D456
:100FE000207800072CD57248A169D9B1C0F80090CB
:100FF000FFF7D6FD074604E0FFF7D2FDC01B02282D
:101000000FD8686A8007F7D56A484FF4FA5100682C
:10101000B0FBF1F0009000BF0098411E0091FAD2A1
:101020000EE080E0C0F80080FFF7BAFD074604E05C
:10103000FFF7B6FDC01B022875D8686A8007F7D491
:101040002078400760D5E8690027C00008D4E86927
:1010500040F08050E861E869012700F0805000907E
:1010600055480168C90513D40168834641F480716D
:101070000160FFF795FD824606E000BFFFF790FD97
:10108000A0EB0A0064284ED8DBF80000C005F5D5B7
:10109000E06801280AD008B1052813D0286A20F09A
:1010A00001002862286A20F0040002E0286A40F06B
:1010B00001002862E06841F2883B98B1FFF770FDBB
:1010C00082460BE0286A40F004002862EEE700BF89
:1010D000FFF766FDA0EB0A0159455AD8286A800738
:1010E000F6D50CE0FFF75CFD824605E0FFF758FD02
:1010F000A0EB0A0159454CD8286A8007F6D41FB1E5
:10110000E86920F08050E861E06988B36968C1F35C
:101110008101022945D00228C6F8608004D0FFF77B
:101120003FFD044638E034E0FFF73AFD074604E0AF
:10113000FFF736FDC01B02282BD828688001F7D4A2
:10114000206AB0F5803F05D16868A16820F40030BE
:1011500008436860D4E908010843696821F4741100
:1011600008436860C6F86090FFF71AFD044606E081
:1011700015E000BFFFF714FD001B022809D82868FE
:101180008001F7D50BE000BFFFF70AFD001B022826
:1011900002D90320BDE8F88F28688001F4D400202C
:1011A000F8E70120F6E7000000100240000042428C
:1011B00080044242600000200070004070B50400CE
:1011C00005D00025A56294F8510010B104E001207B
:1011D00070BD204600F034F8022084F851002068E9
:1011E000016821F040010160D4E901010843D4E91C
:1011F00003121143084361690843218B01F4007114
:101200000843E1690843216A0843A16A0843216849
:101210000860A069042101EA1040616A084321685E
:1012200048602168E06A08612068C16921F40061B2
:10123000C1616565012084F85100002070BD000087
:1012400010B586B0002100910191029103910068D0
:101250001749884229D11748816941F48051816139
:10126000816901F480510491816941F00401816137
:101270008069114C00F004000490A02000906946A1
:101280002046FFF7A5FB402000900220019003209C
:10129000039069462046FFF79BFB0022114623205E
:1012A000FFF7E8FC2320FFF7D9FC06B010BD0000D3
:1012B00000300140001002400008014010B5401EFF
:1012C000B0F1807F01D3012010BD4FF0E0246061B8
:1012D0000F21601700F0DEFA0020A06107202061D6
:1012E000002010BD7047704730B590F83C20012AAF
:1012F00020D0012280F83C20022380F83D30036892
:101300005C6824F070045C6003685C680D682C43C2
:101310005C6003689C6824F080049C6003689C689F
:1013200049680C439C6080F83D20002180F83C1007
:10133000084630BD022030BD10B5040003D094F83B
:101340003D0010B107E0012010BD002084F83C00F2
:10135000204600F00DF8022084F83D00211D206891
:1013600000F08CFB012084F83D00002010BD00003F
:1013700008B500680B49884212D10B48C16941F099
:101380000401C161C069002200F004000090114610
:101390001E20FFF76FFCBDE808401E20FFF75EBC73
:1013A00008BD000000080040001002400168CA6843
:1013B00042F00102CA600068016841F00101016069
:1013C0000020704770B5044690F83C00012817D003
:1013D000012584F83C50022084F83D002068826892
:1013E00022F0770222F47F4282600868502837D0CA
:1013F0000DDC202859D005DC88B3102841D151E0FC
:10140000022070BD302853D040283AD13FE06028F8
:101410002ED070280BD0B0F5805F03D0B0F5005F00
:101420002FD110E02068816821F0070115E0CB681A
:10143000D1E90121206800F057FB2168886840F05D
:10144000770088601DE0CB68D1E90121206800F0B9
:101450004BFB2068816841F48041816011E01EE00F
:10146000CA684968206800F051FB5021206806E0F6
:10147000CA684968206800F05AFB6021206800F0C3
:101480003DFB84F83D50002084F83C0070BDCA68E4
:101490004968206800F03AFB40212068EFE700210E
:1014A0002068ECE710212068E9E720212068E6E7C2
:1014B00030212068E3E7704770B504460068016991
:1014C0004FF00005C943890715D4C168C94389078E
:1014D00011D4E91E0161012020772068806980070E
:1014E000204602D0FFF7E7FF04E000F098F820461E
:1014F00000F096F8257720680169C943490717D499
:10150000C168C943490713D46FF004010161022087
:1015100020772068806910F4407F204602D0FFF7D2
:10152000CAFF04E000F07BF8204600F079F8257748
:1015300020680169C943090716D4C168C94309076E
:1015400012D46FF008010161042020772068C0697F
:101550008007204602D0FFF7AEFF04E000F05FF8FE
:10156000204600F05DF8257720680169C943C90667
:1015700017D4C168C943C90613D46FF010010161C3
:10158000082020772068C06910F4407F204602D0F0
:10159000FFF791FF04E000F042F8204600F040F829
:1015A000257720680169C943C90708D1C168C943C3
:1015B000C90704D1891E0161204600F032F8206875
:1015C0000169C943090609D4C168C943090605D49C
:1015D0006FF0800101612046FFF784FE20680169F9
:1015E000C943490609D4C168C943490605D46FF007
:1015F00040010161204600F015F820680169C943E7
:1016000089060BD4C168C943890607D46FF020014D
:1016100001612046BDE87040FFF765BE70BD7047B0
:10162000704770477047FEE770B5134C002522469F
:1016300001261248A369D269310363B1012B09D194
:1016400023699A4215DA0122FFF7A5FAE069401CE6
:10165000C4E9066070BDE3689A4207DA0022FFF72A
:101660009AFAE069401CC4E9065070BDC4E90665F9
:1016700070BDE561A56170BD34000020000C014023
:1016800000B58BB0002001210390CDE9060108913F
:1016900019490590009001900290164A04900A6042
:1016A0000C22C1E901204FF08072CA60D2110A6198
:1016B000D2004A61087648768876C87608774877F7
:1016C0000846FFF73BF800B1FEE769460A48FEF717
:1016D0004BFE00B1FEE70848FFF73AF900B1FEE71C
:1016E00002210548FEF7CAFD002800D0FEE70BB036
:1016F00000BD000000640040640000202DE9F043BC
:1017000085B00024364800940194029403948169C2
:1017100041F020018161816901F02001049181691A
:1017200041F004018161816901F004010491816942
:1017300041F0080181618069DFF8A88000F00800AD
:101740004FF480550490002229464046FFF723FAC3
:10175000DFF89490AF10002239464846FFF71BFA95
:10176000102000902148CDE9010469464846FFF762
:101770002FF9032000901E48CDE901046946404638
:10178000FFF726F90095022601250396CDE90154BD
:1017900069464046FFF71CF900970396CDE90154CE
:1017A00069464846FFF714F9002211460620FFF764
:1017B00061FA0620FFF752FA002211460720FFF7D0
:1017C00059FA0720FFF74AFA002211460A20FFF7CC
:1017D00051FA0A20FFF742FA05B0BDE8F083000095
:1017E00000100240000C01400008014000003110D0
:1017F000000011100D4810B50B4901600021416037
:101800008160C1604FF400720161C0E905122822B5
:10181000C0E90721416281620A21C162FFF7CEFC63
:10182000002800D0FEE710BD003001408C000020F1
:1018300010B586B0002415480094019402940394D6
:1018400004941149059401600921C0E9011441F68D
:101850001F41C0E903148461FFF76EFD00B1FEE78C
:101860004FF48050009069460848FFF7ABFD00B187
:10187000FEE7049404A905480594FFF735FD002808
:1018800000D0FEE706B010BD00080040E4000020D4
:10189000FEE770470907090E002806DA00F00F007E
:1018A00000F1E02080F8141D704700F1E02080F87E
:1018B0000014704770470000114810B50268D068E6
:1018C000C1B210484468104B6CB10478012C12D09E
:1018D00042781A4402F8011C4178491C4170416861
:1018E000491C416010BD01F07F044470C9090170BA
:1018F00001780129F0D14178595CD160ECE7000012
:101900008C00002034000020580100202DE9F04711
:10191000214C002501272069204EDFF884904FF4E8
:101920008068052835D2DFE800F0030E1F2F2F0056
:10193000E06828B1E560FFF733F96760206219E0DD
:10194000A560BDE8F087A068012802D002202061D0
:10195000F7E7A56000F06EF9357001224146484670
:10196000FFF719F90420F2E7FFF71AF9216A401A84
:10197000642801D22761E4E73770012241464846D6
:10198000FFF709F90320E2E7002241464846FFF746
:1019900002F92561D5E70000000000205801002071
:1019A000000801407047FFF701B930B58FB028211A
:1019B0006846FEF7BEFB14210AA8FEF7BAFB012118
:1019C0000804CDE900100024029402250491CDE919
:1019D0000750000109906846FFF76EFA00B1FEE774
:1019E0000F20CDE90A054FF48060CDE90C400221BB
:1019F0000AA80E94FFF770F9002800D0FEE70FB098
:101A000030BD00000D48016841F0010101604168EE
:101A10000B4A1140416001680A4A114001600168A7
:101A200021F480210160416821F4FE0141604FF4FE
:101A30001F0181600449C003086070470010024024
:101A40000000FFF8FFFFF6FE08ED00E010B5FFF71D
:101A5000EBFD08484169491C4161B1F5487F04D15B
:101A6000002101614FF47A71C160BDE81040024865
:101A7000FFF722BD34000020E4000020F0B502682A
:101A8000164B174C174D4FF08047984205D0B8427F
:101A900003D0A04201D0A84203D122F070064A68C8
:101AA0003243984205D0B84203D0A04201D0A842A8
:101AB00003D122F44074CA68224322F080044A69A8
:101AC000224302608A68C2620A688262984201D137
:101AD0000969016301214161F0BD0000002C014052
:101AE000000400400008004010B5846842EA032268
:101AF00024F47F440A432243826010BD826822F0AE
:101B000070020A4342F007018160704710B5036A12
:101B1000046A24F001040462846924F0F00444EAB5
:101B2000021423F00A020A438461026210BD10B558
:101B3000036A23F0100303628369046A23F4704389
:101B400043EA023224F0A00343EA011182610162F8
:101B500010BD00000148FEF7F3BC00006400002047
:101B60000148FEF7EDBC000064000020FEE702E043
:101B700008C8121F08C1002AFAD170477047002018
:101B800001E001C1121F002AFBD170472448002543
:101B90000221C56085600161012101600575FFF7C3
:101BA0000DF8FFF702FFFFF7A9FDFFF723FEFFF790
:101BB00067FDFFF73DFE1A48B4380068416841F000
:101BC0004001416016485C38FFF7F0FB154F164C9A
:101BD000164EDFF85C804FF0C8094FF0640A4FF4EE
:101BE000966B00BF94F86400552811D13D6084F8CD
:101BF00064502078012802D0207828B108E0C6F887
:101C00000090C8F8009003E0C6F800A0C8F800B043
:101C1000FFF77CFEFEF7B2FA00F01AF8E2E70000E8
:101C2000400100204800002058010020440000200E
:101C3000400000200449054A0868B1F9041042F840
:101C4000010F5160704700002C0000205801002057
:101C50000C4808B50168012912D1002101600A4829
:101C60000B4B6A46D0F80910009108490220086120
:101C70000860A1F1DC00FEF713FB002800D0FEE7AE
:101C800008BD00003C000020580100204001002059
:101C90001800002000000000000000000102030402
:101CA00006070809C41C00080000002064000000AA
:101CB0006E1B0008281D0008640000207405000049
:101CC0007E1B000800000000000000000000000073
:101CD0000000000000000000000000000000000004
:101CE00000000000000000000000000000000000F4
:101CF00000000000000000000000000000000000E4
:101D0000000000006400000064000000000000000B
:101D100000000000000000000100000010000000B2
:081D20000000000000A24A04CB
:04000005080000ED02
:00000001FF
