:020000040800F2
:10000000E006002001010008271F0008B91C0008B5
:10001000251F000891010008CD2400080000000001
:100020000000000000000000000000009721000810
:100030005F02000800000000491F00089921000825
:100040001B0100081B0100081B0100081B01000820
:100050001B0100081B010008610200087102000872
:100060001B0100081B010008810200081B01000899
:100070001D020008290200081B0100081B010008DE
:100080001B0100081B0100081B010008B524000823
:10009000C1240008950100081B0100081B0100088D
:1000A0001B0100081B0100081B0100081B010008C0
:1000B0001B0100081B0100083D2200081B0100086D
:1000C0001B0100081B0100081B0100084D1F000850
:1000D0001B0100081B0100081B0100081B01000890
:1000E0001B0100081B0100081B010008DFF80CD0F1
:1000F00000F03CF800480047ED240008E00600202E
:100100000648804706480047FEE7FEE7FEE7FEE7B1
:10011000FEE7FEE7FEE7FEE7FEE7FEE7F521000863
:10012000ED00000840EA01039B0703D009E008C97D
:10013000121F08C0042AFAD203E011F8013B00F8AC
:10014000013B521EF9D27047D2B201E000F8012BF8
:10015000491EFBD270470022F6E710B513460A4647
:1001600004461946FFF7F0FF204610BD064C074D28
:1001700006E0E06840F0010394E807009847103477
:10018000AC42F6D3FFF7B6FF6427000884270008C7
:10019000FEE70000014800F0E3B900002001002064
:1001A00070B51C4C6068012821D10025A06901268A
:1001B00030B1012816D0022829D0032825D11BE010
:1001C00025601548134B0146066005611C3300226B
:1001D000A0F58E7000F073F800B1FEE700F066FE47
:1001E00020620FE02068012802D00320A06170BDCA
:1001F0002560E6600220F9E700F058FE216A401A07
:10020000142801D2A66170BD6560A56170BDA561AD
:10021000656070BD000000203C020020014800F035
:100220003FBC000054020020014800F039BC00002F
:100230009802002030B590F840500124AC40C56BC6
:100240006C60046863604368102B036803D0996096
:100250000068C26030BD9A600068C16030BD704700
:1002600002490120086000F02DBD000010000020B0
:10027000024901200860022000F024BD380000205F
:1002800010B5044802F010FABDE81040102000F04C
:1002900019BD000048010020FEE790F82020012A47
:1002A00007D0022A05D0416A41F480214162012031
:1002B0007047006842690A43426100207047F0B508
:1002C00090F820500468A468012D05D0022D03D0B9
:1002D000416A41F4802153E014F0406F01D1E50000
:1002E0004BD5C4F30164022C03D9416A41F40001E7
:1002F00046E00125A5401D608D684FF4C0739DB197
:10030000CE6835434E6845EAC605066803EB041718
:10031000F5514FF4C275076805EB04150E697E515F
:10032000097D012905D009E00E88CD6845EA4655CA
:10033000EBE701684E5946F480764E511179D2F8B8
:1003400005504FF4C67641EA0525016806EB041610
:100350008D511178D2F801204FF4C47541EA022181
:10036000026805EB04155151006803EB0411425873
:1003700042F0010242500020F0BD416A41F40011F8
:1003800041620120F0BD000010B590F820300268F5
:10039000012B07D0022B05D0416A41F48021416234
:1003A000012010BDD2F8000240F00100C2F80002A6
:1003B000087D00F01F0301209840D2F81C328343CF
:1003C000C2F81C32CB69B3B9D2F80C328343C2F8FD
:1003D0000C328C894B6864F31F434C6902EBC404F4
:1003E000C4F840320C890B6864F31F434C6902EB7C
:1003F000C404C4F84432CB69012B16D1D2F80C32B4
:100400000343C2F80C320C884B6864F31F434C69F9
:1004100002EBC404C4F840320C89CB6864F31F4378
:100420004C6902EBC404C4F844328B69002BD2F847
:1004300004320FD053EA0003C2F804320B69002BD8
:10044000D2F8143208D00343C2F81432096A0129E1
:1004500004D008E08343EFE78343F5E7D2F81C12AA
:100460000143C2F81C12D2F8000220F00100C2F8C9
:100470000002002010BD704730B590F82040012CDC
:1004800005D0022C03D0416A41F480215DE004686C
:10049000002955D02469A40754D04FF4D8740568B6
:1004A00004EB01142D5915F00405956005682D59CC
:1004B0004ED0ED08556005682C59C4F34004D46053
:1004C0004FF4DA74056804EB01142D5905F00F059B
:1004D000156105682D59C5F30725956105682C59E7
:1004E000240C54614FF4DC72046802EB0112A4582E
:1004F0001C700468A458240A5C700468A458240C76
:100500009C700468A258120EDA704FF4DE72046810
:1005100002EB0112A4581C710468A458240A5C71EF
:100520000468A458240C9C710468A258120EDA7155
:10053000006881B1016941F020010161002030BDF6
:10054000E468A8E7416A41F400114162012030BD2E
:100550006D0D1560AFE7C16841F02001C160EDE7A6
:100560002DE9F05F0546006800244669D0F8049044
:100570008768D0F80CB0D0F810A0D0F81880F10738
:1005800048D0F90714D001218160B80703D5284667
:1005900000F01BFA0CE0780702D54FF4006407E086
:1005A000380702D54FF4805402E0284600F00CFAD8
:1005B000F80516D529684FF480708860B80503D512
:1005C000284600F004FA0CE0780502D544F4005403
:1005D00007E0380502D544F4804402E0284600F0E4
:1005E000F5F9F80316D529684FF480308860B80310
:1005F00003D5284600F0EDF90CE0780302D544F469
:10060000004407E0380302D544F4803402E0284671
:1006100000F0DEF9300707D55FEACB6004D5296822
:10062000102044F40074C86070074FF0080707D525
:100630005FEA0B7004D52868C760284600F076F999
:10064000B00706D52868C068800702D0284600F0A9
:100650006FF9700607D55FEACA6004D529681020D3
:1006600044F480640861B00607D55FEA0A7004D5D7
:1006700028680761284600F077F9F00606D5286853
:100680000069800702D0284600F06FF9B00308D552
:100690005FEAC96005D5296810204860284600F047
:1006A00065F9F00307D55FEA097004D5286847604B
:1006B000284600F08FF9300446D55FEA497040D5EE
:1006C000F00504D55FEAC87001D044F00104B0051C
:1006D00004D55FEA887001D544F00204700504D5A2
:1006E0005FEA487001D544F00404300529D518F0BC
:1006F000700F26D008F07000402815D006DC1028B6
:1007000009D020280AD0302816D10AE050280ED06F
:10071000602811D10EE044F008040DE044F010040C
:100720000AE044F0200407E044F0400404E044F010
:10073000800401E044F480742868816921F070012C
:100740008161296804204860002C05D0686A204334
:1007500068622846FFF78FFEBDE8F09F70B5040081
:1007600003D094F8200010B104E0012070BD2046B1
:1007700000F082F82068016821F00201016000F0B9
:1007800095FB0546052604E000F090FB401B0A2877
:1007900011D8206840688007F6D42068016841F0CD
:1007A0000101016000F082FB05460BE000F07EFBDA
:1007B000401B0A2806D9606A40F40030606284F861
:1007C0002060D2E720684068C007EFD0207E012873
:1007D000206801683DD021F080010160607E012821
:1007E0002068016838D021F040010160A07E012816
:1007F0002068016833D021F020010160E07E0128EB
:10080000206801682ED041F010010160207F01288E
:100810002068016829D021F008010160607F01286B
:100820002068016824D021F004010160D4E90201AC
:100830000843D4E90412114308436168491E084380
:100840002168C86100206062012084F82000002037
:1008500070BD41F08001C0E741F04001C5E741F0C3
:100860002001CAE721F01001CFE741F00801D4E7E9
:1008700041F00401D9E7000010B586B000210091D5
:1008800001910291039100682449884243D1244890
:10089000C16941F00071C161C16901F00071049149
:1008A000816941F00801816180691E4C00F00800F7
:1008B00004904FF4807000906946204600F00EFAD4
:1008C00060150090022001900320039069462046A5
:1008D00000F004FA1448416821F4C04141F0E0619D
:1008E00041F48041416000221146132000F048FB92
:1008F000132000F039FB00221146142000F040FBC9
:10090000142000F031FB00221146152000F038FBC6
:10091000152000F029FB06B010BD00000064004067
:1009200000100240000C0140000001407047000030
:1009300010B50B4B0B4A0021FFF79EFD00B1FEE7FF
:1009400008480168012909D18068002806D10448B7
:1009500028380160816A0163818D818610BD0000A5
:1009600028000020200200207047704770470000D8
:1009700070B5044690F82000012804D0606A40F465
:100980000020606218E0022084F8200020680168DE
:1009900021F00101016000F089FA05460EE000BF78
:1009A00000F084FA401B0A2808D9606A40F400303D
:1009B0006062052084F82000012070BD2068406836
:1009C000C007EDD1606270BD7047704770477047D7
:1009D00070477047704701680A6822F00E020A608B
:1009E00001680A6822F001020A6090F84020C36B97
:1009F000012101FA02F25A6080F82110002180F8EA
:100A0000201008467047000010B590F8211000240F
:100A1000022903D00421816301243DE001680A68B2
:100A200022F00E020A6001680A6822F001020A60E0
:100A30001A4A0168914201D1012121E0174A14327A
:100A4000914201D110211BE0144A2832914201D178
:100A5000891515E0114A3C32914201D189140FE009
:100A60000E4A5032914202D14FF4803108E00B4AD5
:100A70006432914202D14FF4801101E04FF0807155
:100A8000064A083A5160012180F82110002180F8BF
:100A90002010416B01B18847204610BD080002407C
:100AA0002DE9F05FC16B0C6801680B68D0F840C09D
:100AB000042202FA0CF2494DDFF824A1494E4A4FB4
:100AC000DFF828B1DFF828E122422CD05A072AD5D6
:100AD0000A68920603D40A6822F004020A600168D8
:100AE000A94201D1042219E0514501D1402215E06B
:100AF000B14202D14FF4806210E0B94202D14FF40A
:100B000080420BE0594502D14FF4802206E0714546
:100B100002D14FF4800201E04FF080622F49083982
:100B20004A60C16A3BE04FF0020808FA0CF818EA84
:100B3000040F4FF000094FF0010235D05FEA8378CF
:100B400032D50B689B0605D40B6823F00A030B60B3
:100B500080F821200168A94201D1022219E0514503
:100B600001D1202215E0B14202D14FF4007210E011
:100B7000B94202D14FF400520BE0594502D14FF473
:100B8000003206E0714502D14FF4001201E04FF04F
:100B90000072124908394A6080F82090816A002961
:100BA0001AD0BDE8F05F0847082505FA0CF5254284
:100BB00012D01B0710D50B6823F00E030B6090F8C2
:100BC0004010C36B02FA01F15960826380F8212062
:100BD00080F82090016BE2E7BDE8F09F080002403A
:100BE0001C00024030000240440002405800024015
:100BF0006C00024030B528B308C8134914221944C8
:100C0000B1FBF2F18900C163104981630221417790
:100C10001A6843F6F0718A43D0E900142143D0E901
:100C200002452C43214304692143446921438469DB
:100C3000214311431960002141630122427701776A
:100C4000084630BD012030BDF8FFFDBF0000024066
:100C500070B5044690F82000002501280CD0012032
:100C600084F8200094F821600020012E06D084F83A
:100C700020000225284670BD022070BD022684F89F
:100C80002160A0632068066826F001060660204601
:100C9000FFF7D0FAE06A00282068016802D041F02E
:100CA0000E0106E021F0040101602068016841F0B6
:100CB0000A0101602068016841F001010160D9E783
:100CC00070470000044910B50A68024202D008606B
:100CD000FFF7F6FF10BD0000140401402DE9F84FA6
:100CE000DFF890A100220AF1040B144601274FF00F
:100CF0000F090BF1040E00BF0B6807FA04F52B4037
:100D0000AB4274D1DFF870C14E68A6EB0C086645A3
:100D10002BD00DDC032E34D005DC36B3012E19D0D8
:100D2000022E2FD11BE0112E16D0122E2AD119E03F
:100D3000B8F5881F19D006DCB8F5803F15D0B8F596
:100D4000801F1FD111E0B8F5001F0ED0B8F5041FA9
:100D500018D10AE0CA6815E0CA68121D12E0CA6814
:100D600008320FE0CA680C320CE08A682AB1012A06
:100D70004FF0080203D0456104E0042202E005615F
:100D800000E00022FF2B01D8064601E000F1040636
:100D90004FEA840501D9A5F12005D6F800C009FA6B
:100DA00005F82CEA080C02FA05F54CEA050CC6F821
:100DB00000C04D68ED0057D5304DAE6946F00106D4
:100DC000AE61AD6924F0030605F0010500952C4DD8
:100DD00006EB050CDCF80850A6074FEA167809FA6E
:100DE00008F6B543274EB04202D1002610E03BE0A2
:100DF000254EB04201D101260AE0244EB04201D175
:100E0000022605E0224EB04201D1032600E004266E
:100E100006FA08F62E43CCF808604D68DAF8006050
:100E2000ED03554601D51E4300E09E432E604D68FC
:100E3000DBF80060AD035D4601D51E4300E09E4334
:100E40002E604D68DEF80060ED02754601D51E4348
:100E500000E09E432E604D68AD020E4D2E6801D518
:100E60001E4300E09E432E60641C102CFFF444AF30
:100E7000BDE8F88F0004014000001110001002408E
:100E80000000014000080140000C0140001001403A
:100E9000001401400C0401408068084000D001208B
:100EA00070470AB1016170470904FBE70148806897
:100EB0007047000050000020024881680278114409
:100EC0008160704750000020074810B5016841F06C
:100ED00010010160032000F073F8002000F006F814
:100EE00000F024F8002010BD0020024070B50D4D28
:100EF00004464FF47A712878B1FBF0F00A4909688A
:100F0000B1FBF0F000F0B2FC48B9102C07D200227F
:100F10002146501E00F034F800206C6070BD0120A6
:100F200070BD0000500000205C0000200C4808B597
:100F3000816941F001018161816901F00101009144
:100F4000C16941F08051C161C06900F080500090DA
:100F50000448416821F0E06141F00071416008BD42
:100F6000001002400000014000F01F0201219140EA
:100F70004009800000F1E020C0F800117047000037
:100F8000F0B40E4B1B680C46C3F30223C3F10705F4
:100F9000042D00D90425191D072901D2002300E0E2
:100FA000DB1E012606FA05F1491E214099409E40AC
:100FB000761E16403143F0BC00F0B6BF0CED00E0E9
:100FC000064900F0070208684FF6FF03184040EAA0
:100FD0000220034A10430860704700000CED00E057
:100FE0000000FA052DE9F047DFF8548105460E466A
:100FF000D8F8000000F00700B0420CD2D8F800107A
:1010000021F007013143C8F80010D8F8000000F0C3
:101010000700B0426FD128684A4C810712D54007BB
:1010200003D5606840F4E06060602878000703D56D
:10103000606840F4605060606068A96820F0F0006B
:10104000084360602878C00744D06868012816D03B
:101050002168022816D0890700294CDA616821F03E
:10106000030101436160FFF721FF6968074641F210
:10107000883001290ED00229814618D026E0216847
:101080008903E9E78901E7E7FFF710FFC11B49453D
:1010900001D918E081466068C0F381000128F3D1CE
:1010A00018E000BFFFF702FFC11B49450BD860687D
:1010B000C0F381000228F5D10CE000BFFFF7F6FE77
:1010C000C11B494502D90320BDE8F087606810F0D4
:1010D0000C0FF3D1D8F80010404601F00701B142DF
:1010E0000BD9016821F0070131430160006800F06D
:1010F0000700B04201D00120E6E72878400705D577
:101100006068E96820F4E0600843606028780007C0
:1011100006D56068296920F4605040EAC10060602B
:1011200000F036F86168084AC1F30311515CC84009
:10113000064908600020FFF7D9FE0020C4E7000040
:1011400000200240001002404C2700085C000020F4
:101150000448054900684968044AC1F30221515C0A
:10116000C84070475C000020001002405C27000867
:101170000448054900684968044AC1F3C221515C2A
:10118000C84070475C000020001002405C27000847
:1011900013A185B00FC98DE80F0015A0154A00688E
:1011A0000490516801F00C00042804D0082804D0F1
:1011B000114805B070471148FBE7C1F38343C903E9
:1011C0001DF8030009D5516804AAC1F34041515CE0
:1011D0000A4A5043B0FBF1F0EBE709494843E8E71E
:1011E00002030405060708090A0B0C0D0E0F101068
:1011F000010200000010024000127A00001BB7003C
:1012000000093D002DE9F84F04460078B94DC007AC
:1012100048D06868C0F38100012807D06868C0F32F
:101220008100022809D16868C00306D528688003B8
:1012300038D5606800286FD034E06068B0F5803F32
:101240000BD010B1B0F5A02F11D0286820F4803059
:101250002860286820F4802002E0286840F480306C
:101260002860606888B1FFF721FE064609E028681B
:1012700040F480202860F0E7FFF718FE801B642808
:1012800075D828688003F7D50CE0FFF70FFE0646F7
:1012900005E000BFFFF70AFE801B6428F0D828682D
:1012A0008003F7D42078944E80074FF001094FF067
:1012B00000083BD5686810F00C0F07D06868C0F3D1
:1012C0008100022809D16868C00306D42868800715
:1012D00014D5206901281FD110E02069B0B1C6F8EB
:1012E0000090FFF7E3FD074605E000BFFFF7DEFDD6
:1012F000C01B0228C4D828688007F7D52868616910
:1013000020F0F80040EAC10028600FE0C6F8008035
:10131000FFF7CCFD074606E0E9E000BFFFF7C6FD9A
:10132000C01B022823D828688007F7D4207800073C
:101330002CD57248A169D9B1C0F80090FFF7B6FD6D
:10134000074604E0FFF7B2FDC01B02280FD8686A09
:101350008007F7D56A484FF4FA510068B0FBF1F006
:10136000009000BF0098411E0091FAD20EE080E08C
:10137000C0F80080FFF79AFD074604E0FFF796FDEE
:10138000C01B022875D8686A8007F7D42078400708
:1013900060D5E8690027C00008D4E86940F08050B3
:1013A000E861E869012700F0805000905548016825
:1013B000C90513D40168834641F480710160FFF7C9
:1013C00075FD824606E000BFFFF770FDA0EB0A0046
:1013D00064284ED8DBF80000C005F5D5E068012888
:1013E0000AD008B1052813D0286A20F0010028622D
:1013F000286A20F0040002E0286A40F00100286218
:10140000E06841F2883B98B1FFF750FD82460BE05F
:10141000286A40F004002862EEE700BFFFF746FDAF
:10142000A0EB0A0159455AD8286A8007F6D50CE086
:10143000FFF73CFD824605E0FFF738FDA0EB0A010F
:1014400059454CD8286A8007F6D41FB1E86920F0C6
:101450008050E861E06988B36968C1F381010229BD
:1014600045D00228C6F8608004D0FFF71FFD04466F
:1014700038E034E0FFF71AFD074604E0FFF716FDF9
:10148000C01B02282BD828688001F7D4206AB0F549
:10149000803F05D16868A16820F400300843686087
:1014A000D4E908010843696821F4741108436860AD
:1014B000C6F86090FFF7FAFC044606E015E000BFAE
:1014C000FFF7F4FC001B022809D828688001F7D533
:1014D0000BE000BFFFF7EAFC001B022802D9032043
:1014E000BDE8F88F28688001F4D40020F8E70120D7
:1014F000F6E7000000100240000042428004424231
:101500005C0000200070004010B50446806C08B1FB
:10151000FFF761FAE06C08B1FFF75DFA20684168F7
:1015200021F003014160012084F85100002010BD2A
:101530007047000038B504460068426881684B0671
:1015400005D4CB0703D0530601D5216C04E08B07EB
:1015500007D5130605D5616C01B02046BDE83040C3
:10156000084711F0600F3FD093063DD54B060AD5D2
:1015700094F85130032B34D0636D43F0040363655A
:10158000C36883680093890609D5616D41F0010144
:10159000616581680091016821F040010160606D22
:1015A000002821D02068416821F0E001416001203D
:1015B00084F85100900718D02068416821F0030199
:1015C00041600C4DE06C18B14563E06CFFF71CFA0C
:1015D000A06C002808D04563A06CBDE83840FFF738
:1015E00013BAC1688068009038BD2046FFF7A0FF9D
:1015F00038BD00001920000870B5040005D0002592
:10160000A56294F8510010B104E0012070BD20469D
:1016100000F034F8022084F851002068016821F0BD
:1016200040010160D4E901010843D4E903121143E8
:10163000084361690843218B01F400710843E169A3
:101640000843216A0843A16A084321680860A06929
:10165000042101EA1040616A08432168486021685A
:10166000E06A08612068C16921F40061C1616565B3
:10167000012084F85100002070BD00002DE9F041E8
:1016800086B00024064600940194029403940068F6
:101690002C49884253D12C48816941F480518161A1
:1016A000816901F480510491816941F004018161F3
:1016B0008069264D00F004000490A0200090694647
:1016C0002846FFF70BFB40200090022001900320EA
:1016D000039069462846FFF701FB1E4D1C484FF05A
:1016E0008008C5E90004C5E902482C614FF4405761
:1016F0006C61C5E906472846FFF77CFA08B1FEF79A
:10170000CBFDF5646E621248134D143001C51020F4
:10171000A5E81101104845F810496C61C5E9064774
:10172000FFF768FA08B1FEF7B7FDB564002211466D
:1017300023206E62FFF724FC2320FFF715FC06B080
:10174000BDE8F08100300140001002400008014077
:101750001C0002405402002098020020704770478D
:101760002DE9F041044690F85000002601280CD0E5
:10177000012084F8500094F8510000256768012882
:101780000CD0B7F5827F07D102E00220BDE8F081DE
:10179000A7680FB9042801D0022651E031B12AB15F
:1017A00023B194F85100012802D004E0012647E05B
:1017B000052084F8510065652163A386E386A26352
:1017C000A387E3872564656494F8510004283BD01F
:1017D000E16C2048C8622048E16C8862E16C1F48D7
:1017E0000863E06C4563E38F2168A26B0C31E06C09
:1017F000FFF72EFA2068416841F001014160A06CBA
:10180000C562A06C8562A06C0563A06C4563E38E25
:101810002268216B0C32A06CFFF71AFA206801686D
:10182000490603D4016841F0400101602068416825
:1018300041F0200141602068416841F002014160AF
:1018400084F850503046A1E7E16C0548C86205486D
:10185000C2E7000055200008B12000082920000838
:101860004B2000085F2000087047704710B5401EED
:10187000B0F1807F01D3012010BD4FF0E024606102
:101880000F21601700F050FB0020A06107202061AD
:10189000002010BD7047704730B590F83C20012AF9
:1018A00020D0012280F83C20022380F83D300368DC
:1018B0005C6824F070045C6003685C680D682C430D
:1018C0005C6003689C6824F080049C6003689C68EA
:1018D00049680C439C6080F83D20002180F83C1052
:1018E000084630BD022030BD10B5040003D094F886
:1018F0003D0010B107E0012010BD002084F83C003D
:10190000204600F00DF8022084F83D00211D2068DB
:1019100000F0ACFC012084F83D00002010BD000068
:1019200008B500680B49884212D10B48C16941F0E3
:101930000401C161C069002200F00400009011465A
:101940001E20FFF71DFBBDE808401E20FFF70CBB63
:1019500008BD000000080040001002400168CA688D
:1019600042F00102CA600068016841F001010160B3
:101970000020704770B5044690F83C00012817D04D
:10198000012584F83C50022084F83D0020688268DC
:1019900022F0770222F47F4282600868502837D014
:1019A0000DDC202859D005DC88B3102841D151E046
:1019B000022070BD302853D040283AD13FE0602843
:1019C0002ED070280BD0B0F5805F03D0B0F5005F4B
:1019D0002FD110E02068816821F0070115E0CB6865
:1019E000D1E90121206800F077FC2168886840F087
:1019F000770088601DE0CB68D1E90121206800F004
:101A00006BFC2068816841F48041816011E01EE038
:101A1000CA684968206800F071FC5021206806E01F
:101A2000CA684968206800F07AFC6021206800F0EC
:101A30005DFC84F83D50002084F83C0070BDCA680D
:101A40004968206800F05AFC40212068EFE7002137
:101A50002068ECE710212068E9E720212068E6E70C
:101A600030212068E3E7704770B5044600680169DB
:101A70004FF00005C943890715D4C168C9438907D8
:101A800011D4E91E01610120207720688069800758
:101A9000204602D0FFF7E7FF04E000F098F8204668
:101AA00000F096F8257720680169C943490717D4E3
:101AB000C168C943490713D46FF0040101610220D2
:101AC00020772068806910F4407F204602D0FFF71D
:101AD000CAFF04E000F07BF8204600F079F8257793
:101AE00020680169C943090716D4C168C9430907B9
:101AF00012D46FF008010161042020772068C069CA
:101B00008007204602D0FFF7AEFF04E000F05FF848
:101B1000204600F05DF8257720680169C943C906B1
:101B200017D4C168C943C90613D46FF0100101610D
:101B3000082020772068C06910F4407F204602D03A
:101B4000FFF791FF04E000F042F8204600F040F873
:101B5000257720680169C943C90708D1C168C9430D
:101B6000C90704D1891E0161204600F032F82068BF
:101B70000169C943090609D4C168C943090605D4E6
:101B80006FF0800101612046FFF784FE2068016943
:101B9000C943490609D4C168C943490605D46FF051
:101BA00040010161204600F015F820680169C94331
:101BB00089060BD4C168C943890607D46FF0200198
:101BC00001612046BDE87040FFF765BE70BD7047FB
:101BD00070477047704770B5040004D094F839001E
:101BE000002510B106E0012070BD84F83850204671
:101BF00000F022F8242084F839002068C16821F41C
:101C00000051C160204600F09DFB2068016921F46D
:101C1000904101612068416921F02A0141612068F9
:101C2000C16841F40051C160E563202084F83900A7
:101C300084F83A00002070BD30B585B000240094CF
:101C40000194029403940068174988422AD11748E6
:101C5000816941F480418161816901F4804104918D
:101C6000816941F0080181618069114D00F008002F
:101C700004904020009002200190032003906946C8
:101C80002846FFF72BF88020CDE900046946284656
:101C90000294FFF723F80748416841F0E06141F002
:101CA0000401416005B030BD003801400010024021
:101CB000000C014000000140FEE7000070B5134C2D
:101CC000002522460126124823695269310363B177
:101CD000012B09D1A3689A4215DA0122FFF7E1F836
:101CE0006069401CC4E9046070BD63689A4207DA09
:101CF0000022FFF7D6F86069401CC4E9045070BDAB
:101D0000C4E9046570BD6561256170BD38000020BF
:101D1000000C014000B58BB0002001210390CDE9FB
:101D20000601089119490590009001900290164A09
:101D300004900A600C22C1E901204FF08072CA6051
:101D4000D2110A61D2004A61087648768876C87650
:101D5000087748770846FEF701FD00B1FEE76946BF
:101D60000A48FEF711FB00B1FEE70848FEF700FE47
:101D700000B1FEE702210548FEF78FFA002800D0E7
:101D8000FEE70BB000BD0000006400402001002011
:101D90002DE9F04385B00024364800940194029464
:101DA0000394816941F020018161816901F0200182
:101DB0000491816941F004018161816901F00401AC
:101DC0000491816941F0080181618069DFF8A88090
:101DD00000F008004FF48055049000222946404648
:101DE000FFF75FF8DFF89490AF10002239464846BD
:101DF000FFF757F8102000902148CDE9010469460B
:101E00004846FEF76BFF032000901E48CDE9010411
:101E100069464046FEF762FF0095022601250396BB
:101E2000CDE9015469464046FEF758FF00970396F6
:101E3000CDE9015469464846FEF750FF002211469D
:101E40000620FFF79DF80620FFF78EF800221146C6
:101E50000720FFF795F80720FFF786F800221146C4
:101E60000A20FFF78DF80A20FFF77EF805B0BDE8DD
:101E7000F083000000100240000C01400008014007
:101E800000003110000011100D4810B50B49016021
:101E9000002141608160C1604FF400720161C0E9BE
:101EA00005121022C0E90721416281620A21C16244
:101EB000FFF7A2FB002800D0FEE710BD0030014074
:101EC0004801002010B586B0002415480094019404
:101ED0000294039404941149059401600921C0E916
:101EE000011441F61F41C0E903148461FFF7FCFCB3
:101EF00000B1FEE74FF48050009069460848FFF7B4
:101F000039FD00B1FEE7049404A905480594FFF7E4
:101F1000C3FC002800D0FEE706B010BD000800405A
:101F2000A0010020FEE770470907090E002806DA25
:101F300000F00F0000F1E02080F8141D704700F160
:101F4000E02080F800147047704700000148FFF758
:101F5000F1BA0000480100202DE9F041244C01268F
:101F600000256069B702DFF88C8005283DD2DFE8E4
:101F700000F0030E23373700206928B12561FEF7F2
:101F800095FF666060621DE0E560BDE8F081E06895
:101F9000012802D002206061F7E7E56000F028FB2D
:101FA000002000F055FB00F065FB01223946404659
:101FB000FEF777FF0420EEE7FEF778FF616A401A2C
:101FC000642801D26661E0E7012000F041FB00F0E7
:101FD00051FB012239464046FEF763FF0320DAE752
:101FE000002239464046FEF75CFF6561CDE7000000
:101FF000000000200008014038B50B46009204465E
:102000000022802100F07CF8002804D0606D40F0B0
:1020100020006065032038BD10B5406A0021C187EB
:10202000C186FFF785FA10BD10B5406A01684A689D
:1020300022F003024A60416D41F010014165012127
:1020400080F85110FFF774FA10BD10B5406AFFF721
:1020500086FB10BD10B5406AFFF707FC10BD10B538
:102060000146406A0968096889061ED401684A6801
:1020700022F003024A604168B1F5827F0BD181688A
:10208000B1F5004F02D0B1F5806F04D101680A6844
:1020900022F040020A600021C187012180F851101E
:1020A000416D11B1FFF744FA10BDFFF757FB10BDAA
:1020B00070B50546446AFEF7F9FE024628680068D6
:1020C000800619D464212046FFF796FF18B1606D91
:1020D00040F0200060652068416821F00301416004
:1020E0000020E086E087012084F85100606D18B17F
:1020F0002046FFF71DFA70BD2046FFF7B5FB70BD07
:102100002DE9F0411D4617460E460446DDF81880BD
:1021100035E0681C33D02DB1FEF7C8FEA0EB0800F7
:10212000A8422CD32068416821F0E001416060683A
:10213000B0F5827F0BD1A068B0F5004F02D0B0F5AA
:10214000806F04D12068016821F040010160A06A1D
:10215000B0F5005F0AD1206801684DF6FF721140AA
:1021600001602068016841F400510160012084F899
:102170005100002084F850000320BDE8F081206861
:10218000806836EA000004D00020B842C1D10020A7
:10219000F3E70120F9E77047FEF78EBE30B58FB048
:1021A00028216846FDF7D7FF14210AA8FDF7D3FFC1
:1021B00001210804CDE900100024029402250491B5
:1021C000CDE90750000109906846FFF71BF800B100
:1021D000FEE70F20CDE90A054FF48060CDE90C4001
:1021E00002210AA80E94FEF7FDFE002800D0FEE7AB
:1021F0000FB030BD0D48016841F001010160416838
:102200000B4A1140416001680A4A114001600168AF
:1022100021F480210160416821F4FE0141604FF406
:102220001F0181600449C00308607047001002402C
:102230000000FFF8FFFFF6FE08ED00E010B5FFF725
:102240003DFD0848C168491CC160B1F5487F04D113
:10225000002181604FF47A714160BDE8104002486E
:10226000FFF702BC38000020A0010020F0B5026892
:10227000164B174C174D4FF08047984205D0B84287
:1022800003D0A04201D0A84203D122F070064A68D0
:102290003243984205D0B84203D0A04201D0A842B0
:1022A00003D122F44074CA68224322F080044A69B0
:1022B000224302608A68C2620A688262984201D13F
:1022C0000969016301214161F0BD0000002C01405A
:1022D000000400400008004010B5846842EA032270
:1022E00024F47F440A432243826010BD826822F0B6
:1022F00070020A4342F007018160704710B5036A1B
:10230000046A24F001040462846924F0F00444EABD
:10231000021423F00A020A438461026210BD10B560
:10232000036A23F0100303628369046A23F4704391
:1023300043EA023224F0A00343EA01118261016200
:1023400010BD00002DE9F041044600680169E26813
:1023500021F44051114301612169A068084361697A
:1023600008432168CA6841F20C639A430243CA6079
:1023700020684169A26921F44071114341614C49CF
:1023800020686425322688423CD1FEF7F1FE00EB3E
:10239000C00101EB001061688900B0FBF1F7FEF7A6
:1023A000E7FE00EBC00101EB00106168B046890058
:1023B000B0FBF1F0B0FBF5F06FF01801484307EB0C
:1023C000800106EB0110B0FBF5F000F0F006FEF71F
:1023D000CFFE00EBC00101EB001061688900B0FB8B
:1023E000F1F0B0FBF5F006EB0016FEF7C1FE00EBD6
:1023F000C00101EB001061688900B0FBF1F7FEF746
:10240000B7FE3BE0FEF7A4FE00EBC00101EB0010BD
:1024100061688900B0FBF1F7FEF79AFE00EBC0019E
:1024200001EB00106168B0468900B0FBF1F0B0FB31
:10243000F5F06FF01801484307EB800106EB01103F
:10244000B0FBF5F000F0F006FEF782FE00EBC001F5
:1024500001EB001061688900B0FBF1F0B0FBF5F012
:1024600006EB0016FEF774FE00EBC00101EB001056
:1024700061688900B0FBF1F7FEF76AFE00EBC0016E
:1024800001EB001061688900B0FBF1F0B0FBF5F0E2
:102490006FF01801484307EB800108EB0110B0FB17
:1024A000F5F0216800F00F0030448860BDE8F0814D
:1024B000003801400148FEF753B800002001002019
:1024C0000148FEF74DB8000020010020FEE702E0C1
:1024D00008C8121F08C1002AFAD1704770470020AF
:1024E00001E001C1121F002AFBD17047394808B52D
:1024F0000024C4600221846001610121016004752F
:10250000FEF7E2FCFFF74AFEFFF742FC3248416962
:1025100041F0010141614069002200F0010000909A
:1025200011460C20FEF72CFD0C20FEF71DFD0022AD
:1025300011460D20FEF724FD0D20FEF715FDFFF7D7
:10254000A3FCFFF7E7FBFFF7BDFC224823495C38FB
:1025500001604FF4E131C0E901140C21C460C0E90D
:1025600004418461C461FFF736FB00B1FEE71948FE
:10257000F43800F0CBF817489C38FFF7EFF9184E05
:10258000184FDFF86480DFF8649045F255554FF03E
:10259000C80A4FF0640B102000F066F8A8420DD175
:1025A00000211020346000F079F8B86801280CD0C0
:1025B0004FF49660C8F800B0C9F80000FFF7CCFCF3
:1025C000FDF7EEFD00F024F8E5E75046C8F800A05E
:1025D000F2E700003C0200200010024000380140F9
:1025E0004400002000000020400000203C000020AB
:1025F000064810B5B0F904100468042000F048F84B
:102600002146BDE81040082000F042B8300000200C
:102610000C4808B50168012912D1002101600C2085
:1026200000F022F808490090022008610860074B7A
:102630006A46A1F58E70FDF742FE002800D0FEE745
:1026400008BD0000380000203C0200201C000020D3
:1026500010B504460146002000F01AF801488460D5
:1026600010BD0000000000200149084400687047C8
:1026700060000020054910B51F2201F16000FDF740
:1026800051FD024955206031C87710BD80000020FF
:10269000014A10440160704780000020014A104444
:1026A000016070476000002010B5044610211448F6
:1026B000FEF7F2FB1349002808681CD040F4807034
:1026C0000860086820F0400008602046FEF71CFF04
:1026D0000D48C07F552805D10B492022A1F14000AB
:1026E000FDF720FD084A2046BDE81040202302F1F6
:1026F0004001FFF735B820F48070086010BD00007D
:102700000008014000300140A000002010B5044640
:1027100020210D48FDF71FFD0B4820212030FDF73B
:102720001AFD40210848FDF716FD074840212030DA
:10273000FDF711FD044955208031C87720680168F4
:1027400041F48071016010BD6000002000000000B5
:102750000000000001020304060708090000000051
:10276000010203048427000800000020600000002C
:10277000CE240008E4270008600000208006000046
:10278000DE2400080000000000000000010000003E
:102790000000000000000000000000000000000039
:1027A0000000000000000000000000000000000029
:1027B0000000000000000000000000000000000019
:1027C0006400000064000000000000000000000041
:1027D00000000000010000001000000000000000E8
:0427E00000A24A0405
:04000005080000ED02
:00000001FF
